:020000040801F1
:10000000D07F0010792001088901010889010108C9
:100010008901010889010108890101080000000027
:100020000010011003F8A259000000008901010826
:10003000890101080000000099260108491E0108F5
:100040008901010889010108890101088901010864
:100050008901010889010108890101088901010854
:100060008901010889010108890101088901010844
:100070008588010859310108E9870108C130010864
:100080008901010889010108890101088901010824
:100090008901010889010108890101088901010814
:1000A0008901010889010108890101088901010804
:1000B000114101084D41010889410108C93C01086D
:1000C0004D3C0108890101088901010889010108E5
:1000D00089010108890101088901010889010108D4
:1000E00089010108890101088901010889010108C4
:1000F00089010108890101088901010889010108B4
:100100008901010889010108C54101088901010827
:100110008901010889010108890101088901010893
:100120008901010889010108518E0108890101082E
:100130008901010889010108890101088901010873
:100140008901010889010108890101088901010863
:10015000C1290108B58D01082D290108890101086F
:100160008901010889010108890101088901010843
:100170008901010889010108890101088901010833
:100180008901010889010108FEE7000010B5054C4E
:10019000237833B9044B13B10448AFF30080012333
:1001A000237010BD000000200000000048C70108B7
:1001B00008B5034B1BB103490348AFF3008008BDEA
:1001C000000000000400002048C7010830B583B0DB
:1001D00004460078A3890093A36808220A21204DD1
:1001E000A8472078A3890093A36808220A21A8477A
:1001F0002078A3890093A36808220B21A847A2783E
:100200002078A3890093A3680021A84762882078FA
:10021000A3890093A368120A0121A84722792078B4
:10022000A3890093A3680221A847A2882078A38904
:100230000093A368120A0321A84763880BB103B097
:1002400030BD2078A3890093A36800221221A8471B
:10025000A3682078A289009200221321A847EEE724
:10026000994901082DE9F04782B0044642884FF6CB
:10027000FF739A422CD00A264FF01209DFF8AC80A7
:100280004FF0130AA27B2078A3890093A368494604
:10029000C047E2892078A3890093A368120A5146D7
:1002A000C047A389A268494620781F4FB847054632
:1002B000A389A26851462078B84745EA0020E3891F
:1002C00080B2834201D0013EDCD102B0BDE8F087AC
:1002D0008389826812210078134DA8470746A389B5
:1002E000A26813212078A84747EA0027BFB20A2650
:1002F0004FF0120AA8464FF01309A389A26851468D
:100300002078C0470546A389A26849462078C0479F
:1003100045EA002080B2B84203D00746013EECD146
:100320000020E081D1E700BF1D4B01089949010879
:1003300038B5184B30221A60174B4C221A60174BF5
:100340009847174D2846174CA04705F11000A047C5
:1003500005F12000A04705F13000A04705F140005D
:10036000A047114D2846A04705F11000A04705F110
:100370002000A0470D4B03F53E7400220F200D21F5
:100380001A705A705A809A80D88019810A33A34211
:10039000F6D138BD6C0B0020440B002085490108C4
:1003A00000000010CD010108500000101C000020CA
:1003B00038B580B1104D4FF4006128460F4CA0476E
:1003C0004FF480512846A04708212846A047102115
:1003D0002846A0470FE0084D4FF400612846084C1E
:1003E000A0474FF480512846A04708212846A0473F
:1003F00010212846A04738BD0010024025120108F0
:100400002912010838B590B1124D4FF40051284619
:10041000114CA0474FF400412846A04705F5006560
:1004200040212846A04780212846A04711E0094DD9
:100430004FF400512846094CA0474FF4004128468C
:10044000A04705F5006540212846A04780212846A1
:10045000A04738BD001002402512010829120108EA
:1004600008B50120014B984708BD00BF05040108ED
:1004700008B50020014B984708BD00BF05040108DE
:100480002DE9F04184B000238DF804308DF805305B
:100490008DF806308DF807308DF808308DF809306A
:1004A000062201A96048614B98479DF805209DF8F8
:1004B000043043EA02235E4AD2899A4203D05C4860
:1004C000C3815C4B984701205B4B98475B4B1B6893
:1004D000012B1CD0022B2FD013B104B0BDE8F0814A
:1004E000574B1A78574B1B68002B08BF01239B1AE8
:1004F000592BF2DD544B9847524B1B68002B08BF19
:1005000001234F4A13704D4B01221A60E5E74C4B13
:100510001A784C4B1B68002B08BF01239B1A092B30
:10052000DBDD484B1B68002B08BF0123444A1370D6
:10053000424B02221A60D0E7424B1B68002B08BFD7
:1005400001233F4A137000243C4B1C6040213F486C
:100550003F4B98473F4D2846364EB04705F11000B7
:10056000B04705F12000B0473B4B9847EB898DF829
:1005700004301B128DF80530EB8B8DF806301B1202
:100580008DF80730EB8D8DF808301B128DF809308F
:10059000EB8F8DF80A301B128DF80B30B5F84E300A
:1005A0008DF80C301B128DF80D302C4DA0462C4FC1
:1005B0002C4E18E0AA88E988914284BF0132AA80B3
:1005C0006A880AB1013A6A801A895988914224D30B
:1005D00001225A705A78E1B23846B04701340A35E0
:1005E0004C2C3FF47AAF04AB03EBE40313F80C2C70
:1005F00004F007031A4102F001022B462A70002A78
:10060000D8D06A88E988914284BF01326A80AA887A
:10061000002AD9D0013AAA80D6E79988914228BF0A
:1006200083F80180D6E700BF6C0B0020550B010852
:100630005000001065020108B103010818030020F2
:1006400014030020841000207104010800100240EF
:100650002512010800000010610401081C000020A0
:10066000440B0020270B01081B4B1A681B4B1B680F
:10067000002B08BF01239B1A0F2B2BDD10B582B076
:10068000164B1B68002B08BF0123134A13600DF1A2
:1006900006020121124B1878124B984718B94FF4F3
:1006A000FE43ADF806300E4C0122BDF9061020784D
:1006B0000D4B9847C1B220780C4B984723780133F3
:1006C000DBB2052B04D9064B00221A7002B010BD14
:1006D0002370FBE7704700BF1C030020841000203C
:1006E00020030020A15301084D640108230C0108D8
:1006F00008B54FF480610248024B9847002008BDBE
:10070000000C02402512010808B504210248034BE1
:100710009847002008BD00BF0010024025120108C4
:1007200008B54FF480710248024B9847002008BD7D
:10073000000802402512010808B50248024B9847FC
:1007400008BD00BF340300202D5C010808B54FF43C
:1007500080610248024B984708BD00BF000C024070
:1007600029120108074B084A1A6200225A629B6A42
:1007700040F69F71D9625A621A8842F001021A80CB
:10078000704700BF14310020F1060108074B084AEA
:100790001A6500225A659B6D40F69F71D9625A62B4
:1007A0001A8842F001021A80704700BF14310020FD
:1007B0000907010808B504210148024B984708BD04
:1007C000001002402912010808B54FF48071024858
:1007D000024B984708BD00BF0008024029120108DB
:1007E000074B084A1A6300225A639B6B40F69F71BD
:1007F000D9625A621A8842F001021A80704700BF1B
:1008000014310020210701082DE9F04F89B00020A4
:100810008B4B98474FF480718A488B4B984706A8BA
:100820008A4B98479DF81A309DF819209DF81810AA
:100830009DF81D0002909DF81C0001909DF81B0082
:1008400000908348834CA0470626DFF8A0B2A1465B
:10085000DFF85482DFF87CA201E0013E32D0584636
:10086000C847C820C04701210DF117007A4B9847AF
:100870000128F2D19DF817300D2B01D00A2BECD1B5
:100880007648C847764B1D68002D08BF0125002417
:100890001F463B68002B08BF01235B1B4EF66022FE
:1008A0009342DAD8D0470220C0473B68002B08BFEC
:1008B00001231B1BB3F5FA6FEBDB3C68002C08BF70
:1008C0000124E6E7674B9847E0B9674B9847E0B9E2
:1008D000664B98476648674B9847011E18DB664C85
:1008E000A16866485B4B9847002341F62D321946B4
:1008F000A068634CA0470146002837D15E4B012217
:100900001A6008E05F4B9847DFE75E4B9847DFE7E8
:100910005D48504B98475D4B98475D4B98475D4B02
:1009200098475D4B98475D4B98475D4B98475D4CAA
:1009300004212046444B984764205B4B9847042190
:1009400020465A4CA04740215948A047444B1E68B6
:10095000002E08BF012600273D461C46DFF8908187
:10096000544BA3F10C0A0AF1100B2BE05248394BFF
:100970009847D0E7013707F00F00504B9847314AAE
:10098000536983F4807353612668002E08BF0126E3
:1009900039464B482F4B984701204A4B984736E041
:1009A00041460220484B9847484B1A682368002B61
:1009B00008BF01239B1A41F28832934202DD384678
:1009C000434B98470120384B98472368002B08BFBA
:1009D00001235B1B632B08DD2568002D08BF012563
:1009E000334A536983F0800353613A4B98473A4B3B
:1009F00098473A4B98473A4B98473A4B9847236861
:100A0000002B08BF01239B1BB3F57A7FB2DA364B6C
:100A100098470028C8D0184B1B68002BC4D0CDF8CD
:100A200000B0244B4FF400624146DAF80800DFF8CA
:100A3000C490C84720EAE0720028B1DCB4E700BFE8
:100A4000390701080018024025120108E1150108C4
:100A500024B80108A52C01089D28010868B80108E0
:100A600084100020C9180108A9350108B95B0108E4
:100A70007059002089390108685900200CC201080A
:100A8000593A01081D6401088CB80108354F010866
:100A90002D480108356401083103010815200108BB
:100AA000210C0108000C02406D24010829120108E4
:100AB0000014024074590020A0B80108B90B0108C5
:100AC000B4B80108692201089D1101083010002006
:100AD000250C0108B16301080963010881040108BC
:100AE000690601089F110108B166010864B8010890
:100AF00034030020713901080368994211DA01F0CA
:100B0000070201239340DBB2C9084218927B1342CB
:100B100014BF18300430425C134214BF012000207F
:100B20007047002070470368994212DA10B404300D
:100B300001F007040123A34032B9C908425C22EA4C
:100B40000303435410BC7047C908425C1343435429
:100B5000F8E770472DE9F0410368DC1DB2EBE40FC4
:100B600025DB002B1EDD0E4605460024DFF8448001
:100B7000012709E0E108725C22EA0303735401349F
:100B8000E4B22B689C420DDA21462846C04704F0A7
:100B9000070307FA03F30028ECD0E108725C134363
:100BA0007354ECE7D81DC0F3C700BDE8F081FA200C
:100BB000FBE700BFF90A01082DE9F04182B01128D6
:100BC00017D8104B1F5C00240F4EA0460F4D47FA5C
:100BD00004F313F0010F04F1280114BF012242466F
:100BE000C9B23046A8470134082CF0D102B0BDE8A4
:100BF000F08100900C23064A06490748074CA0479D
:100C00000F20DEE7FCB801086C0B0020270B010861
:100C100010B90108C4B80108D8B80108A52C01080A
:100C20007047704730B583B004460020224B984788
:100C3000224B1A68224B1B68002B08BF01239B1A0A
:100C4000B3F57A7F12DB1E4B1B68002B08BF012314
:100C50001A4A136000211B481B4B984740B9214694
:100C600018481A4B98471A481A4B984703B030BD9A
:100C700000216846184B9847184D9DF800302B709E
:100C80009DF801306B709DF80230AB709DF8033019
:100C9000EB709DF804302B719DF805306B710621C7
:100CA00028460F4B9847E880082229464FF40070E9
:100CB0000C4B9847D3E700BFE1100108940B0020CC
:100CC00084100020A00B0020FD0C0108E90C010895
:100CD00018B90108A52C010821140108980B00205F
:100CE000192101088545010808B50248024B9847BB
:100CF00008BD00BF70B90108A52C0108002070478D
:100D000070B4032800F2BF80DFE800F00255779945
:100D1000674B1A8B5D8A998A8D420AD3DB8A1E46FD
:100D20009D4244D21C468D4209D9B14209DC0B4692
:100D300007E05F4BDB8A1E469942F3D30C46B5426F
:100D400037DDB2F52F7F17D8511EB1F5B37F13D918
:100D500002EB42018900574DA5FB0151B4EBD10FC5
:100D60000AD8002B00F09C80D2005249A1FB02124D
:100D7000B3EBD20F80F094804F4B53F82030012B0F
:100D800000F085804D4B53F820204D4B1B68002B05
:100D900008BF01239B1A40F6B832934200F38680C5
:100DA0000023454A42F82030184670BC70472C4654
:100DB000B9E72B46C5E73E4BB3F87E20B3F8785031
:100DC000B3F87A108D420BD3B3F87C301E469D42A7
:100DD00011D21C468D420AD9B142B2DC0B46B0E7B3
:100DE000334BB3F87C301E469942F2D30C46B542E1
:100DF000A7DC2B46A5E72C46ECE72D4BB3F8E42007
:100E0000B3F8DE50B3F8E0108D420BD3B3F8E23004
:100E10001E469D4211D21C468D420AD9B14290DC39
:100E20000B468EE7224BB3F8E2301E469942F2D3CE
:100E30000C46B54285DC2B4683E72C46ECE71C4B81
:100E4000B3F84A21B3F84451B3F846118D420CD39C
:100E5000B3F848311E469D4213D21C468D420BD931
:100E6000B1423FF76EAF0B466BE7114BB3F8483119
:100E70001E469942F1D30C46B5423FF762AF2B466E
:100E80005FE72C46EAE700231C461A4659E70C4B5D
:100E90001B68002B08BF0123084A42F8203071E785
:100EA000054B012243F8202000207EE701207CE74B
:100EB000C80B0020CDCCCCCC80000010A40B0020AF
:100EC000841000201B4BDB78052B2ED8DFE803F0C5
:100ED000030812181E24174B01221A70DA7070478B
:100EE000144A0023137014490B780133DBB20B70E2
:100EF000D37070470F4B03221A700022DA707047CC
:100F00000C4B04221A700022DA707047094B05223C
:100F10001A700022DA707047064B06221A700022FF
:100F2000DA70054B01221A707047024B00221A70CA
:100F3000704700BFB80B00209000001038B560B1BA
:100F4000032822D0042825D0052828D0062808D137
:100F500033214FF49873062503E009214FF4FA6317
:100F60003125114CA5700322E2701A0A22716371B7
:100F70000023A371E1710621A01C0C4B9847030AC2
:100F8000237260720823238038BD33214FF4987395
:100F90000325E6E733214FF498730425E1E7332175
:100FA0004FF498730525DCE7640E002061110108F9
:100FB00008B5064B1878012807D0054B9847054817
:100FC000054BDB6830F8021B984708BDB80B0020C2
:100FD0003D0F0108640E0020542C002008B5024B80
:100FE0009847024B984708BDC50E0108B10F01088C
:100FF00010B58B78662B1ED1114B1B68CB1C114A88
:1010000001F1690413F8011B02F8011FA342F9D191
:101010000D4CA21E0D4B662101FB003102396434D8
:1010200032F8023F5BBA21F8023FA242F8D1C0B2C7
:10103000074B984710BD19460648074B9847F9E7F4
:1010400084100020670F0020680F0020C80B0020CC
:10105000010D010880B90108A52C010810B504781C
:10106000E31EDBB2032B00D910BD0A460146E01E89
:10107000014B9847F8E700BFF10F010838B5062982
:1010800005D8154A936801339360002038BD0D469A
:101090000446023989B2114B98476319C0F30722FD
:1010A00013F8023C9A4205D00B4A936801339360CF
:1010B0000020EBE72C4414F8013CC0B28342F3D18A
:1010C000054BDB68B3F1FF3F04D00133024AD36024
:1010D0000120DBE70120D9E7B80B002061110108EE
:1010E00038B5174B1A68174B1B68002B08BF012334
:1010F0009B1AF92B1CDD134B1B68002B08BF012327
:101100000F4A1360104B1B686BB9104DAC1C104B91
:101110001B694FF480712046984781B22980204690
:101120000C4B984728B90C4B9847074B00221A6084
:1011300038BD284630F8021B084B9847F3E700BF3C
:10114000B40B00208410002094000010600D0020DB
:10115000542C00207D100108DD0F01085D100108EE
:10116000A9B110B44B1E9BB20133C1184FF6FF73E7
:10117000094C10F8012B82EA232234F8122082EA6B
:1011800003239BB28842F4D1184610BC70474FF637
:10119000FF731846704700BFB0B901087047704729
:1011A000F0B40023012503260DE0C26806FA07F417
:1011B00022EA0402C260C468CA79BA402243C2600B
:1011C0000133102B2CD005FA03F20C68A243F7D19F
:1011D00004685F0006FA07F2D24314400460D0F8B6
:1011E00000C00C79BC4044EA0C0404600C79013C5A
:1011F000E4B2012CD9D884682240826084684A799C
:10120000BA4022438260426805FA03F422EA0402EB
:10121000426044688A799A4092B222434260C4E7AD
:10122000F0BC7047018370474183704710B401F0F0
:1012300007039B00C90800EB8100016A0F249C4052
:1012400021EA04010162016A9A400A43026210BC69
:101250007047000010B4284B9B6803F00C03042B6C
:1012600022D0082B23D013B1244B036001E0234B81
:101270000360214CA368C3F303132149CB5CDAB2AA
:101280000368D3404360A268C2F382228A5CD2B270
:1012900023FA02F28260A268C2F342328A5CD2B2BE
:1012A000D340C36010BC7047164B0360E1E7124B9C
:1012B00059685A6802F03F0211F4800F11D0596842
:1012C000C1F388110F4BB3FBF2F303FB01F30A4A9E
:1012D0005268C2F3014201325200B3FBF2F30360E1
:1012E000C7E7054B5968C1F38811044BB3FBF2F310
:1012F00003FB01F3EBE700BF003802400024F400D9
:101300009800001000127A0029B9054A136B23EAED
:10131000000010637047024A136B18431063704754
:101320000038024029B9054A936B23EA0000906314
:101330007047024A936B184390637047003802402D
:1013400029B9054A136C23EA000010647047024A69
:10135000136C1843106470470038024029B9054ADD
:10136000536C23EA000050647047024A536C1843E0
:10137000506470470038024029B9054A136923EACE
:10138000000010617047024A1369184310617047EA
:101390000038024029B9054A136A23EA00001062A6
:1013A0007047024A136A18431062704700380240BF
:1013B00029B9054A536A23EA000050627047024A7D
:1013C000536A1843506270470038024010B586B027
:1013D0008DF814008DF815100D4B9847044628B170
:1013E000022C14BF2046002006B010BD094B9847C0
:1013F000012302930522019200930023022205A9F2
:101400006F20054CA0470446044B9847E8E700BF0F
:10141000A53F0108494001087540010861400108E5
:101420002DE9F04387B00746314B1A68314B1B68F2
:10143000002B08BF01239B1AB3F5FA7F02DC0AB127
:10144000002944D006AE002306F8013D2A4B9847F8
:101450000624DFF8C480DFF8B09001E0013C14D02E
:101460000122029201920023009331466F20C0476F
:1014700005460128F2D1012302930193009308222B
:1014800049466F20C047051EE8DD1C4B9847082DD4
:1014900007D029461A481B4B9847002007B0BDE8E3
:1014A000F083194CE17901F00101184B1A681143DE
:1014B00019601748134B984708212046154B984749
:1014C0000C4B1B68002B08BF0123094A13600E4B0D
:1014D0005A793A701A797A70DA78BA709A7802F092
:1014E0003F02FA705A783A711B787B710120D5E778
:1014F0003410002084100020494001086140010898
:10150000D0BB0108A52C0108381000204410002091
:10151000E4BB0108952101087540010810B588B0A9
:1015200000228DF8102003788DF8163043788DF85E
:10153000153083788DF81430C37863F07F038DF80D
:10154000133003798DF8123043798DF811308DF80E
:101550001720102107201A4B9847011E0CDB194B4E
:101560009847044668B1082C1CD021461648174BF2
:101570009847002008B010BD1548144B984700202C
:10158000F8E7144B98470123029305220192009338
:101590000023082204A96F200F4CA04704460F4BDC
:1015A0009847E0E700210720054B9847011E01DB23
:1015B0000120DFE70648054B98470020DAE700BF27
:1015C000CD130108A53F01080CBC0108A52C01089A
:1015D000FCBB010849400108754001086140010851
:1015E00010B582B0044600216846134B984740B1BD
:1015F0009DF801303BB124B100982060BDF8043063
:10160000A38002B010BD20238DF8003001238DF897
:1016100001308DF8023012238DF8033057238DF8F6
:10162000043000238DF805306846044B9847044881
:10163000044B9847DFE700BF211401081D1501087E
:10164000B0BB0108A52C010838B558B90023892280
:1016500012491348134CA0474FF47A75124C284690
:10166000A047FCE7024671B900238A220B490C48C7
:101670000C4CA0474FF47A750B4C2846A047FCE76A
:1016800013B9002006E00346994204D09B689342B8
:10169000F6D1002038BD0120FCE700BF58BC01088E
:1016A00070BC0108A52C01086D24010838B54588D7
:1016B000C5F30E055DB90023412223492348244C7C
:1016C000A0474FF47A75234C2846A047FCE7044610
:1016D000082D19DC013D21461F4B53F825001F4BF7
:1016E0009847B0B921461C4B53F825001B4B98472F
:1016F0000346992214491548154CA0474FF47A75B2
:10170000144C2846A047FCE71F2DCCBF092508250F
:10171000E1E7A368A34206D10023A36063600E4AF9
:1017200042F8253038BD0C4A52F82520A24204BFA9
:10173000094A42F8253062685A606368A2689A6074
:101740000023A3606360EDE758BC010870BC01088A
:10175000A52C01086D240108541000204916010829
:101760002DE9F84F06460F460B681B1A5D092946FE
:1017700049484A4B98471F2D40F384804FF6FE742A
:10178000AC42A8BF2C4606EB44123A6031464448AE
:10179000424B98473346002D76D0002E76D0414AF2
:1017A000D2F800C0404AD2F800904FF6FF7547F6D5
:1017B000FF783E4FB4F5004FB4BF224642465A80F0
:1017C00096B21D80194663452CBFA3EB0C05A3EB15
:1017D0000905C5F34F15C6F30E00C0B1082822DC79
:1017E00000F1FF3A57F82A2022B39646BEF802B01D
:1017F000CBF30E0B584535D9DEF808E07245F5D12C
:1018000050688360506858609A60536016E0002307
:10181000412227492748214CA0474FF47A75264C8E
:101820002846A047FCE71F28CCBF4FF0090A4FF01D
:10183000080AD7E75B609B6047F82A3061452CBFF8
:101840001E4A1F4A12685B88C3F30E0301EB431163
:1018500091421DD2A41B0B46002C11DD0029A9D1F9
:10186000002016E0C3F808E0DEF804005860CEF867
:101870000430586883607245E0D147F82A30DDE7CC
:10188000002006E00F4804E0002002E0002000E015
:101890000020BDE8F88F00BF1CBC0108A52C010882
:1018A0003CBC0108501000204810002054100020BB
:1018B00058BC010870BC01086D2401084C100020C0
:1018C00080100020F7ADFFFF70B582B01A4B0122E7
:1018D0001A601A4A1A4D2A601A4921F003011A4C5B
:1018E00021601A481A4B18601A4B23F003031A4E52
:1018F0003360009019481A4EB04729462068194BAA
:10190000984700280FDB144B1868114B1B68834263
:1019100002D92368984208D8094B1B680C4A136007
:101920000D4A1360002002B070BD09490D4B984765
:101930000028F1DB0020F6E77C100020007C00107E
:1019400080100020E70400104810002000FC012057
:101950004C10002014C50020501000209CBC010831
:10196000A52C0108611701082DE9F04182B0074656
:1019700000F123084FEA58184FF0FF319E489F4B63
:1019800098471FFA88F56DB1082D17DD1F2DCCBFC4
:1019900009230823092B00F39080994901EB830167
:1019A000043972E00023412296499748974CA0479A
:1019B0004FF47A75964C2846A047FCE76B1E092B1E
:1019C0000BD900234D228F498F48904CA0474FF4EC
:1019D0007A758F4C2846A047FCE7072BDADC884A4B
:1019E00052F823203AB986490133082BD5D051F853
:1019F0002320002AF8D09468944225D05168616071
:101A000051689068886090687D4941F82300002300
:101A1000936053601446002C4FD06388C3F30E02CA
:101A2000954280F2B08021467A4B1B689C4254D389
:101A300004EB421278480068904240F2F980104668
:101A400004EB45152E46F7E00022A26062606C4967
:101A500041F82320DFE7A168A1420CD0A24200F0A8
:101A6000BD8063684B606368A2689A600023A360CE
:101A70006360D0E714460022A2606260604941F8CA
:101A80002320C8E701330A2B17D051F8042F002A6E
:101A9000F8D05088C0F30E00854240F39A809468D5
:101AA000A242EFD0002CEDD06088C0F30E0085423A
:101AB000D1DDA468A242F5D1E4E74F48574B9847DF
:101AC00000974FF49A73564A4E4956484F4CA047D8
:101AD00001204F4B984700206BE004EB4212524B21
:101AE0001B6893427ED9104604EB45152E467DE0D7
:101AF0000023412243494448444CA0474FF47A759F
:101B0000434C2846A047FCE7481E3D4B53F8203085
:101B100083B11A46B2F802C0CCF30E0C614526D947
:101B200092689342F6D15A6896605A687260B360C0
:101B30005E6004E07660B660314B43F82060354B60
:101B40001B68AB4294BF344A374A11687288C2F3AB
:101B50000E0205EB42128A421CD2DAB1AB4284BFBC
:101B6000324B1B68EB1AC3F34F13138012E0B260C1
:101B700051687160566071688E609342DFD1204B6E
:101B800043F82060DBE7954216D16FEA43436FEAE2
:101B9000534363801848214B9847201D002F08DDD0
:101BA00004373C44034600215A1C197013469442E2
:101BB000FAD102B0BDE8F08100234FF4A7721149B9
:101BC0001148124CA0474FF47A75114C2846A04793
:101BD000FCE7916891423FF44DAF1446084A42F841
:101BE00023103EE704EB45152E4600200F4B1B68E3
:101BF000CB1AC3F34F1322E07C100020A925010863
:101C00005410002058BC010870BC0108A52C010824
:101C10006D240108501000204C10002025260108DA
:101C200090BC0108D8B8010880100020481000209E
:101C300004EB45152E460020CB1AC3F34F131FFAB1
:101C400088F833806388C3F30E03A3EB0803738023
:101C50006FEA48436FEA5343638058B1438813F4F3
:101C6000004F07D17288D118B1F5004F02DA7180A8
:101C7000074B98477188C1F30E0100293FF438AF34
:101C800008297FF741AF1F29CCBF092008203CE776
:101C9000AD160108002800F0B98070B505464FF078
:101CA000FF315B485B4B98472E1F3446738813F413
:101CB000004F0DD103F4004340F2711256495748CA
:101CC000574CA0474FF47A75564C2846A047FCE77E
:101CD000C3F30E03738035F8042C4FF6FF718A426C
:101CE00033D051490D68AE423CBF50490D6805EBF9
:101CF00042154D4A126896422CBF4D4A4D4A126811
:101D000006EB431090420BD250B1428812F4004FC0
:101D100006D1D118B1F5004F02DA7180464B9847D1
:101D200045B16A8812F4004F04D173881344B3F5A7
:101D3000004F0CDB6288C2F30E028AB1082A1BDD59
:101D40001F2ACCBF0920082017E00025D1E728462C
:101D5000394B98476B88728813446B802C46E9E7AF
:101D6000002341222C492D482D4CA0474FF47A7571
:101D70002C4C2846A047FCE7501E304B53F820104F
:101D8000B1B10B465D88C5F30E05AA422FD99B68F9
:101D90009942F7D14B689C60284B53F82020526839
:101DA000626053F82020A26053F820305C6003E0AA
:101DB0006460A46043F820401B4B1B689C422CBF0E
:101DC0001B4A1C4A15686288C2F30E0252011019A0
:101DD000A84208D238B19C423CBF144B1B68E31A9E
:101DE000C3F34F1313530A48154B984770BDA360B4
:101DF0005A6862605C6062689460104A52F8202001
:101E00009342D9D10D4B43F82040D5E7704700BF2E
:101E10007C100020A925010858BC010870BC0108ED
:101E2000A52C01086D240108501000204810002046
:101E30004C10002080100020AD1601085410002026
:101E40002526010804207047084B1B6813F4803FC7
:101E50000BD0074A136801331360064B4AF6AA22D7
:101E60001A60054B4FF080525A60704710E000E056
:101E7000841000200030004000ED00E000B585B087
:101E80006846144B9847019B134AA2FB03235B0A45
:101E9000013B124A536000239360114BE02183F809
:101EA0002310072313606FF004000E4B984745F290
:101EB00055500D4B984703200C4B98474FF49670A4
:101EC0000B4B98470B4B98470B4B984705B05DF869
:101ED00004FB00BF55120108D34D621010E000E072
:101EE00000ED00E04D7A0108D9800108E580010885
:101EF000F1800108FD8001080D810108044B1B6879
:101F00001844034A13681B1A002BFBDB704700BF01
:101F1000841000202DE9F8434FF6FF7398420ED04D
:101F200004468946DFF89C80224F234E0CE02A4667
:101F300021462248224B98472846BDE8F8830825C9
:101F4000FAE70825F8E70824C04702212046B847E9
:101F50000546B047082DEAD1A145F2D0002CF2D0B9
:101F6000082C13D0102C13D0182C13D0202C13D0E5
:101F7000282C13D0302C13D0382C13D0402C13D055
:101F8000482C13D0502C13D00825D5E71024DBE7BC
:101F90001824D9E72024D7E72824D5E73024D3E72D
:101FA0003824D1E74024CFE74824CDE75024CBE7BD
:101FB0005824C9E74D7D0108C17C0108D0BC010847
:101FC000A52C0108A17C010810B50A4C4FF0FF3187
:101FD0002046094B984758213820084B984701461E
:101FE0000748084B9847084B084A1A602046084B98
:101FF000984710BD8C100020A9250108151F010865
:10200000F0BC0108A52C010888100020000006087B
:102010002526010870B5134B01221A601249134B93
:10202000196000241646124D0BE0104B196018E0A1
:102030000E4B19600F4B984713E020313446A942EC
:10204000F6D80B68B3F1FF3FF7D10B1D01F120006B
:102050001A68B2F1FF3FF0D104338342F8D1002C6B
:10206000E3D170BD8C10002000000608881000200D
:10207000FFFF0F08C91F010808B51B4B98471B4AF3
:102080001B4B9A420DD2194A111D1A4B5B1A23F0B1
:1020900003030B44184951F8040B42F8040B9A420D
:1020A000F9D1164A164B9A420BD2144A111D154B00
:1020B0005B1A23F003030B44002142F8041B9A42ED
:1020C000FBD1114A114B9A60ADF5007383F3098877
:1020D0004FF0020282F31488BFF36F8F0C4B9847C6
:1020E0000C4B9847FEE700BFAD84010800000010CC
:1020F000E4040010E704001048C7010800000020B5
:1021000011C5002014C500200000010800ED00E00A
:10211000C1B601085166010889B110B44118002305
:10212000084C10F8012B82EA132234F8122082EABC
:1021300003239BB28842F4D1184610BC7047002399
:102140001846704714BD010870B4F1B1411800245D
:102150000F4E10F8015B85EA142536F8155085EA14
:102160000424A4B28842F4D163B11344084D12F898
:10217000011B81EA142135F8110080EA0424A4B27D
:102180009A42F4D1204670BC70470024ECE700BFAF
:1021900014BD01082DE9F84305460E461348144BBB
:1021A0009847002E1CDD29781248114B98470024CF
:1021B000DFF840800E4FDFF840900134A6420FD088
:1021C00015F8011F4046B847624204F00F0302F0C1
:1021D0000F0258BF53420F2BEFD14846B847ECE7E8
:1021E0000548034B9847BDE8F88300BF14BF0108BA
:1021F000A52C01083CBF010838BC010808B5C3681C
:1022000000699847F02383F31188054B1A6800236F
:102210009361044A4FF08051516083F3118808BDE7
:10222000F011002000ED00E00C4A0D4B1360116826
:1022300001208861116800224A615A641A67C3F854
:102240009C20C3F8C820C3F8F420C3F82021C3F8A9
:102250004C21044BF02283F822207047F01100201B
:102260009010002000ED00E02DE9F84380461C4C62
:1022700001251C4EDFF878901B4F06E029461B48CD
:10228000B84701352C34082D26D0636C002BF8D0CC
:10229000236B1968B142F1D1616B8039890801293A
:1022A00016D95A68B2F1FF3F14D108330122013226
:1022B0008A4204D053F8040BB0F1FF3FF7D0B8F1D5
:1022C000000FDED0013A920029464846B847D8E7C9
:1022D0000122F4E70122F2E70020BDE8F88300BF05
:1022E0009010002001F65AA5A52C010844BF010852
:1022F00060BF010812F0030F40F0A7808446FF2B57
:1023000040F2A5802DE9F041F02080F3118851487A
:10231000406C60B14F4C0220256F4DB101302C3420
:102320000828F9D1002383F311884B488BE0012062
:10233000484D2C2404FB00F405EB040E0828F1D0D2
:10234000464E1660A3F18006042E0DD9161DA3F18A
:10235000850727F0030702F1080847444FF0FF38CC
:1023600046F8048BBE42FBD1CEF80420CEF80830EC
:102370001A44131F2B514FF0807342F8043C2B5921
:102380001A1F2A51364A43F8042C2A59131F2B517D
:10239000002342F8043C2A59161F2E5142F8043CEF
:1023A0002A59161F2E5142F8043C2A59161F2E5145
:1023B00042F8043C2A59161F2E5142F8043C2A596F
:1023C000161F2E5142F804EC2A59161F2E516FF099
:1023D000020642F8046C2A59161F2E5142F8043C9A
:1023E0002A59161F2E5142F8043C2A59161F2E5105
:1023F00042F8043C2A59161F2E5142F8043C2A592F
:10240000161F2E5142F8043C2A59161F2E5142F82D
:10241000043C2A59161F2E5142F8043C2A59161F13
:102420002E5142F8043CCEF80CC0CEF81010012218
:10243000CEF81820069ACEF81420CEF82030CEF828
:10244000243083F31188BDE8F081064870470648C0
:10245000704700BF90100020F4ADFFFF01F65AA5B1
:10246000FD210108F3ADFFFFF2ADFFFF08B5F0233A
:1024700083F31188002815DB0F4B1A680F4B9A4223
:1024800014D00D4B1B6802229A610D4B1B68002B68
:1024900008BF0123084A126818445062094B4FF0E4
:1024A00080525A60002383F3118808BD002383F310
:1024B0001188054B9847F8E7F01100209010002094
:1024C0008410002000ED00E0FD1E0108F0B51A4B5D
:1024D0000027BC460124194825464FF0030E19E099
:1024E00012F0020F0FD00268002A08BF01220E6D01
:1024F000921B002A07DB4D644D650A6CBA42C4BFCB
:102500001746A44602E04A6C012AF6D001342C3367
:10251000082C0CD019465A6C12F0080FE0D09E6CB3
:102520003668002EDCD05D64C3F854E0E5E7024B6A
:102530002C2000FB0C30F0BD9010002084100020F7
:1025400003682BBB31B310B4F02383F31188002947
:10255000CCBF0A240824104B1A6894611B68D86108
:102560000E4B1B68002B08BF01230B4A106819444F
:1025700041620B4B4FF080515960002383F3118867
:1025800013689B6A032B074808BF002010BC7047E4
:102590000020704703487047F0110020841000208D
:1025A00000ED00E0F8ADFFFFF02383F3118803682E
:1025B000002B05DD013B0360002080F3118870478C
:1025C00019B310B4013B03600029CCBF06240424D6
:1025D000104B1A6894611B6818620F4B1B68002B24
:1025E00008BF01230B4A1068194441620B4B4FF09E
:1025F00080515960002383F3118813689B6A022B72
:10260000074808BF002010BC7047002383F31188DF
:1026100003487047F01100208410002000ED00E016
:10262000F8ADFFFFF02383F31188036801330360E3
:10263000002B03DD002383F31188704770B4134B24
:1026400000263546012203E001322C33082A0CD043
:10265000596811F0040FF7D0D9688142F4D1196894
:10266000B142C4BF0E461546EEE7094B2C2202FBD1
:10267000053301229A6102229A62064B4FF0805282
:102680005A60002383F3118870BC7047D01000207B
:102690009010002000ED00E000B5FFF717FF5DF897
:1026A00004EB084A116888420AD01060EFF30983EE
:1026B00023E9F04F0B600368B3E8F04F83F3098818
:1026C00070477047F0110020502383F31188704742
:1026D000002383F3118870472DE9F84307460E461F
:1026E0004FF0FF312C482D4B9847002E4FDD2C4CDE
:1026F000DFF8BC904FF0000807E088F31188002D48
:1027000041DD2F44761B002E41DD502383F31188D9
:10271000A2886188551AB542A8BF354623880B4464
:102720009A42D8BF9B1A002D0DDD7A1E02EB050CD4
:1027300012F8010FA168C8540133A1888B42A8BFC9
:1027400000236245F4D163882B449BB26380002B45
:10275000D3D0E388002BD0D141464846114B98474F
:102760002288A3681344C9F80C306388A18898189C
:102770008842C8BF8B1AC9F80430E380012148465B
:10278000084B9847B9E70220074B9847BBE7024838
:10279000064B9847BDE8F883141B0020A9250108C3
:1027A00004120020157C01086D240108252601086B
:1027B000B8640240F0B4344B5968C1F180011B6821
:1027C00013F4002F31D0314B1B681BB1304B1C6808
:1027D0008C4201DBF0BC70472E4A908855880B1B59
:1027E000471B9F42A8BF1F4613882B449842D8BF5F
:1027F0001B1A002F12DD284804F17F0202447F30AB
:1028000020443844234C12F8016FA568EE5401337C
:10281000A588AB42A8BF00239042F4D11D4A53883B
:102820003B4453801A4B1960D4E7184B18680028B2
:10283000D0D1174B1C688C42CCDA164A9588568842
:102840000F1BAB1B9F42A8BF1F46138833449D42FA
:10285000D8BF5B1B002F0FDD0F4A224402EB070C91
:102860000C4C12F8016BA568EE540133A588AB42FD
:10287000A8BF03466245F4D1064B5A8817445F80CF
:10288000034B1960A6E700BF88640240F4110020E2
:1028900010130020F81100201012002070B5064619
:1028A0000C46502383F31188104B9847104B5888DF
:1028B000A042A8BF20461B8800280EDD721E0644D9
:1028C000013E0B4CA568ED5C02F8015F0133A58861
:1028D000AB42A8BF0023B242F4D1054A138053880B
:1028E0001B1A5380002383F3118870BDB52701089C
:1028F000F81100202DE9F0410C1E11DD0546094EAE
:102900004FF00208084F03E04046B847002C07DDAF
:1029100021462846B0470028F6DD0544241AF5E78D
:10292000BDE8F0819D2801086D24010810B5204AFA
:10293000D3885288934211DB1D4B00225A801A80A3
:102940001C4B4FF07462DA60194B5B88BBB90021F5
:10295000174BD9801848194B984710BD002BEFD062
:1029600013480188194489B201808088814202D3CA
:10297000091A0F480180D31A0D4A5380E0E70E4C24
:10298000002120460D4B9847094B19889A680A4444
:10299000E2605A889B8850189842C8BF5A1A064865
:1029A0004260034BDA800121044B9847D5E700BF12
:1029B0000412002000640240B8640240157C010843
:1029C000F0B4384B4FF47462DA6088331B6813F448
:1029D000002F32D0344B196819B9344B18687F284E
:1029E00007DD314B01221A60304B00221A60F0BC27
:1029F00070472F4A94885588C0F18006631B9E4219
:102A0000A8BF1E4613882B449C42D8BF1B1B002E18
:102A10000EDD284A02449719254812F8015B8468A4
:102A2000E55401338488A342A8BF0B46BA42F4D1CF
:102A30001F4B5A8816445E80D3E71B4B1B681BB1A3
:102A40001A4B18687F2805DD0023174A1360174AC0
:102A50001360CCE7164A91885488C0F180030E1B9E
:102A60009E42A8BF1E46138823449942D8BF5B1AD2
:102A7000002E12DD0F4900F17F020A447F3101442C
:102A800031440B4812F8015F8468E55401338488AF
:102A9000A342A8BF00238A42F4D1054A5388334495
:102AA0005380D1E700640240F4110020101300208D
:102AB000F8110020101200202DE9F04F91B05B4B6F
:102AC0005B4A9A604FF4006199800024DC805C804E
:102AD0001C80584A584B93609180D4805480148055
:102AE000564B1C60564B1C60564B1A60564A5A6037
:102AF000564A9A60564ADA60564A1A61564A5A61EC
:102B0000564A9A61564B01221A600190ADF808406E
:102B1000ADF80A40ADF80C40ADF810400C23ADF80C
:102B20000E3001A94F48504B984701214FF48000C7
:102B30004E4B98474FF0006BCDF804B0DFF84CA136
:102B4000CDF808A0039440260496802705970694A4
:102B50004FF480630793089409940A944FF4003368
:102B60000B930C9403230D930E940F94DFF82081A4
:102B700040463F4DA84701A94046DFF81891C84795
:102B8000012210214046DFF81081C047CDF804B083
:102B9000CDF808A0DFF804A1CDF80CA004940597A7
:102BA00006944FF480630793089409940A944FF4B1
:102BB00000330B930C9403230D930E940F94DFF8C2
:102BC000E0B05846A84722460AEB07015846294B71
:102BD000984701215846284B984701A95846C847AD
:102BE000012210215846C047244B502283F8252348
:102BF0002021596083F846239E6083F844231022E5
:102C00009A600122394617481D4CA04701223146DF
:102C10001448A047012158461A4B984701211148F2
:102C2000194B984711B0BDE8F08F00BF0412002087
:102C3000181B0020F811002014130020F4110020AC
:102C40001013002018270020C9260108D1260108EA
:102C5000D92601089D280108F5280108B527010893
:102C6000141B002000100140B9830108091301085A
:102C7000657A01082B7C0108437C010800E100E033
:102C800097840108157C01087D8401080410014027
:102C9000B8640240BD7B0108597C01081012002075
:102CA000886402400FB42DE9F04383B00AAC54F8B5
:102CB000046B4FF0FF313848384B98470194384D3A
:102CC000234632464FF480612846364CA0472B7885
:102CD00073B115F8013F002BFBD1314BED1A002DDC
:102CE00052DD2F4F304CDFF8D0904FF0000809E054
:102CF0002B4DF2E788F31188002E41DD3744AD1BE0
:102D0000002D41DD502383F31188A2886188561A73
:102D1000AE42A8BF2E4623880B449A42D8BF9B1AC6
:102D2000002E0DDD7A1E02EB060C12F8010FA168D1
:102D3000C8540133A1888B42A8BF00239445F4D125
:102D4000638833449BB26380002BD3D0E388002B8D
:102D5000D0D141464846154B98472288A368134472
:102D6000C9F80C306388A18898188842C8BF8B1AAC
:102D7000C9F80430E380012148460C4B9847B9E775
:102D800002200B4B9847BBE703480A4B984703B018
:102D9000BDE8F04304B07047141B0020A9250108CA
:102DA00018230020FD6D010804120020157C010885
:102DB0006D24010825260108B8640240014B58889B
:102DC000704700BFF8110020084B5B8898420ADA70
:102DD000064A1388184493889842A8BFC01A034B28
:102DE0009B68185C70470020704700BFF8110020F6
:102DF00070B4104B5B8884189C42C8BF1A1A0D4CE3
:102E000023880344A0888342A8BF1B1A002A0DDD33
:102E100001398E18074CA568ED5C01F8015F01339C
:102E2000A588AB42A8BF0023B142F4D1104670BCC4
:102E3000704700BFF81100200C4B5A88904211DAFD
:102E400000280EDD80B209490B8803449BB20B8039
:102E500089888B4202D35B1A04490B80101A034BFA
:102E60005880704700225A801A807047F81100205D
:102E7000A02383F311887047002383F311887047E0
:102E80002DE9F8430E1E52DD0746DFF8B480294CC9
:102E9000DFF8B09008E0002383F311889D4242DD03
:102EA0002F44761B002E42DDC047A02383F31188F8
:102EB000A2886188551AB542A8BF354623880B44BD
:102EC0009A42D8BF9B1A002D0DDD7A1E02EB050C2D
:102ED00012F8010FA168C8540133A1888B42A8BF22
:102EE00000239445F4D163882B449BB26380002B6C
:102EF000D1D0E388002BCED1002148460E4B984715
:102F00002288A3681344C9F80C306388A1889818F4
:102F10008842C8BF8B1AC9F80430E38001214846B3
:102F2000054B9847B7E70220044B9847BAE7BDE83E
:102F3000F88300BF44270020157C01086D24010898
:102F4000B507010870600240F0B4344B5968C1F114
:102F500080011B6813F4002F31D0314B1B681BB16B
:102F6000304B1C688C4201DBF0BC70472E4A9088C5
:102F700055880B1B471B9F42A8BF1F4613882B4435
:102F80009842D8BF1B1A002F12DD284804F17F0297
:102F900002447F3020443844234C12F8016FA56866
:102FA000EE540133A588AB42A8BF00239042F4D170
:102FB0001D4A53883B4453801A4B1960D4E7184B81
:102FC00018680028D0D1174B1C688C42CCDA164AFE
:102FD000958856880F1BAB1B9F42A8BF1F461388BE
:102FE00033449D42D8BF5B1B002F0FDD0F4A2244A4
:102FF00002EB070C0C4C12F8016BA568EE54013380
:10300000A588AB42A8BF03466245F4D1064B5A8857
:1030100017445F80034B1960A6E700BF4060024081
:103020003427002050280020382700205027002077
:1030300070B506460C46A02383F31188104B9847C1
:10304000104B5888A042A8BF20461B8800280EDDE0
:10305000721E0644013E0B4CA568ED5C02F8015F50
:103060000133A588AB42A8BF0023B242F4D1054A80
:10307000138053881B1A5380002383F3118870BD7B
:10308000492F0108382700202DE9F0410C1E11DDE1
:103090000546094E4FF00208084F03E04046B84786
:1030A000002C07DD21462846B0470028F6DD054400
:1030B000241AF5E7BDE8F081313001086D240108DC
:1030C00010B5204AD3885288934212DB1D4B002250
:1030D0005A801A801C4B3D22DA601A4B5B88CBB9B0
:1030E0000021184BD9801948194B9847194B98471C
:1030F00010BD002BEED013480188194489B201801D
:103100008088814202D3091A0E480180D31A0D4AE1
:103110005380DFE70D4C002120460D4B9847094BAB
:1031200019889A680A44E2605A889B885018984225
:10313000C8BF5A1A05484260024BDA800121044B8D
:103140009847D5E7442700200060024070600240A5
:10315000157C01088D070108F0B4384B4FF4741248
:103160009A6040331B6813F4002F32D0344B196837
:1031700019B9344B18687F2807DD314B01221A60DA
:10318000304B00221A60F0BC70472F4A9488558853
:10319000C0F18006631B9E42A8BF1E4613882B44C5
:1031A0009C42D8BF1B1B002E0EDD284A02449719F3
:1031B000254812F8015B8468E55401338488A342F2
:1031C000A8BF0B46BA42F4D11F4B5A8816445E8002
:1031D000D3E71B4B1B681BB11A4B18687F2805DD12
:1031E0000023174A1360174A1360CCE7164A9188E8
:1031F0005488C0F180030E1B9E42A8BF1E46138850
:1032000023449942D8BF5B1A002E12DD0F4900F10A
:103210007F020A447F31014431440B4812F8015FB8
:103220008468E55401338488A342A8BF00238A42FE
:10323000F4D1054A538833445380D1E700600240FB
:103240003427002050280020382700205027002055
:103250002DE9F04F91B00546594B5A4A9A604FF408
:10326000007199800024DC805C801C80564A574B9A
:1032700093609180D48054801480554B1C60554BD2
:103280001C60554B1A60554A5A60554A9A60554A17
:10329000DA60554A1A61554A5A61554A9A610A21BB
:1032A0000520544B984701954FF48053ADF80830F2
:1032B000ADF80A404FF48066ADF80C60ADF81040F0
:1032C0000C23ADF80E3001A94B484C4B9847012117
:1032D0004FF400104A4B98474FF0006BCDF804B004
:1032E000DFF844A1CDF808A003944023049380257F
:1032F000059506940796089409940A944FF40033B0
:103300000B930C9403230D930E940F943D4F38466A
:10331000DFF81891C84701A93846DFF81481C04783
:10332000012210213846384FB847CDF804B0CDF807
:1033300008A0DFF800A1CDF80CA004940595069430
:103340000796089409940A944FF400330B930C9455
:1033500003230D930E940F942C4E3046C8472246FB
:103360000AEB050130462A4B984701213046294B8C
:10337000984701A93046C047012210213046B8477E
:10338000254BA02283F80F234FF40041196083F8E6
:103390000D234FF400521A600122294616481F4C93
:1033A000A047012240211448A047012130461C4B70
:1033B0009847012110481B4B984711B0BDE8F08F8A
:1033C00044270020542A00203827002054280020B9
:1033D0003427002050280020542C0020712E010892
:1033E000792E0108812E0108313001088930010849
:1033F000492F010801420108004C0040B98301082F
:103400000913010870600240597C010840600240C5
:103410002B7C0108437C010800E100E0978401084F
:10342000157C01087D840108044C0040657A010880
:10343000BD7B010850270020F8B53948394B984723
:10344000394B98470027394C394D3A4E12E001204C
:10345000394B98472B682168002908BF0121C91AF8
:103460002960022958D8354A2B6811688B4238BF29
:103470000B4613602368002B08BF0123DB1BB3F549
:103480007A7F03DD2768002F08BF01272368002B00
:1034900008BF01232B602A4B98472A682368002B1A
:1034A00008BF01239B1A022B07DD2168002908BFF2
:1034B0000121891A23481B4B98472368002B08BF1A
:1034C00001233360204B984732682368002B08BFE4
:1034D00001239B1A022B07DD2168002908BF012167
:1034E000891A1A480F4B98472368002B08BF0123FD
:1034F0003360174B984732682368002B08BF0123BD
:103500009B1A022BA3DD2168002908BF0121891A1B
:103510001048044B98479AE70F48024B9847A2E798
:1035200088BF0108A52C01080D6501088410002042
:1035300080300020843000206D2401088830002075
:10354000196501089CBF0108F1940108A4BF010896
:10355000B99B0108ACBF0108B4BF0108F8B5074624
:103560000E4615460A4C4FF0FF312046094B98474E
:10357000094B186838441860084B196831441960C1
:10358000074B1A682A441A602046064B9847F8BD34
:1035900074300020A9250108703000207C30002004
:1035A000783000202526010810B582B01248134B50
:1035B0009847134B01221A60124B9847124B9847B9
:1035C000041E11DB114B9847114B9847114B98473C
:1035D000642300934FF480630F4A00210F48104C7E
:1035E000A047041E03DB0024204602B010BD214684
:1035F0000C48024B9847F7E7D4BF0108A52C0108F7
:103600007430002029360108256501089D910108C4
:10361000C9990108AD360108702C00203934010821
:10362000F5220108ECBF010801220D4B1A600D4B79
:103630001A600D49D9607F20186159610B49996161
:1036400083F82A206C2283F832206F2283F83320FB
:1036500040F2DC521A8500205860054A136070471A
:10366000D03000208C3000207F000001B99A010882
:10367000CC30002010B5044690F8332090F832107A
:103680000848094B984794F82A3013F0010F07D1E6
:1036900043F0010384F82A30236A0BB1204698478F
:1036A00010BD00BF08C00108A52C0108014B012274
:1036B0001A607047D4300020F8B504460D46C7881C
:1036C0002037C619C35B5BBAC35373885BBA738078
:1036D000B3885BBAB3804FF0FF313648364B98471A
:1036E000364B1B68002B38D0718807E09A68CAB146
:1036F000A069824216D05B68002B2ED09A898A423C
:10370000F9D11A6912B128698242F4D15A6912B109
:10371000E8688242EFD1DA89002AE7D03088904207
:10372000E9D1E3E7E2880832E2802289083A22817F
:103730006289083A6281EA682262E25BA28400221E
:1037400022609A693AB1DA691460DC6119481C4B4D
:10375000984700202CE09C61F7E71648184B9847E3
:1037600005F11000174B9847F0B92B6903F07F0261
:103770007F2A19D003F0F003E02B15D005F10C06D9
:103780003046104B984778B9EB6803F07F027F2AE8
:103790000AD003F0F003E02B06D023463246032183
:1037A0000846094CA04703E02046084B98470020F4
:1037B000F8BD00BFD4300020A9250108D830002072
:1037C00025260108AD980108A99C0108A5A30108B8
:1037D0002DE9F04782B0BDF82850B2F5B86F1EDC75
:1037E0000746894690461E4602682E4B9A4219D1DA
:1037F0003EB105BBFD893368BBB1FDB9DFF8C480BC
:103800004CE000F11406F4E7CDF800A06123264A4D
:1038100026492748274CA047DFF8AC803EE0DFF878
:10382000AC803BE0DFF8A88038E0DFF8A88035E026
:10383000DFF8A08032E03368002BF9D008F12C0AC1
:1038400050461D4B984704460028DDD02C23C380EA
:103850000B9B836142464946184B98478046E28855
:10386000083A92B2E28023890833238163890833BE
:1038700063812032A118B889A0524D806789002346
:10388000CB8040BAA0526DBA4D807ABA8A8040226D
:103890000092112231462046094CA047404602B012
:1038A000BDE8F0870B3FA59D1CC001082CC0010896
:1038B000D8B80108A52C0108A9A201085DA5010836
:1038C000E9990108D7B1FFFFC8B1FFFFD9B1FFFFE8
:1038D000DDB1FFFFD8B1FFFF2DE9F047089FDDF80C
:1038E00024A005681A4CA5422BD11E469046894655
:1038F00005464FF0FF311748174B9847AC6914B392
:103900002368AB61DBB11348144B98470EB1236AAF
:1039100033600FB1A38C3B80BAF1000F02D0A369D2
:10392000CAF8003043464A46002120460C4DA847BD
:10393000054620460B4B98472846BDE8F087EB61CB
:10394000E1E7094DF8E70348044B9847074DF3E7D3
:103950000B3FA59DD4300020A9250108252601088C
:1039600025A40108A5A30108DDB1FFFFDBB1FFFF1E
:1039700010B582B000240194049C0094014CA0472F
:1039800002B010BDD9380108F8B505462020284BF3
:103990009847002849D0044600F120010346002240
:1039A00003F8012B9942FBD14FF0FF312148224B04
:1039B0009847224B1A88224B186842F2117647F238
:1039C000305744F6206CBA421ABF013292B26246B6
:1039D000B0B18389934205D003465B689BB1998956
:1039E0009142FAD1013EEED1144B1A800023A381FB
:1039F0001048144B98472046134B9847134813E040
:103A00000E4B1A8001E00D4B1A800C4B1B88A381D2
:103A1000002BEDD060600A4B1C600648094B9847AC
:103A20000B4B23602C600020F8BD0A48FCE700BF68
:103A300069190108D4300020A9250108A800001048
:103A4000D830002025260108951C0108D6B1FFFFBB
:103A50000B3FA59DF7ADFFFF2DE9F04705681A4C18
:103A6000A5422ED10746994616468A4680464FF013
:103A7000FF311648164B9847164B1C689CB9BAF193
:103A8000000F1AD0DAF80030C8F81030A8F80C602F
:103A9000C8F808900D48104B98470020BDE8F08703
:103AA0006468002CEBD0A742FAD0A589B542F7D1C3
:103AB0000648094B98470948F0E70023C8F810303A
:103AC000E4E70748EAE700BF0B3FA59DD43000209C
:103AD000A9250108D830002025260108DCB1FFFF08
:103AE000DDB1FFFF0A4B00221A615A610949896C56
:103AF0004A6202221A60084A138843F480731380D2
:103B0000064B4FF000421A6001225A60704700BF16
:103B1000DC300020143100200054004000E100E0BF
:103B200008B50D4B1A8842F400721A809B8A13F074
:103B3000100F0ED0094A4FF00043C2F88030012325
:103B4000C2F88430064A926C00215162054A136023
:103B500008BD054B9847FBE70054004000E100E03A
:103B600014310020DC300020E53A01080122104B1E
:103B70001A60104B0021196058610F4B1964996C41
:103B80000B8823F001031B041B0C0B800B4B4FF025
:103B90000041C3F88010C3F88420002802DB054BE5
:103BA000DB6823B1064A138843F40073138070471F
:103BB00008310020DC3000201431002000E100E05A
:103BC0000054004008B51A4B1B68013B032B19D861
:103BD000DFE803F0020E1E1E164B9B8A13F0100F37
:103BE00003D01548154B98470CE0154B984709E052
:103BF0000F4B9B69002B07DD0D4A9369013B9361D5
:103C0000104B9847012008BD0F480C4B9847F9E727
:103C1000074B9B69002B06DD054A9369013B9361C5
:103C2000084B9847EEE76FF47B70044B9847E9E741
:103C3000DC3000200054004012FCFFFF6D3B010807
:103C4000E53A0108213B010814FCFFFF08B5174ABB
:103C5000938A128B43EA024313F4807F0DD113F44D
:103C6000007F1BD113F4806F1AD103F48043002B23
:103C70000F4808BF4FF0FF3000E00E480B4B00220A
:103C80009A820D4BDB6993420DDD0B4BDA69013AE9
:103C9000DA610A229A61094B984708BD0848EDE7A6
:103CA0006FF47A70EAE7074B9847F6E70054004054
:103CB00014FCFFFF18FCFFFFDC300020213B010853
:103CC00016FCFFFF6D3B0108434B9B6C00225A62C0
:103CD000424A938A128B43EA0243414A1268022AFB
:103CE00011D03F4A1268032A21D010B53C4A12680D
:103CF000032A28D03A4A1268042A39D0384A12686E
:103D0000042A46D010BD374A9A43EAD1344B9B6807
:103D1000002B14BF04230323314A136092F82410AC
:103D2000936843EA41039BB22C4A138270472E4AA0
:103D30009A43DAD12A4B996A1A69501C18618A5C35
:103D4000264B1A827047294A9A43D3D1244B1A69C9
:103D50005B689A4208DA224B996A1A69501C18610A
:103D60008A5C1E4B1A82CDE70120214B9847C9E798
:103D7000204A9A43C2D11A4B5B68012B174A138819
:103D8000CFBF43F4806323F480631B041B0C1380B8
:103D9000B8E7194A32EA0303B4D1104B188A104B22
:103DA000996A1A69541C1C6188541A695B68013B42
:103DB0009A4208D00A4B1A695B689A42A2D1012044
:103DC0000B4B98479EE7054A138823F480631B0436
:103DD0001B0C138096E700BF1431002000540040F4
:103DE000DC30002001000300820007008000070093
:103DF0006D3B0108020003004000030070B584B071
:103E00002B482C4B984700214FF400102A4B984721
:103E100001238DF80C3000258DF80E508DF80F30F1
:103E200002238DF80D3004A94FF4407341F8083D8A
:103E3000224C2046224B98474FF480712046214E59
:103E4000B0474FF400712046B0470095009B142BFB
:103E500022DC1D4E1B4D16E04FF480712046B0470A
:103E600000230193019BB3F5FA7F06DA019B01332E
:103E70000193019BB3F5FA7FF8DB009B01330093BC
:103E8000009B142B08DC009B13F0010FE4D04FF4CF
:103E900080712046A847E3E7084D4FF4807128461B
:103EA000084CA0474FF400712846A04704B070BDED
:103EB00060C00108A52C010841130108000402405C
:103EC000A1110108251201082912010870B584B05A
:103ED00006461C4C20461C4B98470023ADF8043086
:103EE0004BF6FF73ADF806304823ADF808304FF4B9
:103EF0008063ADF80A304FF48043ADF80C3004AD68
:103F000045F8106D01212046104B98472946204660
:103F10000F4B9847012120460E4B98470321042060
:103F20000D4B984701220D4B1A604FF4E06120467B
:103F30000B4B98470B4B302283F81F2383F8202329
:103F400004B070BD00540040557F01089180010805
:103F5000B97F0108AB800108014201080C31002043
:103F6000C580010800E100E008B50748074B984705
:103F7000074B98470120074B9847074B984707483E
:103F8000074B984708BD00BF50C00108A52C010889
:103F9000FD3D01086D240108ED660108801A060048
:103FA000CD3E0108F8B51E4B1B8B13F0020F27D036
:103FB00001201C4B98470524194D0127194E2B8BC6
:103FC00013F0020F1CD03846B047013CF7D1164B16
:103FD000196801311960154B1C691B69E40904F06B
:103FE0000204C3F340231C4322461148114B984757
:103FF000032C09D00C4B1B68092B09DC0E48F8BDBB
:104000000020094B1860FAE70C480D4B9847F1E780
:10401000054B00221A600B4B98470748EFE700BF9B
:10402000005400406D2401081031002000040240BB
:1040300044C00108A52C010811FCFFFF801A0600EE
:10404000CD3E0108693F010808B54FF0FF31024835
:10405000024B984708BD00BF0C310020A92501087C
:1040600008B50248024B984708BD00BF0C3100203C
:104070002526010810B5302484F311881D4C84F8DE
:104080002400A1626260A360029BE3600A23A36133
:10409000039BE361049B23620022174B1A60174BBA
:1040A000174919645A649B6CC721D9625A621A88ED
:1040B00042F001021A80134B9B8A13F0100F15D0A7
:1040C0000E4B9B6C00225A6201222260002383F374
:1040D00011884FF0FF3108480B4B9847054B5B693F
:1040E000002B044BB4BF5869186910BD074B9847A3
:1040F000ECE700BFDC300020083100201431002044
:10410000C53B01080054004041250108E53A01087B
:1041100008B50D4B9A6A4FF6FE7111821B6A6BB19E
:10412000094A506A984750B9074B00221A629A6AA6
:10413000138823F001031B041B0C138008BD024BE2
:104140009B6A00225A62F9E71431002008B50D4B32
:104150009A6B4FF6FE7111821B6B6BB1094A506B63
:10416000984750B9074B00221A639A6B138823F0C3
:1041700001031B041B0C138008BD024B9B6B002228
:104180005A62F9E71431002008B50D4B9A6C4FF6CE
:10419000FE7111821B6C6BB1094A506C984750B983
:1041A000074B00221A649A6C138823F001031B0446
:1041B0001B0C138008BD024B9B6C00225A62F9E76E
:1041C0001431002008B50D4B9A6D4FF6FE71118227
:1041D0001B6D6BB1094A506D984750B9074B0022CF
:1041E0001A659A6D138823F001031B041B0C1380BE
:1041F00008BD024B9B6D00225A62F9E71431002082
:1042000070B584B005465F4A0301D0180024D4502D
:104210000173AB1E0C2B00F2B380DFE803F0074400
:104220004D565F68B1717C87929CA600554B4FF04C
:1042300080429A6201210846534B98471C24514EF4
:1042400006EB0516B5682846504B98474FF4FA63BD
:1042500002935323ADF804300023ADF80C30ADF8D1
:10426000063001A928464A4B984701212846494B68
:10427000984701212846484B984701221146284675
:10428000464B9847337B1B01DBB2454A111981F835
:104290000033630904F01F04012000FA04F442F81B
:1042A000234004B070BD374B3E4A9A63012102207F
:1042B000354B98471D24C2E7324B3B4A9A64012193
:1042C0000420314B98471E24B9E72E4B374A9A6594
:1042D000012108202C4B98473224B0E7294B344A5F
:1042E0009A6601211020284B98473624A7E7254BD2
:1042F000304A9A6701212020234B984737249EE7B4
:10430000204B2D4AC3F8982001214FF480302B4BCD
:104310009847182493E71B4B294AC3F8A82001218A
:104320004FF40030254B9847192488E7154B254A50
:10433000C3F8B82001214FF48020204B98471A245D
:104340007DE7104B204AC3F8C820012140200E4BC6
:1043500098472B2473E70B4B1C4AC3F8D820012144
:104360008020094B98472C2469E7064B184AC3F86C
:10437000E82001214FF48070034B98472D245EE71D
:1043800000208EE7143100204113010875810108D7
:10439000F982010881830108AF8301089B8301082A
:1043A00000E100E00004004000080040000C004074
:1043B0000010004000140040004001405D1301085F
:1043C000004401400048014000180040001C00402B
:1043D0000020004010B582B04FF480511E481F4BA2
:1043E000984742F210721E490B8903F08203022B98
:1043F0000BD0013AB2F1FF3FF6D100921023194AD7
:1044000019491A481A4CA04702E0B2F57A7FF4DB4A
:10441000134B06229A8142F2107219460B8903F05F
:104420008103012B0BD0013AB2F1FF3FF6D100928C
:1044300017230C4A0C490D480D4CA04702E0B2F579
:104440007A7FF4DB064B9B894FF480510248094B7D
:10445000984702B010BD00BF0018024029120108A1
:10446000003C0040B8C00108ACC00108D8B8010841
:10447000A52C01082512010810B582B04FF4805117
:104480003848394B984742F2107238490B8903F08B
:104490008203022B0BD0013AB2F1FF3FF6D100921A
:1044A0001023334A33493448344CA04702E0B2F574
:1044B0007A7FF4DB2D4B05229A8142F21072194665
:1044C0000B8903F08103012B0BD0013AB2F1FF3FBE
:1044D000F6D100921723264A26492748274CA047A1
:1044E00002E0B2F57A7FF4DB204B9B8942F2107236
:1044F0001E490B8903F08203022B0BD0013AB2F163
:10450000FF3FF6D100921023194A1A491A481B4C52
:10451000A04702E0B2F57A7FF4DB144B00229A81C7
:1045200042F2107219460B8903F08103012B0BD064
:10453000013AB2F1FF3FF6D1009217230C4A0D4920
:104540000D480E4CA04702E0B2F57A7FF4DB074B32
:104550009C89A4B24FF480510248094B9847E0B2BD
:1045600002B010BD0018024029120108003C0040B2
:10457000B8C00108ACC00108D8B80108A52C0108D2
:10458000251201082DE9F04782B004468318B3F5DF
:10459000004F1CDC0D461646994B98474FF480514E
:1045A0009848994B984742F2107298490B8903F04A
:1045B0008203022B10D0013AB2F1FF3FF6D10092F4
:1045C0001023934A93499448944FB84707E0014613
:1045D0009348924B98470FE1B2F57A7FEFDB8B4B14
:1045E00002229A8142F2107219460B8903F081036C
:1045F000012B0BD0013AB2F1FF3FF6D10092172305
:10460000834A84498448854FB84702E0B2F57A7FEF
:10461000F4DB7E4B9B89270A42F210727B490B899F
:1046200003F08203022B0CD0013AB2F1FF3FF6D126
:1046300000921023764A77497748DFF8E081C04737
:1046400002E0B2F57A7FF3DB704B9F8142F2107289
:1046500019460B8903F08103012B0BD0013AB2F10B
:10466000FF3FF6D100921723694A6A496A486B4FA7
:10467000B84702E0B2F57A7FF4DB644B9B8942F2E3
:10468000107262490B8903F08203022B0BD0013AAE
:10469000B2F1FF3FF6D1009210235D4A5D495E48BA
:1046A0005E4FB84702E0B2F57A7FF4DBE4B2574BD5
:1046B0009C8142F2107219460B8903F08103012B91
:1046C0000BD0013AB2F1FF3FF6D100921723504AC6
:1046D00050495148514CA04702E0B2F57A7FF4DBD3
:1046E0004A4B9B89002E3DDD013D2E44474CDFF8AF
:1046F0002081484F20E0B2F57A7F2ADB1FFA89F942
:10470000A4F80C9042F21072238903F08103012B6C
:104710000CD0013AB2F1FF3FF6D100921723424686
:1047200039463D48DFF8F490C84702E0B2F57A7F99
:10473000F3DBA389B54215D015F8019F42F2107240
:10474000238903F08203022BD5D0013AB2F1FF3F57
:10475000F6D100921023424639462F48DFF8BCA01C
:10476000D047CBE74FF4805126482E4B984765241D
:104770002D4DA84710F0010F01D0013CF9D14FF4A5
:1047800080512048204B984742F210721F490B89F4
:1047900003F08203022B0BD0013AB2F1FF3FF6D1B6
:1047A000009210231A4A1B491B481C4CA04702E0E8
:1047B000B2F57A7FF4DB154B04229A8142F2107233
:1047C00019460B8903F08103012B0BD0013AB2F19A
:1047D000FF3FF6D1009217230D4A0E490E480F4CA9
:1047E000A04702E0B2F57A7FF4DB084B9B894FF4D7
:1047F000805104480B4B984702B0BDE8F08700BFDA
:10480000D54301080018024029120108003C00406D
:10481000B8C00108ACC00108D8B80108A52C01082F
:1048200090C00108251201087944010810B582B032
:104830004748484B98470220474B9847474B984773
:10484000474C4FF400512046464B98474FF4805157
:104850002046454B984742F210723D490B8903F0C0
:104860008203022B0BD0013AB2F1FF3FF6D1009246
:1048700010233E4A3E493F483F4CA04702E0B2F574
:104880007A7FF4DB324B01229A8142F21072194690
:104890000B8903F08103012B0BD0013AB2F1FF3FEA
:1048A000F6D100921723314A31493248324CA047A1
:1048B00002E0B2F57A7FF4DB254B9B8942F210725D
:1048C00023490B8903F08203022B0BD0013AB2F18A
:1048D000FF3FF6D100921023244A25492548264C53
:1048E000A04702E0B2F57A7FF4DB194B80229A816F
:1048F00042F2107219460B8903F08103012B0BD091
:10490000013AB2F1FF3FF6D100921723174A184936
:104910001848194CA04702E0B2F57A7FF4DB0C4B43
:104920009B890F4C4FF4805120460E4B98474FF413
:10493000005120460C4B9847104B984701461048B1
:104940000D4B98470220044B984702B010BD00BFA2
:10495000003C00409D4C01086D240108D54301082E
:10496000001802402512010829120108B8C00108E8
:10497000ACC00108D8B80108A52C01087944010889
:1049800078C0010808B50248024B984708BD00BF2F
:10499000003800409D4C01082DE9F04383B00F46DC
:1049A00016461C46BDF8285040005FFA80F829469C
:1049B0001846534B984742F2107252490B8903F044
:1049C0008203022B0CD0013AB2F1FF3FF6D10092E4
:1049D00010234D4A4D494E48DFF83891C84702E050
:1049E000B2F57A7FF3DB1FFA88F8464BA3F80C8008
:1049F00042F2107219460B8903F08103012B0CD08F
:104A0000013AB2F1FF3FF6D1009217233E4A3F49E7
:104A10003F48DFF80081C04702E0B2F57A7FF3DB60
:104A2000384B9B8942F2107236490B8903F082039E
:104A3000022B0CD0013AB2F1FF3FF6D100921023C5
:104A4000314A32493248DFF8CC80C04702E0B2F543
:104A50007A7FF3DBBFB22B4B9F8142F21072194673
:104A60000B8903F08103012B0BD0013AB2F1FF3F18
:104A7000F6D100921723244A24492548254FB847E8
:104A800002E0B2F57A7FF4DB1E4B9B8942F2107292
:104A90001C490B8903F08203022B0BD0013AB2F1BF
:104AA000FF3FF6D100921023174A18491848194FB2
:104AB000B84702E0B2F57A7FF4DBB6B2114B9E81C3
:104AC00042F2107219460B8903F08103012B0BD0BF
:104AD000013AB2F1FF3FF6D1009217230A4A0B497F
:104AE0000B480C4EB04702E0B2F57A7FF4DB054B81
:104AF0009B8929462046084B984703B0BDE8F083C0
:104B00002912010800380040C8C00108ACC00108E3
:104B1000D8B80108A52C0108251201082DE9F0419B
:104B200082B00E4614461D46470047F00107FFB20B
:104B300019461046524B984742F2107251490B8960
:104B400003F08203022B0CD0013AB2F1FF3FF6D101
:104B5000009210234C4A4D494D48DFF83881C04738
:104B600002E0B2F57A7FF3DBBFB2464B9F8142F29F
:104B7000107219460B8903F08103012B0BD0013A07
:104B8000B2F1FF3FF6D1009217233F4A3F49404818
:104B9000404FB84702E0B2F57A7FF4DB394B9B898E
:104BA00042F2107237490B8903F08203022B0BD0BB
:104BB000013AB2F1FF3FF6D100921023324A334955
:104BC0003348344FB84702E0B2F57A7FF4DBB6B22F
:104BD0002C4B9E8142F2107219460B8903F081031F
:104BE000012B0BD0013AB2F1FF3FF6D1009217230F
:104BF000254A26492648274EB04702E0B2F57A7F7B
:104C0000F4DB204B9B8942F210721E490B8903F0A2
:104C10008203022B0BD0013AB2F1FF3FF6D1009292
:104C20001023194A19491A481A4EB04702E0B2F542
:104C30007A7FF4DB134BFF229A8142F210721946FD
:104C40000B8903F08103012B0BD0013AB2F1FF3F36
:104C5000F6D1009217230C4A0C490D480D4EB0476F
:104C600002E0B2F57A7FF4DB064B9E89B6B22946A4
:104C70002046094B9847F0B202B0BDE8F08100BF72
:104C80002912010800380040C8C00108ACC0010862
:104C9000D8B80108A52C01082512010830B587B045
:104CA00004462B4B984233D02A4B984240D02A4B93
:104CB0001B685BBB0125284B1D602848284B984783
:104CC00029464FF40040274B98470023ADF80430A5
:104CD0004FF48272ADF80620ADF80830ADF80A3016
:104CE000ADF80C304FF40072ADF80E201822ADF87C
:104CF0001020ADF812300723ADF8143001A920467A
:104D0000194B984701212046184B984707B030BDF2
:104D1000174B1B68002BF9D10125154B1D60154859
:104D20000F4B984729464FF48050134B9847CCE7D8
:104D3000124B1B68002BE9D10125104B1D60104858
:104D4000074B984729464FF48040064B9847BCE7ED
:104D500000300140003800400C32002010C1010832
:104D6000A52C0108411301081D8101085B81010880
:104D700004320020D8C001085D1301080832002069
:104D8000F4C0010810B582B04FF400411E481F4B1B
:104D9000984742F210721E490B8903F08203022BDE
:104DA0000BD0013AB2F1FF3FF6D100921023194A1D
:104DB00019491A481A4CA04702E0B2F57A7FF4DB91
:104DC000134B06229A8142F2107219460B8903F0A6
:104DD0008103012B0BD0013AB2F1FF3FF6D10092D3
:104DE00017230C4A0C490D480D4CA04702E0B2F5C0
:104DF0007A7FF4DB064B9B894FF400410248094B54
:104E0000984702B010BD00BF0000024029120108FF
:104E1000003C00405CC10108ACC00108D8B80108E2
:104E2000A52C01082512010810B582B04FF40041ED
:104E30003848394B984742F2107238490B8903F0D1
:104E40008203022B0BD0013AB2F1FF3FF6D1009260
:104E50001023334A33493448344CA04702E0B2F5BA
:104E60007A7FF4DB2D4B05229A8142F210721946AB
:104E70000B8903F08103012B0BD0013AB2F1FF3F04
:104E8000F6D100921723264A26492748274CA047E7
:104E900002E0B2F57A7FF4DB204B9B8942F210727C
:104EA0001E490B8903F08203022B0BD0013AB2F1A9
:104EB000FF3FF6D100921023194A1A491A481B4C99
:104EC000A04702E0B2F57A7FF4DB144BFF229A810F
:104ED00042F2107219460B8903F08103012B0BD0AB
:104EE000013AB2F1FF3FF6D1009217230C4A0D4967
:104EF0000D480E4CA04702E0B2F57A7FF4DB074B79
:104F00009C89A4B24FF400410248094B9847E0B293
:104F100002B010BD0000024029120108003C004010
:104F20005CC10108ACC00108D8B80108A52C010873
:104F3000251201082DE9F04389B0A148A14B9847FB
:104F4000A148A24B98471E20A14B98474FF400411F
:104F5000A048A14B9847A14B98474FF40041A04867
:104F6000A04B984742F2107297490B8903F08203D5
:104F7000022B0BD0013AB2F1FF3FF6D10092102381
:104F8000994A9A499A488F4CA04702E0B2F57A7F35
:104F9000F4DB8D4B98229A8142F2107219460B89EC
:104FA00003F08103012B0BD0013AB2F1FF3FF6D1A0
:104FB000009217238C4A8D498D48824CA04702E00D
:104FC000B2F57A7FF4DB804B9B894FF40041844833
:104FD000814B98476424874D01277D4EA84710F0E8
:104FE000010F06D0013CB4F1FF3F1FD03846B04757
:104FF000F4E7002C1CDD794B98474FF400417848CA
:10500000784B984742F210726F490B8903F0820384
:10501000022B12D0013AB2F1FF3FF6D100921023D9
:10502000714A72497248674CA04709E04FF0FF345B
:1050300021467148634B9847DDE7B2F57A7FEDDB97
:10504000614B01229A8142F2107219460B8903F0DA
:105050008103012B0BD0013AB2F1FF3FF6D1009250
:105060001723614A61496248564CA04702E0B2F5F5
:105070007A7FF4DB544B9B8942F2107252490B89C0
:1050800003F08203022B0BD0013AB2F1FF3FF6D1BD
:1050900000921023544A554955484A4CA04702E013
:1050A000B2F57A7FF4DB484B00229A8142F210720B
:1050B00019460B8903F08103012B0BD0013AB2F1A1
:1050C000FF3FF6D100921723474A484948483D4CD4
:1050D000A04702E0B2F57A7FF4DB3B4B9B8942F2BA
:1050E000107239490B8903F08203022B0BD0013A6D
:1050F000B2F1FF3FF6D1009210233B4A3B493C48B6
:10510000304CA04702E0B2F57A7FF4DB2E4B8822C8
:105110009A8142F2107219460B8903F08103012B28
:105120000BD0013AB2F1FF3FF6D1009217232E4A7D
:105130002E492F48234CA04702E0B2F57A7FF4DBDA
:10514000214B9B894FF400412548234B9847642409
:10515000284D01271E4EA84710F0010F06D0013C34
:10516000B4F1FF3F25D03846B047F4E7002C22DDEC
:1051700088212248134B98474FF400411548194C99
:10518000A0474FF400411648A04742F210720E4962
:105190000B8903F08203022B32D0013AB2F1FF3FB8
:1051A000F6D100921023104A10491148054CA0472F
:1051B00029E04FF0FF3421460F48024B9847D7E7CC
:1051C0002CC10108A52C0108003C00409D4C0108A1
:1051D0006D2401080018024025120108854D0108C0
:1051E00000000240291201085CC10108ACC001089E
:1051F000D8B80108294E010848C101083CC101087E
:10520000B2F57A7FCDDB334B72229A8142F2107273
:1052100019460B8903F08103012B0BD0013AB2F13F
:10522000FF3FF6D1009217232B4A2C492C482D4CD6
:10523000A04702E0B2F57A7FF4DB264B9B890DF1A3
:105240000B050DF11D06234CDFF88C80234F20E069
:10525000B2F57A7F28DBFF23A38142F21072238903
:1052600003F08103012B0CD0013AB2F1FF3FF6D1DC
:1052700000921723424639461948DFF86890C8471C
:1052800002E0B2F57A7FF3DBA38905F8013FB5426E
:1052900013D042F21072238903F08203022BD7D07D
:1052A000013AB2F1FF3FF6D100921023424639464F
:1052B0000B48DFF83090C847CDE74FF400410A486B
:1052C0000A4B9847122103A8094B984709B0BDE83B
:1052D000F08300BF003C00405CC10108ACC0010885
:1052E000D8B80108A52C01080000024025120108C9
:1052F000952101082DE9F04F85B006469246994662
:105300000E9C1E4B0A0A1A70597083F802901C4BAF
:10531000984730B91B4B9847DFF8608001251A4F3A
:105320000EE0834600905123184A194919481A4C37
:10533000A0471EE0BBF1000F19DA002C17DD013C7D
:1053400002950A230193002300930322414630462D
:10535000B847B0F1000BEDDD0295002301930095F5
:105360004A4651463046B847B0F1000BE2DD0B4BE0
:105370009847584605B0BDE8F08F00BF9032002036
:10538000A53F01084940010875400108F0C1010826
:10539000D8C10108D8B80108A52C0108614001084E
:1053A0002DE9F04F87B0814604910592684D0023A6
:1053B0002B716B71AB7101222A706B70A870E97050
:1053C000A91D15F8012B1344DBB28D42F9D1604AB7
:1053D00093710023009307234FF4407138205D4CF4
:1053E000A04706460A205C4B98475C4BD3F80080E8
:1053F000B8F1000F08BF4FF001089A46584FDFF888
:1054000090B156E000902523564A57495748584CCA
:10541000A0470BE001230293002201920093072290
:105420004B493820A0470646524B9847002E63DD73
:10543000474A002412F8013B1C44E4B29542F9D1DA
:10544000434B9B79A34260D1414B1B7813F0010F72
:105450006CD03F4B9B784B4562D03D4900230B718C
:105460004B718B71012008704B7081F802909DF890
:105470001000C870084610F8011B0B44DBB29042C4
:10548000F9D1334CA37100230093072322464FF434
:10549000407138202F4EB0470646024649463648EE
:1054A000334B984731462046344B984702202A4BCD
:1054B0009847DAF80030002B08BF0123A3EB08035C
:1054C000C72B38DC01233B7000237B700723BB70A4
:1054D000D8470646002895D1294B984701230293C7
:1054E0000A23019300230093032239463820254CD8
:1054F000A047061E98DD8DE70096C223224A1A496E
:105500001A481B4CA04700201FE00120124B98476F
:105510000094CD231C4A14491448154CA047C8E7F1
:105520000B4B9B88059A138001200EE0084B9B785B
:105530004B45BBD091E70096EC23134A0A490B4830
:105540000B4CA0471148A047002007B0BDE8F08FE2
:1055500010320020F55201086D240108841000204B
:1055600090320020FCC10108D8C10108D8B8010858
:10557000A52C0108614001086CC1010895210108B2
:105580004940010875400108E8C1010888C10108C7
:10559000A53F0108F0B583B014461D4602281AD075
:1055A000032842D10B0E02F8043C0B0C02F8033C1A
:1055B0000B0A02F8023C02F8011C1D4B186800237C
:1055C00001931C4B1B8800931B4B2A1D211F1B4C56
:1055D000A04703B0F0BDD61F03F10A07F82302F875
:1055E000073CC7F3072302F8063C02F8057C0B0EC4
:1055F00002F8043C0B0C02F8033C0B0A02F8023CD4
:1056000002F8011CA91D901F0D4B9847073573190F
:10561000020A72555870F319F92203F8012C394621
:105620003046084B98470020D3E76FF00F00D0E7D3
:10563000483300204433002010330020D1370108C4
:1056400019210108D926010838B50F4B1C5CE40567
:1056500004F0FC540B680D491D0E0D741D0C4D74A7
:105660001D0A8D74CB74130E0B75130C4B75130A36
:105670008B75CA75082301F1100244F4F90141F455
:105680002051034CA04738BD4C3300201433002078
:10569000955501082DE9F04F85B001908A46DFF855
:1056A0006CB1DFF86C81554CDFF85C91502383F3CB
:1056B0001188D8471BE0002383F311886FF004079B
:1056C000384605B0BDE8F08F0120A0470702022050
:1056D000A0470744A7F10A05B5F58C7F16D8BE424E
:1056E00017DB781EA047F92819D00120C847C0470A
:1056F00006460328DFDD0020A047F828E4D000207C
:10570000A047F5283BD00120C847F0E70120C84753
:10571000EDE7002383F311886FF00407D0E706223A
:1057200002A90120364EB0479DF80A309DF80B20A3
:1057300042EA03229DF80C3043EA02229DF80D3024
:1057400043EA0223019A1360A7F108025146072099
:10575000B0473846C847002383F311880A3F3B46C9
:105760005246062102A8274EB0470AEB05031AF855
:1057700005205B7843EA0223984297D1A0E70120F5
:10578000A04705460220A04740EA0525ADB22F46B6
:10579000B5F5006F1DDAAE421EDB2A4651460020E9
:1057A000174B98476B1E002B1CDD0AF1FF32AAF144
:1057B00002002844002312F8011F0B44DBB282428E
:1057C000F9D1554415F8012C9A420DD00120C84753
:1057D0008DE70120C8478AE7002383F311886FF023
:1057E00004076DE70023ECE73846074B9847002392
:1057F00083F31188019A136062E700BFC92D010885
:10580000F12D010849210108392E0108B5270108A9
:10581000BD2D01082DE9F04F8BB005460391BE4B1D
:105820001B5CDB0503F0FC5343F4F90343F4C05362
:1058300005930B89C9888B423DD2C91A012398462A
:1058400018468B4206D000FA03F248EA02080133F8
:10585000102BF6D103980268B04B110E1974110C7D
:105860005974110A9974DA740289110A19755A75F2
:1058700003230493DFF8F892DFF8F8A24FEA1863E5
:10588000A64A93754FEA1843D3754FEA1823137647
:1058900082F819800A23103205992846A04CA047A7
:1058A0000028C0F28081D9F80060002E08BF0126D0
:1058B000DFF8C4B216E04FF00008CBE74FF48C726B
:1058C000214609A8974B984743E001469648974BD5
:1058D00098476FF010003CE06FF0040039E00120C1
:1058E000934B9847D9F80030002B08BF01239B1B2E
:1058F000B3F5FA6F80F24481DAF80040022DDDD072
:10590000032D40F0C5800DF11E03009308AB4FF44A
:105910008E72211FDBF80000864FB8470428DBDDBC
:105920000028D2DB844B089A1A60844BBDF81E20F5
:105930001A8014F8043C14F8032C42EA032214F8E9
:10594000023C43EA022214F8013C43EA0223099391
:10595000043810F1050FC2D00028C0F29780099BCF
:10596000C3F3C5523E2ABDD1C3F30723A02BB9D13F
:10597000B0F5847FB6D1D9F80060002E08BF0126AB
:10598000DAF800000178437843EA0123817841EA9C
:105990000323C17841EA0321039B1B688B4240F03B
:1059A00081800379417941EA0321039B1A898A4264
:1059B0007CD802F11003994278DA8F1A0124BC4096
:1059C00018EA040F76D000F108035D4A02EB0722C3
:1059D00000F5847013F8011B02F8011F9842F9D1F9
:1059E00038EA04087FF47EAF039A1389D76807EB7F
:1059F000032707F17843B3F5804F5FD3A3F58043C6
:105A0000B3F5804F78D307F17843A3F50043B3F59E
:105A1000804F73D307F17843A3F54043B3F5804F2C
:105A20006ED307F1774303F57F03B3F5803F69D366
:105A300007F1774303F57E03B3F5003F64D307F125
:105A4000774303F57C03B3F5003F5FD307F177435A
:105A500003F57A03B3F5003F5AD307F1774303F513
:105A60007803B3F5003F55D307F1774303F5760389
:105A7000B3F5003FC0F0828007F1774505F5740566
:105A8000304B9D4294BF5025582518E0044601E054
:105A90006FF00F0421462C48244B984720460BB04A
:105AA000BDE8F08F2948214B98471BE728481F4B3A
:105AB000984717E727481D4B984713E70025264BC3
:105AC00098474FF4806225493846254B984706464B
:105AD000244B98473446082E63D033463A4629462D
