:020000040800F2
:20000000D0FF0010C923000889010008890100088901000889010008890100080000000033
:200020000010019003F8A259000000008901000889010008000000003929000889220008E8
:20004000890100088901000889010008890100088901000889010008890100088901000810
:200060008901000889010008890100088901000889010008890100088901000889010008F0
:200080008901000889010008890100088901000889010008890100088901000889010008D0
:2000A0008901000889010008890100088901000889010008890100088901000889010008B0
:2000C000890100088901000889010008890100088901000889010008890100088901000890
:2000E000890100088901000889010008890100088901000889010008890100088901000870
:2001000089010008890100088901000889010008890100088901000889010008890100084F
:2001200089010008890100088901000889010008890100088901000889010008890100082F
:2001400089010008890100088901000889010008612C000889010008CD2B0008890100089E
:200160008901000889010008890100088901000889010008890100088901000889010008EF
:200180008901000889010008FEE7000010B5054C237833B9044B13B10448AFF30080012314
:2001A000237010BD0000002000000000F07B000808B5034B1BB103490348AFF3008008BDF7
:2001C0000000000004000020F07B00082DE9F04F9DB00A908A4603930290002189464FF025
:2001E000FF37019100230024CDE904348B460E46551C1378002B00F08E85042900F26D85A2
:20020000DFE801F00315446B8300252B00F06885D34508D20D2B06D00A2B08BF0D23029AE7
:200220001370531C02930BF1010B2A46E0E7203B102B00F26085DFE813F01D005E055E05DE
:2002400021005E055E055E0519005E055E055E0515005E0511005E055E05250049F002095A
:200260002A46C5E749F004092A46C1E749F008092A46BDE749F010092A46B9E749F02009E2
:200280002A46B5E749F001092A46B1E7A3F13000C0B2092806D806EB8602303B03EB4206A8
:2002A0002A46A5E72A2B0AD02E2B0CBF032104212E2B08BF2A462E2B08BF002798E7039AB3
:2002C000131D1668002E02DB03932A4690E7764249F0020903932A468AE7A3F13000C0B23F
:2002E000092806D807EB8707303B03EB47072A467EE72A2B01D004217AE7039B1F6847EAF1
:20030000E777043303932A4672E7A3F14C022E2A43D8DFE812F03D00420042004200420086
:2003200042004200420042004200420042004200420042004200420042004200420042009D
:20034000420042004200420042004200420033004200F304420038004200420042004200E1
:200360003D00420042002F00420042004200420042002F002A460123019339E7019B013BF4
:2003800001932A4634E7019B013301932A462FE7019B023301932A462AE701990229A8BF42
:2003A00002216FF001029142B8BF11460191A3F14602322A00F28084DFE812F041007E04CB
:2003C0007E047E047E047E047E047E047E047E04D0017E047E047E047E047E047E047E04AE
:2003E00049027E047E047E047E047E047E047E047E047E047E04CE0301027E0443007E0483
:200400007E0401027E047E047E047E0442044E02D2017E047E04EA037E0446027E047E0427
:20042000330010230B93019B0233042B00F2A581DFE813F015021D0225022E02370249F0D7
:20044000800949F040031193039B073323F0070303F1080203921A680F925B680C93D345CE
:2004600034BFAAEB0B0300230E939DF94430A349A34A11EA230138BF1146139100220023E9
:200480000F980C999F4CA04700285BD10F980C999D4B98471490C117002800F087840690A2
:2004A0000891002312930024A8460A220023974DA847013450EA0103F7D14546129B002B09
:2004C00000F07884631C0B9319F0030240F07E840B9B9E4251DD0B9BF21A029B4FF0000889
:2004E00020210E98404584BF1970013308F101089045F7D10B9A1092129A002A44D000229E
:200500000E99414502D92D211970013308F10108012A48D00E9AA242C0F00D8123441293AD
:2005200004EB08011591002C70DD0C465B1A1797CDF8609017461995CDF858B0DDF84C90F1
:200540009B464FE00C9B03F100430C930F9819466D4B98471490C11720B1069008910123D1
:200560001293A0E706900891012312931C46A5E7109B0B93ACE70B94ADE70B9B10930B9670
:20058000029B4FF00008B7E7002200F030BC19F0100FBDD00E99414502D920211970013320
:2005A00008F10108B4E70B9AA242B3DD10989042B0DA4244121A30210E98404584BF197087
:2005C000013308F101089045F7D1109A0B92A1E70A220023069808994C4DA8470690089134
:2005E000A0450DD0013CA742F2D90A22002306980899464DA84719F802300BF80430E7E7F0
:20060000DDF858B0179FDDF86090199D19F0020F12D00B9B109883420EDD15990B441B1AA0
:2006200020220E9C12988C4284BF0270013001319942F8D1159112900E9B159A934204D948
:200640002E23129A1370531C1293159B03F10108002FC0F2718314982D4B984702460B46E8
:200660000F980C992B4CA047CDE90601002F64DD0E9B434561D9B946CDF820B00B960E975E
:200680001E460C95139F129DCDF83CA00022224BDDE90601214CA047CDE90601B9F1010F2C
:2006A00040D0DDE90601184B984782464FEAE07B59461B4B984702460B46DDE90601154C14
:2006C000A047CDE906010A220023504659460F4CA047BB5C05F8013B08F1010809F1FF392C
:2006E000B9F1000F32DD4645D0D8DDF820B00B9E0E9F0C9DDDF83CA01FE000BF547200081E
:200700002C720008156D0008656D0008B56D00085D670008C16400080000244031680008A7
:20072000C5670008DDF820B00B9E0E9F12950C9DDDF83CA013E34FF00008029B4344029393
:20074000C344DDF844902A46002151E5DDF820B00B9E0E9F0C9DDDF83CA0EEE749F0800936
:2007600049F02009039A136818460021CDE90401131D039310230B930827D34534BFAAEB5F
:200780000B0300230E934FFA89F113918B4A8C4B12EA210238BF1A46119219F0400F00F013
:2007A0009980DDE90434002B74F10003C0F28880DDE90434CDE9063400230F9390E049F079
:2007C0004009019B0233042B77D8DFE803F0030E19242F00039B93F90010CA17CDE9041263
:2007E000043303930A230B93C7E7039BB3F90010CA17CDE90412043303930A230B93BCE771
:20080000039A13681846D917CDE90401131D03930A230B93B1E7039A13681846D917CDE972
:200820000401131D03930A230B93A6E7039B073323F0070303F108020392D3E90034CDE967
:2008400004340A230B9398E70A230B93EBE549F0800910230B93E6E508230B93E3E5039BEE
:2008600019780022CDE904120433039385E7039B19880022CDE90412043303937DE7039AC5
:20088000136818460021CDE90401131D039374E7039A136818460021CDE90401131D03936A
:2008A0006BE7039B073323F0070303F108020392D3E90034CDE904345FE70A230B935CE72C
:2008C000DDE904345B4264EB4404CDE9063401230F9305E0DDE90434CDE9063400230F9398
:2008E000DDE9060150EA01031BD0CDE90C0100240B9B1946DA17CDE90812A846DDE90C0194
:20090000DDE908232F4DA847013450EA0103F7D1454619F020010BD00B9B082B03D03B4683
:2009200007E00024F5E7631CBB42B8BF3B4600E03B46A34205DCDDE90623134314BF2346B4
:20094000012319F0080F2FD00B9A102A0CBF042203220C925A1E0C9892FBF0F203EB02083E
:200960000F9B13B919F0140F20D008F10103109311B10B9B102B1CD019F0030224D1109B08
:200980009E4255DDF01A029B00244FF0200CDDF838E0A64584BF83F800C00133013484428A
:2009A000F7D11098129012E00C93D3E7CDF84080DEE7109B02331093DEE700BF40720008CF
:2009C00018720008B56D00081296029B00240F98002831D00E98A04202D92D2018700133B6
:2009E000013411B10B9910293CD0012A4DD00E994145C0F0A880434413934444B8F1000F5D
:200A000040F38D800F930C990B980246C317CDE90823CDF82CB014961597CDF85890DDF830
:200A200038B01795DDF83C9025460F940E4658E01296029B0024CAE719F0040F07D00E9834
:200A4000A04202D92B20187001330134C9E719F0100FC6D00E98A04202D9202018700133D0
:200A60000134BEE70E99A14202D9302119700133611C0E98884206D913990029B4BF58219C
:200A80007821197001330234AFE7129A9045AEDA10989042ABDA121A224430210E98A042C1
:200AA00084BF1970013301349442F8D1109A12929DE709F1FF37013D08F1FF38AB4584BFBF
:200AC0005F2309F8013C0C9B5E1E0EE0DDE90823DDE90601AC4FB847CDE90601B8F1000F18
:200AE00015DD002EE5D0013E4F4607F1FF39013D08F1FF38AB45E9D9DDE90823DDE906013F
:200B0000A14CA047119B9B5C07F8013CDEE7DDF82CB0149E159FDDF85890179D0F9C19F021
:200B2000020F11D0109A12998A420DDA21448B1A20220E981399A04284BF0A700131013417
:200B4000A342F8D100E00024029B23440293A3442A460021FFF74CBB039A13681CA901F8FF
:200B6000013D131D03930122B7F1FF3F02D0BA42A8BF3A46964202DD19F0020F1AD0002ACE
:200B800043D0584602EB000B0346081A029C30E0039B181D196849B10B784BB10A4612F86C
:200BA000013F002BFBD1521A0390DDE77749F5E70A46F8E709F00103002B14BF30242024DD
:200BC00006EB0B039B1A5846029E824584BF3470013601309842F8D102960AB11646D1E703
:200BE000164683462A460021FFF702BB01335B450AD09A45FAD9C15C0D29F7D00A2908BF18
:200C00000D2121700134F1E70294B2427BDA19F0020F03D12A460021FFF7EABAB31A5B44A4
:200C200020210298DA4584BF017001300BF1010B9B45F7D1029016462A460021FFF7D8BA1E
:200C4000019B0233042B62D8DFE803F0030D17212B00039A136883F800B0131D03932A46B4
:200C60000021FFF7C5BA039A1368A3F800B0131D03932A460021FFF7BBBA039A1368C3F8E6
:200C800000B0131D03932A460021FFF7B1BA039A1368C3F800B0131D03932A460021FFF71C
:200CA000A7BA039A13680021C3F800B05960131D03932A46FFF79CBAD34508D20D2B06D0F4
:200CC0000A2B08BF0D23029A1370531C02930BF1010B2A460021FFF78BBA2A46FFF788BA49
:200CE0002A4601214FF000094FF0FF374E46CDF80490FFF77DBA0221FFF77ABA2A460223A9
:200D00000193FFF775BA2A460021FFF771BA2A460021FFF76DBAD34508D3BAF1000F07D036
:200D20000A9B5344002203F8012C01E0029A137058461DB0BDE8F08F1498154B984702466B
:200D40000B460F980C99134CA0470E9B43457FF6F4AC0022104B114CA047CDE906010022CA
:200D60000F4BDDE906010F4CA0470F4B98470A220023C117044CA047139B9B5C129A13709F
:200D800008F10108D9E400BFB56D0008687200085D670008C16400080000244031680008CB
:200DA0000000E03FC5640008656D0008069008910124129019F0140F0FD119F0030224D005
:200DC0000B96029B10944FF0000810E010930B96029B4FF00008FFF793BB631C109319F063
:200DE00003023FF4C5AB0B96029B4FF0000819F0040F3FF4CCAB0E99414502D92B21197023
:200E0000013308F10108FFF783BBA6423FF7B3AB0B96029B10944FF00008E8E70428044A7A
:200E200013680CBF43F0040323F004031360704710E000E0036823F00103036000230360B3
:200E400043608360C3600361212343613C4B98422DD03C4B98422ED03B4B984230D03B4BFA
:200E6000984232D03A4B984234D03A4B984235D0394B984236D0394B984237D0384B9842A9
:200E800039D0384B98423AD0374B98423CD0374B98423ED0364B984240D0364B984241D039
:200EA000354B984242D0354B984243D07047103B3D229A607047283B4FF474629A6070471A
:200EC000403B4FF474129A607047583B4FF074629A607047703B2A4ADA607047883B294A7E
:200EE000DA607047A03B284ADA607047B83B4FF03D52DA607047103B3D229A607047283B53
:200F00004FF474629A607047403B4FF474129A607047583B4FF074629A607047703B184AAC
:200F2000DA607047883B174ADA607047A03B164ADA607047B83B4FF03D52DA60B6E700BF28
:200F4000106002402860024040600240586002407060024088600240A0600240B860024061
:200F6000106402402864024040640240586402407064024088640240A0640240B864024021
:200F80003D000020400F002000003D2010B40368134A1A400B68CC6823434C6923438C6925
:200FA0002343CC6923430C6A23434C6A23438C6A23434C6B23438C6B2343134303604269FE
:200FC00022F00702CB6A0C6B2343134343610B6943604B6883608B68C36010BC704700BFE5
:200FE0003F801CF021B9036823F0010303607047036843F00103036070472AB9036823F48F
:201000000023036001617047036843F400230360F8E721B9036823F48023036070470368A6
:2010200043F480230360704711F0800F14D062B1436943F080034361802905D0036801F055
:201040001E011943016070477047436923F080034361802904D17047802907D0002AEDD1C3
:20106000036801F01E0123EA0101016070470000054B1B69002B00DB7047034B034A5A60E8
:2010800002F188325A60F7E7003C024023016745024A136943F0004313617047003C0240D6
:2010A0000E4BDB6813F4803F12D10C4BDB6813F0100F0FD1094BDB6813F0EF0F0CD1074B88
:2010C000DB6803F00203002B14BF072008207047012070470520704706207047003C0240C2
:2010E00010B582B008238DF807300B4B98478DF807009DF80730DBB2012B08D1064CA047BA
:201100008DF807009DF80730DBB2012BF7D09DF8070002B010BD00BFA110000870B50546F4
:2011200041B101290CD002290CBF4FF400764FF4407600E00026144B9847082803D070BD9B
:201140004FF48076F7E7114C236923F44073236123691E432661236923F0F8032361206926
:2011600040F0020028432061236943F480332361054B9847236923F002032361236923F061
:20118000F8032361DBE700BFE1100008003C024070B505460E460D4B9847082800D070BDB0
:2011A0000B4C236923F440732361236943F400732361236943F0010323612E60034B984742
:2011C000236923F001032361E9E700BFE1100008003C02402DE9F843B2F1000923DD04469B
:2011E0000F460E1F0025DFF8488056F8041F2046C047082815D104340135A945F5D1A4EB04
:20120000850422683B689A420FD13A1D0023E41B0133AB4205D0A65852F8041B8E42F7D0EF
:201220000920BDE8F8830820FBE70920F9E700BF9111000810B40268436881680B43C168B0
:201240000B4301690B4341690B4381690B43C1690B43016A0B43416A0B43816A0B43C16ACA
:201260000B43016B0B434FF0204141F822308368082B24D0426B0168013113689469234303
:20128000546843EA0413946843EA0423D46843EA0443146943EA0453526943EA02634FF0C1
:2012A000204242F82130C36AB3F5804F0FD00268114B6FF0704143F8221010BC704703688D
:2012C0009B000B441A6842F040021A60D2E7826B0168136890690343506843EA00139068FB
:2012E00043EA0023106943EA0053526943EA0263014A42F82130E0E7040100A039B98000A4
:2013000000F120400268064B134003607047800000F12040036843F001030360704700BF08
:20132000FEFF0F00F0B40023012503260DE0C26806FA07F422EA0402C260C468CA79BA40DC
:201340002243C2600133102B2CD005FA03F20C68A243F7D104685F0006FA07F2D243144059
:201360000460D0F800C00C79BC4044EA0C0404600C79013CE4B2012CD9D8846822408260F8
:2013800084684A79BA4022438260426805FA03F422EA0402426044688A799A4092B22243D7
:2013A0004260C4E7F0BC7047018370474183704710B401F007039B00C90800EB8100016AC5
:2013C0000F249C4021EA04010162016A9A400A43026210BC7047000010B4284B9B6803F0E5
:2013E0000C03042B22D0082B23D013B1244B036001E0234B0360214CA368C3F303132149A1
:20140000CB5CDAB20368D3404360A268C2F382228A5CD2B223FA02F28260A268C2F3423205
:201420008A5CD2B2D340C36010BC7047164B0360E1E7124B59685A6802F03F0211F4800F56
:2014400011D05968C1F388110F4BB3FBF2F303FB01F30A4A5268C2F3014201325200B3FB85
:20146000F2F30360C7E7054B5968C1F38811044BB3FBF2F303FB01F3EBE700BF0038024039
:201480000024F4000000001000127A0029B9054A136B23EA000010637047024A136B18438D
:2014A000106370470038024029B9054A936B23EA000090637047024A936B18439063704753
:2014C0000038024029B9054A136C23EA000010647047024A136C18431064704700380240DF
:2014E00029B9054A536C23EA000050647047024A536C1843506470470038024029B9054A08
:20150000136923EA000010617047024A136918431061704700380240014B1860704700BF1B
:20152000DC00274230B585B004460D46038A9BB223F44053CA881343038283899BB223F48E
:20154000B05323F00C028B8809890B4369890B4313438381838A9BB223F44073AA8913432D
:20156000838268461D4B98471D4B9C4205D003F580639C4201D0029B00E0039BA28912F480
:20158000004F03EB830303EB8303296814BF49008900B3FBF1F1134BA3FB012358090501C7
:2015A000642300FB1313A28912F4004F0BD11B0132330C4AA2FB0323C3F343132B439BB2C6
:2015C000238105B030BDDA003232064BA3FB0232C2F3421242EA0503F1E700BFD91300089C
:2015E000001001401F85EB5131B9838923F400531B041B0C83817047838943F400538381BF
:20160000704722B9838A23EA010181827047838A194381827047000082B0354B1A6842F0D9
:2016200001021A60002199601A6822F0847222F480321A602F4A5A601A6822F480221A6060
:20164000D960009101911A6842F480321A601A4649F69911136803F400330193009B0133F9
:201660000093019B13B9009B8B42F3D1204B1B6813F4003F14BF012300230193019B012B99
:2016800001D002B070471A4B1A6C42F080521A6419490A6842F480420A609A689A609A686F
:2016A00042F400429A609A6842F4A0529A60134A5A601A6842F080721A601A46136813F07F
:2016C000007FFBD00E4B40F205621A60A3F580639A6822F003029A609A6842F002029A6094
:2016E0001A46936803F00C03082BFAD1C9E700BF00380240103000240070004008544007EF
:20170000003C024010B501214FF00070034CA04700214FF00070A04710BD00BFFD14000823
:2017200001230360002343608360C36003614FF4804242618361C3614FF400620262436294
:201740008362C362036343638363C36340220264202242648364C364036543658365C36589
:201760000366802242668366C366036743678367C3674FF08062C0F880204FF00072C0F89A
:201780008420C0F888304FF40011C0F88C10C0F89030C0F89430C0F89830C0F89C30C0F8DD
:2017A000A030C0F8A4204FF48032C0F8A8204FF48002C0F8AC204FF40052C0F8B020C0F84A
:2017C000B430C0F8B830704730B587B00446002305930093564B1D6925F01C0501A8554B74
:2017E0009847029A544B134454498B4214D9544B134454498B4240F29780534B13445349E7
:201800008B420BD9524B1344524A934294BF45F0040545F0100501E045F00805444A1561B0
:2018200010686368A1680B434B4901400B43E1680B4321690B4361690B43A1690B43E169C2
:201840000B43216A0B43616A0B43A16A0B43E16A0B43216B0B43616B0B431360A36BE16B95
:201860000B43216C0B43616C0B43A16C0B43E16C0B43216D0B43616D0B435360A36D936080
:20188000E36DD3609169636EA06E034321F0BE010904090C0B43E16E0B43216F0B43616F1B
:2018A0000B43216E43EA01439361A36FE16F0B43D36141F218001558D4F88030D4F884106E
:2018C0000B43264929400B43D4F888100B43D4F88C100B43D4F890100B43D4F894100B43B4
:2018E000D4F898100B43D4F89C100B43D4F8A0100B431350D4F8A430D4F8A8100B4343F48A
:201900000003D4F8AC100B43D4F8B0100B43D4F8B8100B43D4F8B41043EA810302F5805228
:201920001360012007B030BD45F00C0576E700BF00800240D913000800D3CEFEBFE1E40034
:2019400040F1E9FD3F787D0100796CFCFF596202001F0AFA7FF0FA020F8120FF233FDEF829
:2019600028B9064A136823F0080313607047034A136843F008031360704700BF00800240C2
:2019800028B9064A136823F0040313607047034A136843F004031360704700BF00800240AA
:2019A0004A790B7943EA0223074A8350CA788B781B0443EA02630A7813434A7843EA022388
:2019C000024A8350704700BF4080024044800240024A136843F00103136070470090024070
:2019E000024B186800F00100704700BF00900240034941F218028B5843F480138B50704709
:201A00000080024038B9084941F218028B5823F400538B507047044941F218028B5843F4E2
:201A200000538B50704700BF0080024038B9084941F218028B5823F002038B5070470449D7
:201A400041F218028B5843F002038B50704700BF0080024008B50120064B9847064B9847CD
:201A60000120064B98470120054B98470120054B984708BD61190008F1190008811900087A
:201A8000051A00082D1A000838B558B90023892212491348134CA0474FF47A75124C28460A
:201AA000A047FCE7024671B900238A220B490C480C4CA0474FF47A750B4C2846A047FCE773
:201AC00013B9002006E00346994204D09B689342F6D1002038BD0120FCE700BFAC7200089F
:201AE000C4720008452F00087527000838B54588C5F30E055DB90023412223492348244C20
:201B0000A0474FF47A75234C2846A047FCE70446082D19DC013D21461F4B53F825001F4BA8
:201B20009847B0B921461C4B53F825001B4B98470346992214491548154CA0474FF47A75A2
:201B4000144C2846A047FCE71F2DCCBF09250825E1E7A368A34206D10023A36063600E4AEB
:201B600042F8253038BD0C4A52F82520A24204BF094A42F8253062685A606368A2689A6020
:201B80000023A3606360EDE7AC720008C4720008452F00087527000828000020891A000811
:201BA0002DE9F84F06460F460B681B1A5D09294649484A4B98471F2D40F384804FF6FE746B
:201BC000AC42A8BF2C4606EB44123A6031464448424B98473346002D76D0002E76D0414A03
:201BE000D2F800C0404AD2F800904FF6FF7547F6FF783E4FB4F5004FB4BF224642465A8048
:201C000096B21D80194663452CBFA3EB0C05A3EB0905C5F34F15C6F30E00C0B1082822DC30
:201C200000F1FF3A57F82A2022B39646BEF802B0CBF30E0B584535D9DEF808E07245F5D10B
:201C400050688360506858609A60536016E00023412227492748214CA0474FF47A75264C79
:201C60002846A047FCE71F28CCBF4FF0090A4FF0080AD7E75B609B6047F82A3061452CBF19
:201C80001E4A1F4A12685B88C3F30E0301EB431191421DD2A41B0B46002C11DD0029A9D180
:201CA000002016E0C3F808E0DEF804005860CEF80430586883607245E0D147F82A30DDE777
:201CC000002006E00F4804E0002002E0002000E00020BDE8F88F00BF70720008452F000850
:201CE00090720008240000201C00002028000020AC720008C47200087527000820000020CA
:201D000054000020F7ADFFFF70B582B01A4B01221A601A4A1A4D2A601A4921F003011A4C21
:201D200021601A481A4B18601A4B23F003031A4E3360009019481A4EB04729462068194BBF
:201D4000984700280FDB144B1868114B1B68834202D92368984208D8094B1B680C4A13604F
:201D60000D4A1360002002B070BD09490D4B98470028F1DB0020F6E75000002000FC0010A4
:201D800054000020470400101C00002000FC0120200000203CA50020240000201473000807
:201DA000452F0008A11B00082DE9F04182B0074600F123084FEA58184FF0FF319E489F4B19
:201DC00098471FFA88F56DB1082D17DD1F2DCCBF09230823092B00F39080994901EB830190
:201DE000043972E00023412296499748974CA0474FF47A75964C2846A047FCE76B1E092B3D
:201E00000BD900234D228F498F48904CA0474FF47A758F4C2846A047FCE7072BDADC884ADB
:201E200052F823203AB986490133082BD5D051F82320002AF8D09468944225D05168616088
:201E400051689068886090687D4941F823000023936053601446002C4FD06388C3F30E02B0
:201E6000954280F2B08021467A4B1B689C4254D304EB421278480068904240F2F9801046F7
:201E800004EB45152E46F7E00022A26062606C4941F82320DFE7A168A1420CD0A24200F035
:201EA000BD8063684B606368A2689A600023A3606360D0E714460022A2606260604941F8DE
:201EC0002320C8E701330A2B17D051F8042F002AF8D05088C0F30E00854240F39A809468A9
:201EE000A242EFD0002CEDD06088C0F30E008542D1DDA468A242F5D1E4E74F48574B98479F
:201F000000974FF49A73564A4E4956484F4CA04701204F4B984700206BE004EB4212524B9E
:201F20001B6893427ED9104604EB45152E467DE00023412243494448444CA0474FF47A753B
:201F4000434C2846A047FCE7481E3D4B53F8203083B11A46B2F802C0CCF30E0C614526D9B3
:201F600092689342F6D15A6896605A687260B3605E6004E07660B660314B43F82060354B27
:201F80001B68AB4294BF344A374A11687288C2F30E0205EB42128A421CD2DAB1AB4284BF8E
:201FA000324B1B68EB1AC3F34F13138012E0B26051687160566071688E609342DFD1204B76
:201FC00043F82060DBE7954216D16FEA43436FEA534363801848214B9847201D002F08DD19
:201FE00004373C44034600215A1C197013469442FAD102B0BDE8F08100234FF4A772114922
:020000040800F2
:202000001148124CA0474FF47A75114C2846A047FCE7916891423FF44DAF1446084A42F87A
:2020200023103EE704EB45152E4600200F4B1B68CB1AC3F34F1322E05000002049280008A6
:2020400028000020AC720008C4720008452F0008752700082400002020000020C52800083B
:20206000E4720008F0720008540000201C00002004EB45152E460020CB1AC3F34F131FFAF5
:2020800088F833806388C3F30E03A3EB080373806FEA48436FEA5343638058B1438813F43E
:2020A000004F07D17288D118B1F5004F02DA7180074B98477188C1F30E0100293FF438AF24
:2020C00008297FF741AF1F29CCBF092008203CE7ED1A0008002800F0B98070B505464FF013
:2020E000FF315B485B4B98472E1F3446738813F4004F0DD103F4004340F271125649574865
:20210000574CA0474FF47A75564C2846A047FCE7C3F30E03738035F8042C4FF6FF718A4291
:2021200033D051490D68AE423CBF50490D6805EB42154D4A126896422CBF4D4A4D4A1268D1
:2021400006EB431090420BD250B1428812F4004F06D1D118B1F5004F02DA7180464B98477A
:2021600045B16A8812F4004F04D173881344B3F5004F0CDB6288C2F30E028AB1082A1BDD09
:202180001F2ACCBF0920082017E00025D1E72846394B98476B88728813446B802C46E9E704
:2021A000002341222C492D482D4CA0474FF47A752C4C2846A047FCE7501E304B53F8201009
:2021C000B1B10B465D88C5F30E05AA422FD99B689942F7D14B689C60284B53F8202052689B
:2021E000626053F82020A26053F820305C6003E06460A46043F820401B4B1B689C422CBF41
:202200001B4A1C4A15686288C2F30E0252011019A84208D238B19C423CBF144B1B68E31AE6
:20222000C3F34F1313530A48154B984770BDA3605A6862605C6062689460104A52F820207D
:202240009342D9D10D4B43F82040D5E7704700BF5000002049280008AC720008C47200088D
:20226000452F000875270008240000201C0000202000002054000020ED1A000828000020B3
:20228000C528000804207047064B1B6813F4803F07D0054A136801331360044B4FF080522C
:2022A0005A60704710E000E05800002000ED00E000B585B068460C4B9847019B0B4AA2FB3C
:2022C00003235B0A013B0A4A536000239360094BE02183F82310072313606FF00400064BC6
:2022E000984705B05DF804FBD9130008D34D621010E000E000ED00E01D0E0008044B1B68CE
:202300001844034A13681B1A002BFBDB704700BF580000202DE9F8434FF6FF7398420ED0B5
:2023200004468946DFF89C80224F234E0CE02A4621462248224B98472846BDE8F88308257B
:20234000FAE70825F8E70824C04702212046B8470546B047082DEAD1A145F2D0002CF2D00D
:20236000082C13D0102C13D0182C13D0202C13D0282C13D0302C13D0382C13D0402C13D0C5
:20238000482C13D0502C13D00825D5E71024DBE71824D9E72024D7E72824D5E73024D3E794
:2023A0003824D1E74024CFE74824CDE75024CBE75824C9E71D1100089110000848730008DB
:2023C000452F00087110000808B5264B9847264A264B9A420DD2244A111D254B5B1A23F0BB
:2023E00003030B44234951F8040B42F8040B9A42F9D1214A214B9A420BD21F4A111D204B43
:202400005B1A23F003030B44002142F8041B9A42FBD11C4A1C4B9A601C4B1A681C4B9A42CA
:202420000ED0ADF5007383F309884FF0020282F31488BFF36F8F174B9847174B9847FEE737
:20244000164B1A68164B9A42EBD103F17843A3F6DC731A68134B9A42E3D1134B196808476B
:20246000DFE700BF19160008000000104404001047040010F07B00080000002039A500204C
:202480003CA500200000000800ED00E0FCFF000899887766B5700008495C00082000010862
:2024A0000010011003F8A2590400010889B110B441180023084C10F8012B82EA132234F829
:2024C000122082EA03239BB28842F4D1184610BC70470023184670476873000870B4F1B19A
:2024E000411800240F4E10F8015B85EA142536F8155085EA0424A4B28842F4D163B113447C
:20250000084D12F8011B81EA142135F8110080EA0424A4B29A42F4D1204670BC704700246C
:20252000ECE700BF687300082DE9F84305460E461348144B9847002E1CDD29781248114B1F
:2025400098470024DFF840800E4FDFF840900134A6420FD015F8011F4046B847624204F097
:202560000F0302F00F0258BF53420F2BEFD14846B847ECE70548034B9847BDE8F88300BFE7
:2025800068750008452F0008907500088C72000808B5C36800699847F02383F31188054B25
:2025A0001A6800239361044A4FF08051516083F3118808BDBC01002000ED00E00C4A0D4B47
:2025C0001360116801208861116800224A615A641A67C3F89C20C3F8C820C3F8F420C3F8DC
:2025E0002021C3F84C21044BF02283F822207047BC0100205C00002000ED00E012F0030F63
:2026000040F0A7808446FF2B40F2A5802DE9F041F02080F311885148406C60B14F4C0220A2
:20262000256F4DB101302C340828F9D1002383F311884B488BE00120484D2C2404FB00F454
:2026400005EB040E0828F1D0464E1660A3F18006042E0DD9161DA3F1850727F0030702F1E4
:20266000080847444FF0FF3846F8048BBE42FBD1CEF80420CEF808301A44131F2B514FF07D
:20268000807342F8043C2B591A1F2A51364A43F8042C2A59131F2B51002342F8043C2A5959
:2026A000161F2E5142F8043C2A59161F2E5142F8043C2A59161F2E5142F8043C2A59161FD2
:2026C0002E5142F8043C2A59161F2E5142F804EC2A59161F2E516FF0020642F8046C2A59D5
:2026E000161F2E5142F8043C2A59161F2E5142F8043C2A59161F2E5142F8043C2A59161F92
:202700002E5142F8043C2A59161F2E5142F8043C2A59161F2E5142F8043C2A59161F2E5127
:2027200042F8043C2A59161F2E5142F8043CCEF80CC0CEF810100122CEF81820069ACEF86F
:202740001420CEF82030CEF8243083F31188BDE8F081064870470648704700BF5C000020AB
:20276000F4ADFFFF01F65AA591250008F3ADFFFFF2ADFFFF08B5F02383F31188002815DBD4
:202780000F4B1A680F4B9A4214D00D4B1B6802229A610D4B1B68002B08BF0123084A12688C
:2027A00018445062094B4FF080525A60002383F3118808BD002383F31188054B9847F8E7B5
:2027C000BC0100205C0000205800002000ED00E0FD220008F0B51A4B0027BC46012419487B
:2027E00025464FF0030E19E012F0020F0FD00268002A08BF01220E6D921B002A07DB4D64D0
:202800004D650A6CBA42C4BF1746A44602E04A6C012AF6D001342C33082C0CD019465A6C78
:2028200012F0080FE0D09E6C3668002EDCD05D64C3F854E0E5E7024B2C2000FB0C30F0BD54
:202840005C00002058000020F02383F311880368002B05DD013B0360002080F31188704768
:2028600019B310B4013B03600029CCBF06240424104B1A6894611B6818620F4B1B68002B4C
:2028800008BF01230B4A1068194441620B4B4FF080515960002383F3118813689B6A022B82
:2028A000074808BF002010BC7047002383F3118803487047BC0100205800002000ED00E009
:2028C000F8ADFFFFF02383F31188036801330360002B03DD002383F31188704770B4134BBB
:2028E00000263546012203E001322C33082A0CD0596811F0040FF7D0D9688142F4D11968AB
:20290000B142C4BF0E461546EEE7094B2C2202FB053301229A6102229A62064B4FF0805246
:202920005A60002383F3118870BC70479C0000205C00002000ED00E000B5FFF74BFF5DF879
:2029400004EB084A116888420AD01060EFF3098323E9F04F0B600368B3E8F04F83F3098839
:2029600070477047BC010020502383F311887047002383F3118870472DE9F84307460E46F8
:202980004FF0FF312C482D4B9847002E4FDD2C4CDFF8BC904FF0000807E088F31188002D99
:2029A00041DD2F44761B002E41DD502383F31188A2886188551AB542A8BF354623880B44D2
:2029C0009A42D8BF9B1A002D0DDD7A1E02EB050C12F8010FA168C8540133A1888B42A8BF52
:2029E00000236245F4D163882B449BB26380002BD3D0E388002BD0D141464846114B984769
:202A00002288A3681344C9F80C306388A18898188842C8BF8B1AC9F80430E38001214846EB
:202A2000084B9847B9E70220074B9847BBE70248064B9847BDE8F883E00A002049280008B2
:202A4000D0010020E50F000875270008C5280008B8640240F0B4344B5968C1F180011B68F8
:202A600013F4002F31D0314B1B681BB1304B1C688C4201DBF0BC70472E4A908855880B1BB5
:202A8000471B9F42A8BF1F4613882B449842D8BF1B1A002F12DD284804F17F0202447F307E
:202AA00020443844234C12F8016FA568EE540133A588AB42A8BF00239042F4D11D4A53884D
:202AC0003B4453801A4B1960D4E7184B18680028D0D1174B1C688C42CCDA164A95885688AA
:202AE0000F1BAB1B9F42A8BF1F46138833449D42D8BF5B1B002F0FDD0F4A224402EB070C61
:202B00000C4C12F8016BA568EE540133A588AB42A8BF03466245F4D1064B5A8817445F80C1
:202B2000034B1960A6E700BF88640240C0010020DC020020C4010020DC01002070B5064622
:202B40000C46502383F31188104B9847104B5888A042A8BF20461B8800280EDD721E0644ED
:202B6000013E0B4CA568ED5C02F8015F0133A588AB42A8BF0023B242F4D1054A13805388C1
:202B80001B1A5380002383F3118870BD552A0008C40100202DE9F0410C1E11DD0546094E61
:202BA0004FF00208084F03E04046B847002C07DD21462846B0470028F6DD0544241AF5E7D3
:202BC000BDE8F0813D2B00087527000810B5204AD3885288934211DB1D4B00225A801A80A8
:202BE0001C4B4FF07462DA60194B5B88BBB90021174BD9801848194B984710BD002BEFD02E
:202C000013480188194489B201808088814202D3091A0F480180D31A0D4A5380E0E70E4CE4
:202C2000002120460D4B9847094B19889A680A44E2605A889B8850189842C8BF5A1A0648BF
:202C40004260034BDA800121044B9847D5E700BFD001002000640240B8640240E50F00086E
:202C6000F0B4384B4FF47462DA6088331B6813F4002F32D0344B196819B9344B18687F28EC
:202C800007DD314B01221A60304B00221A60F0BC70472F4A94885588C0F18006631B9E42B6
:202CA000A8BF1E4613882B449C42D8BF1B1B002E0EDD284A02449719254812F8015B846854
:202CC000E55401338488A342A8BF0B46BA42F4D11F4B5A8816445E80D3E71B4B1B681BB12A
:202CE0001A4B18687F2805DD0023174A1360174A1360CCE7164A91885488C0F180030E1B36
:202D00009E42A8BF1E46138823449942D8BF5B1A002E12DD0F4900F17F020A447F310144F5
:202D200031440B4812F8015F8468E55401338488A342A8BF00238A42F4D1054A538833445B
:202D40005380D1E700640240C0010020DC020020C4010020DC0100202DE9F04F91B05B4B45
:202D60005B4A9A604FF4006199800024DC805C801C80584A584B93609180D48054801480FA
:202D8000564B1C60564B1C60564B1A60564A5A60564A9A60564ADA60564A1A61564A5A619A
:202DA000564A9A61564B01221A600190ADF80840ADF80A40ADF80C40ADF810400C23ADF813
:202DC0000E3001A94F48504B984701214FF480004E4B98474FF0006BCDF804B0DFF84CA1B6
:202DE000CDF808A00394402604968027059706944FF480630793089409940A944FF40033E5
:202E00000B930C9403230D930E940F94DFF8208140463F4DA84701A94046DFF81891C84731
:202E2000012210214046DFF81081C047CDF804B0CDF808A0DFF804A1CDF80CA00494059742
:202E400006944FF480630793089409940A944FF400330B930C9403230D930E940F94DFF8AB
:202E6000E0B05846A84722460AEB07015846294B984701215846284B984701A95846C84776
:202E8000012210215846C047244B502283F825232021596083F846239E6083F844231022A5
:202EA0009A600122394617481D4CA047012231461448A047012158461A4B9847012111486B
:202EC000194B984711B0BDE8F08F00BFD0010020E40A0020C4010020E0020020C001002044
:202EE000DC020020E41600206929000871290008792900083D2B0008952B0008552A000815
:202F0000E00A002000100140251500088D140008350E0008FB0F00081310000800E100E022
:202F200003160008E50F0008E915000804100140B86402408D0F000829100008DC010020D9
:202F4000886402400FB42DE9F04383B00AAC54F8046B4FF0FF313848384B98470194384D28
:202F6000234632464FF480612846364CA0472B7873B115F8013F002BFBD1314BED1A002DBA
:202F800052DD2F4F304CDFF8D0904FF0000809E02B4DF2E788F31188002E41DD3744AD1BAD
:202FA000002D41DD502383F31188A2886188561AAE42A8BF2E4623880B449A42D8BF9B1AD4
:202FC000002E0DDD7A1E02EB060C12F8010FA168C8540133A1888B42A8BF00239445F4D1B1
:202FE000638833449BB26380002BD3D0E388002BD0D141464846154B98472288A3681344DA
:20300000C9F80C306388A18898188842C8BF8B1AC9F80430E380012148460C4B9847B9E71B
:2030200002200B4B9847BBE703480A4B984703B0BDE8F04304B07047E00A0020492800089F
:20304000E4120020CD010008D0010020E50F000875270008C5280008B8640240014B588874
:20306000704700BFC4010020084B5B8898420ADA064A1388184493889842A8BFC01A034B36
:203080009B68185C70470020704700BFC401002070B4104B5B8884189C42C8BF1A1A0D4C97
:2030A00023880344A0888342A8BF1B1A002A0DDD01398E18074CA568ED5C01F8015F01336B
:2030C000A588AB42A8BF0023B142F4D1104670BC704700BFC40100200C4B5A88904211DAC1
:2030E00000280EDD80B209490B8803449BB20B8089888B4202D35B1A04490B80101A034B0F
:203100005880704700225A801A807047C4010020F8B5CD880E3DADB2CD800C890E340C8191
:203120004C890E344C8120354C1990F82CC084F806C090F82DC084F807C090F82EC084F891
:2031400008C090F82FC084F809C090F830C084F80AC090F831C084F80BC093F800C001F829
:2031600005C05D7865709D78A570DD78E5701D7925715B79637152BAA281C3699847F8BD49
:203180000123094A1360094A13600023084A1360084A1360084A1360084B1B68002B08BF45
:2031A0000123074A13607047081700200017002010170020141700200417002058000020B5
:2031C0000C17002070B505460C462C20314B9847002850D001461023C3801C2303814381B7
:2031E000062380F83430042380F835304FF48073038608224286C38695F82C3080F8383003
:2032000095F82D3080F8393095F82E3080F83A3095F82F3080F83B3095F8303080F83C3076
:2032200095F83130024602F83D3F05F10C0305F1100613F8010B02F8010FB342F9D10022CF
:2032400081F8422081F8432081F8442081F8452081F846200B4603F8472F201D14F8012BE6
:2032600003F8012FA042F9D10B4B40F6060228460A4CA04770BD0A4B1968002923684FF042
:203280002C0208BF01210748074CA0470748A0470748EFE701450008E4750008113100083A
:2032A00058000020A4750008452F0008D0750008C8B1FFFF2DE9F04186B004460E461546BF
:2032C0004FF0FF31644B9847D4F80C802769636903932046614B98472B685A1E12F1030F96
:2032E0001AD8FA439A4313D003F0F002E02A1DD083EA08033B4218BF03AD4FF0FF31584878
:20330000554B9847574B1B68002B6FD0296835E083EA08023A42E7D1534B4FF40062314694
:203320002046524CA04706B0BDE8F0811A0642EA1362190A01F47F410A431B0203F47F035A
:20334000134301228DF8102000228DF811205E228DF81220C3F306428DF813201A0A8DF8D1
:2033600014208DF8153004AB4FF40062314620463E4CA047D7E71B68002B37D01A698A42EB
:20338000F9D15A699442F6D1002B2FD09A7A022A0BD0002232609A6932B3DA691660DE612A
:2033A0002F482E4B98470020BDE70022DA721A798DF810205A798DF811209A798DF8122071
:2033C000DA798DF813201A7A8DF814205B7A8DF815302348214B984704AB4FF40062314675
:2033E0002046224CA0479EE79E61D8E72020204B9847074600B300F120010346002203F8CD
:20340000012B8B42FBD14FF4FA73FB600023FB720122BA727C612A683A61124A1168396085
:203420001760FE61BE6133600D480C4B984729462046104B984776E7202300933D230E4A7F
:203440000E490F480F4CA0470548044B984730460D4B98470D4866E749280008C528000844
:203460000017002004170020E475000811310008A91D0008C531000898750008EC750008E5
:20348000F0720008452F0008FD450008F7ADFFFF10B504464FF0FF3109480A4B9847002334
:2034A0002360094B1B6843B1084B1B681C60074B1C600348064B984710BD034B1C60F6E7AF
:2034C00008170020492800081017002014170020C52800082DE9F04F89B08E4B1B68002B98
:2034E00008BF01238C4A15685D1B632D05DCDFF860B2DFF83082894F7BE113604FF0FF311D
:203500008748884B9847884B1C687CB31E46DFF84482864FDFF8409210E0A06930B1D0F883
:2035200000A0B8475046BAF1000FF8D1236833602046C84700E026463468BCB1E3685B1B2A
:20354000E360002BF7DCE37A0133DBB2E372142BE3D8A37A022B47F2305318BF4FF4FA7330
:20356000E36004F110016069C047E4E76C48704B9847BCE76F4B00221A6045E105F12001E3
:2035800003916618D4F81890635A5BBA9AB2635273885BBA99B27380F3885BBAF380012A56
:2035A00002D1B1F5006F03D02046604B984720E106F10E0AB37B8DF81830F37B8DF8193019
:2035C000337C8DF81A30737C8DF81B30337E8DF81C30737E8DF81D30B37E8DF81E30F37EF4
:2035E0008DF81F304FF0FF314D48C0474E4B1B68002B2FD00699039D01E01B684BB31A6982
:203600008A42FAD15A699145F7D1039513B3327A1A71727A5A71B27A9A71F27ADA71327BCB
:203620001A72727B5A7247F23052DA609A7A012A48D03B483E4B9847F388012B05D1D9F8C0
:203640000C30079A9A4200F089802046374B9847CFE003952020384B9847844600284FD0F7
:2036600000F1200103460022039D03F8012B8B42FBD1039502238CF80A3000238CF80B3010
:2036800047F23053CCF80C30CCF81490069BCCF81030337A8CF80430737A8CF80530B37A29
:2036A0008CF80630F37A8CF80730337B8CF80830737B8CF809301C4B1A68CCF80020C3F88B
:2036C00000C0B6E702229A720022DA7299690D46DA619A611248164B98472946002DABD0B3
:2036E00006F10803049305940C68049B4FF400624846124DA8472146002CF5D1059C9BE788
:20370000202300933D230E4A0E490F480F4DA8478FE700BF580000200C17002010170020EB
:20372000001700204928000804170020FD450008C528000814170020A91D000811310008FC
:2037400098750008EC750008F0720008452F000808170020C5310008D5200008039AA35A31
:203760005BBAA35273885BBA73804FF40073F38006F11203327AB274727AF274B27A327510
:20378000F27A7275327BB275717B324602F8171F18461AF8011B02F8011F8245F9D199F8A6
:2037A0002C20327299F82D20727299F82E20B27299F82F20F27299F83020327399F83120A8
:2037C00006F80D2F09F10C0209F1100012F8011B06F8011F9042F9D11C226281228140F6C3
:2037E0000602214648461B4CA04702E020461A4B98474FF0FF315846C0473C6824B32368D8
:203800003B60002B3FF4B6AE5846144B9847E388203323449A8952BA9A81E5880E35ADB2F1
:20382000E58022890E3A228162890E3A62819B89B3F5006FDAD040F6060293423FF49EAE00
:203840002046074B9847D4E70648044B984709B0BDE8F08F11310008FD3A0008C52800083F
:20386000FD4500080817002000290FDD00EB4101002330F8022B13448842FAD198B200EBE4
:20388000134303EB1343D84380B270470023F5E72DE9F8430368013B13F1030F02D9012081
:2038A000BDE8F88306464FF0FF311948194B9847194B1C6834B34FF0FF38164FDFF85C901C
:2038C00003E02846C8476468E4B1254641462046B84794F82A3013F0010FF2D033685A1E02
:2038E00012F1030F07D82269D1439943E9D1E1684B401342E5D12846084CA0470448A047E4
:203900000120CDE70248054B98470020C8E700BF5C7C002049280008587C0020C528000871
:203920002DE9F84381464FF0FF311B481B4B98471B4B1C68FCB14FF0FF37184EDFF864802B
:2039400003E02846C0476468ACB1254639462046B04794F82A3013F0010FF2D0D9F80030E3
:20396000E268534022691342EBD120460D4DA8470948A8470CE008480A4B98470A4B1C6896
:2039800034B194F82A3003F00103002B08BF00242046BDE8F88300BF5C7C00204928000899
:2039A000587C0020C5280008547C00200023044A1360044A1360044B01221A60704700BF27
:2039C0001C170020181700202017002070B50446C088143880B2E0802589143525816589CE
:2039E0001435658120302518452626546B7063896B804FF48043EB809DF810302B726A72B5
:203A00000B682B614FF0FF310C480D4B98470D4A1388591C1180AB80002323600A4B1B680C
:203A20004BB10A4B1B681C60084B1C600348084B9847002070BD044B1C60F5E7201700209F
:203A40004928000824170020181700201C170020C528000810B584B0C3882033C418C25C6A
:203A6000082A04D00B4B9847002004B010BD0022C254638808336380CB6804AC44F8043DC9
:203A80000B69CB6040230093C02301222146024CA047EAE7FD450008CD39000810B50846B3
:203AA000CC8804F120021144835C9B0003F03C032344C380835C9B0003F03C030489E31ABA
:203AC0000381835C9B0003F03C034289D31A43814B7A012B04D0112B05D1054B984710BD67
:203AE000044B9847FBE7044B98470020F7E700BF99490008553A0008FD45000838B50546C8
:203B0000C3882033C418C15C0B11042B24D1490001F01E0120461A4B984708BB63885BBA08
:203B200099B26380A28852BAA280E28852BAE280226902F0F802F02A17D06A898A4219D304
:203B40006B812A898A4288BF2B8104F110022946A8690C4B984738BD0B4B98470B48FAE7EC
:203B60002846094B98470A48F5E72846064B98470848F0E72846044B98470748EBE700BF35
:203B8000693800089D3A0008FD450008CBB1FFFFCCB1FFFFCAB1FFFFC7B1FFFF2DE9F84F12
:203BA000DFF8E080304FDFF8E09030E02F4B00221A6038E004F110002D4B9847A86100283D
:203BC0003AD128462B4B984721E0D4F810B0A869D0F80CA0284B9847D34538D063885BBA93
:203BE0006380A3885BBAA380E3885BBAE38000236381A95D490001F01E0120461F4B984787
:203C00006081A869836904F11002294698474FF0FF314046B847D9F80050FDB12B68C9F85A
:203C20000030002BC2D04046134B9847EE882036AC19AB69002BBDD04FF0FF31A869B847F8
:203C4000E368002BC1D1AB69DB68E360BDE704F110022946A8690A4B9847D8E70948064B02
:203C60009847BDE8F88F00BF492800081C17002021390008FD450008C52800086938000864
:203C80009D3A0008201700201817002008B51846014B9847002008BDFD4500082DE9F84FCD
:203CA00088464FF0FF314548454B9847B8F80A3003F2FF77FF12434A1468002F63DD07F1F5
:203CC000FF392268002A09DB21464A46C968013AB2F1FF3F1BD008680028F7DA37483A4B78
:203CE00098474046394B98470020BDE8F88F3268136843F08053136015E033689A685B46EF
:203D0000E9024046D0473368C3F804B01FE0012F3BD0002F26DD00252A4EDFF8B8A04FF496
:203D2000006B002DE3D0A945E7DCE902B8F80A40641A33689A6823464046D047326813686C
:203D400043F0005313603368C4F30C045C603268136843F0004313603368DB6833600135A7
:203D6000AF42DED11A4A41F21403D35813F0040FB4D0134641F214020421995041F2040247
:203D800000219950AAE7012FECD1A26800214046104CA0470B4B19680A6842F040520A6030
:203DA0001A68B8F80A10C1F30C015160116841F0004111601A68D2681A60D3E7F87700206A
:203DC000492800082C170020C5280008FD450008008002407D4600082DE9F84F4FF0FF316F
:203DE0005848594B9847594B1D68002214469846DFF880912B68002BC0F289808CB12B68EC
:203E000013F4007F1CD12B6813F4807F25D12B6813F4807FEED12B6813F4007FEAD1ED681F
:203E2000E8E72B6813F4007F01D02C46EBE72B6843F000432B60ED68C8F800500122D9E7A9
:203E4000A54207D0236843F000432360E468A542F8D12C46ED680122D5E72E68C6F30D46DC
:203E6000371FB01E3A4B98478246002834D00223C380A54243D0A1684FF40062354B984757
:203E8000A6F604064FF000432360E468A5420ED0DFF8C4B01F46A1684FF400625046D84753
:203EA000A6F500662760E468A542F4D12C46A16832465046284B98474FF000432360D9F8D1
:203EC0000030CAF818305046244B9847ED68C8F80050012200249AE70021DFF894B0DFF884
:203EE00098A04E1C1E48D847A0683946D0474FF000432360A542E9D0E4683146F1E7A168B4
:203F00003A46144B98474FF000432360D7E732B1144A41F21403D35813F0800F04D10948B2
:203F2000114B9847BDE8F88F134641F214028021995041F20802002199500C480C4B98471D
:203F4000EDE700BFF4770020492800082817002001450008B547000891480008913400086B
:203F60007076000800800240C528000884760008452F0008F0770020292500082DE9F04FEC
:203F800083B04448444B984701210720434B984701214FF48040424B98470120414B984721
:203FA0004FF0010B8DF804B000258DF806508DF807504FF003098DF805904FF4804602AF82
:203FC00047F8086D39463848DFF8F480C0474FF0020A8DF804A08DF806508DF807508DF82C
:203FE00005908623009339463048C0470B2259462E482F4CA0470B2251462C48A0470B2202
:020000040800F2
:2040000007212A48A0478DF804A08DF806508DF807508DF805904FF46053009339462248B3
:20402000C0470B2211462048A0470B220C211E48A0470B220D211C48A0478DF804A08DF8AB
:2040400006508DF807508DF805903223009305F1804505F5023539462846C0470B22594680
:204060002846A0470B2204212846A0470B2205212846A04731460C480E4B984764200E4CBB
:20408000A047314608480D4B98476420A04703B0BDE8F08F08760008452F00088D1400084E
:2040A000E1140008191500080004024000000240B1130008AD13000875270008A913000849
:2040C00025130008F0B5B1B005460C46514B98475148524B9847524B1C600121514B19601D
:2040E000514B19604FF06060504B9847504B9847504B9847504CA0470128FCD001A84F4B83
:204100009847002101914FF4804306934FF40062099208914FF400720B920C910F91129163
:20412000149110221592169121914FF0007222924FF40010249026912791042029902A9234
:204140004FF480322B924FF480022C924FF400522D922F9368443A4B984701280CBF39488F
:2041600039482E4B984729460020384B9847384E384B1E6037463849334600224FF00045D1
:204180004FF490441D605C609960042A9ABF03F11000D860DF600132103301F50061062AD7
:2041A000F0D12E4841F20C03C6502D4B2D4A13604FF4801119602C4A9A6003F11004DC600D
:2041C000196102F500649C6103F12004DC61196202F580549C6203F13004DC62196302F59B
:2041E000C0549C6303F14004DC63196402F500549C6403F15004DC64196502F520529A65FF
:20420000DB6541F2100283501848044B9847002031B0F0BD7D3F000820760008452F00082C
:20422000F0770020F8770020F47700208D14000805170008D1190008E119000821170008DC
:20424000C91700083476000844760008A11900083017002028170020F01700200080024091
:20426000901700202C170020F04700205876000808B50348034B9847034B9847002008BDA0
:2042800094760008452F0008551A0008F8B53948394B9847394B98470027394C394D3A4E6B
:2042A00012E00120394B98472B682168002908BF0121C91A2960022958D8354A2B68116808
:2042C0008B4238BF0B4613602368002B08BF0123DB1BB3F57A7F03DD2768002F08BF012791
:2042E0002368002B08BF01232B602A4B98472A682368002B08BF01239B1A022B07DD2168BC
:20430000002908BF0121891A23481B4B98472368002B08BF01233360204B98473268236895
:20432000002B08BF01239B1A022B07DD2168002908BF0121891A1A480F4B98472368002B12
:2043400008BF01233360174B984732682368002B08BF01239B1A022BA3DD2168002908BF88
:204360000121891A1048044B98479AE70F48024B9847A2E7A4760008452F000875630008E7
:20438000580000200C7C0020107C002075270008147C002081630008B8760008D5340008CA
:2043A000C07600089D3B0008C8760008D0760008F8B507460E4615460A4C4FF0FF31204677
:2043C000094B9847094B186838441860084B196831441960074B1A682A441A602046064BAD
:2043E0009847F8BD007C002049280008FC7B0020087C0020047C0020C528000810B582B04D
:204400001248134B9847134B01221A60124B9847124B9847041E11DB114B9847114B98470E
:20442000114B9847642300934FF480630F4A00210F48104CA047041E03DB0024204602B0B1
:2044400010BD21460C48024B9847F7E7F0760008452F0008007C00207D4400088D63000883
:2044600081310008AD3900088D490008FC7700208D420008FD2500080877000801220D4B20
:204480001A600D4B1A600D49D9607F20186159610B49996183F82A206C2283F832206F2270
:2044A00083F8332040F2DC521A8500205860054A136070475C7C0020187C00207F000001B2
:2044C0009D3A0008587C002010B5044690F8332090F832100848094B984794F82A3013F0E9
:2044E000010F07D143F0010384F82A30236A0BB12046984710BD00BF24770008452F00088E
:204500002DE9F843054600F120084046354B9847044680B100F120010346002203F8012BE2
:204520008B42FBD1A5802A46002101202E4B98472046BDE8F8832D482D4B98472D4B98470A
:20454000C0F50076A6F120039D42F1D93046254B98470746002842D0A8EB0605B046AE42FD
:20456000A8BFA84640461F4B9847814638B3A5EB0805002D27DC4FF0000C07F120013B46B3
:20458000002203F8012B8B42FBD1A6F120039BB2BB80C7F80C90A7F81480C7F810C0FD825B
:2045A00080223A77BCF1000F434403EB05020CBF0121022101200C4B98473C46B8E738466A
:2045C0000D4B9847B4E72846064B984784460028D3D13846084DA8474846A847A8E70446BD
:2045E000A6E700BFA91D0008B143000838770008452F000885220008D520000870B558B990
:2046000000233E2217491848184CA0474FF47A75174C2846A047FCE7054690F91C30002BF4
:204620001CDAC068B8B1134B9847AC8A64424FF0FF36286920B10F4B9847013EEB8AE41A19
:20464000AA88A21A31464FF0FF300B4B98472846084B984770BD00242646EAE70024264694
:20466000EEE700BF54770008C4720008452F000875270008D5200008B1430008F8B50028A7
:2046800049D0064644898C4240F38980641A008988424CDD401A9842A8BF1846F588203519
:2046A00029443144002807DD551E0F1811F801CB05F801CFB942F9D102441B1A241A002131
:2046C000002C6DDD002B6BDDF7689FB3B6F814C0BCF1000F3AD0614544DBA1EB0C01002B6F
:2046E0005EDD376937B3F58A85B38D4258DD6D1AA342A8BF2346AB42A8BF2B463944002B91
:2047000007DD013ACC1811F8015B02F8015FA142F9D1184444E00023552222492248234CCC
:20472000A0474FF47A75224C2846A047FCE7091A0020C5E700236D221A491B481B4CA04705
:204740004FF47A751A4C2846A047FCE700236E2214491548154CA0474FF47A75144C2846D4
:20476000A047FCE71D46A342A8BF2546ACEB010C6545A8BF65463944002D08DD571E01EB05
:20478000050C11F801EB07F801EF6145F9D12A445B1B2844641B002C02DD00219FE7002013
:2047A000F8BD00BF54770008C4720008452F000875270008F8B500284AD00346C0889D88AF
:2047C0002D1A9542A8BF1546002D09DD1F3018444F190C4614F8016B00F8016FBC42F9D1D9
:2047E000541BAAB25A811A81002C2FDDDE686EB3988A002838D04A190146A042A8BF21462D
:20480000002908DD701E5618154615F8017B00F8017FB542F9D10A44641A588901445981A5
:20482000002C13DD186988B1D98AE9B18C42A8BF0C46002C07DD411E101912F8015B01F827
:20484000015F9042F9D15A8914445C815889F8BD00238A220A490B480B4CA0474FF47A75C9
:204860000A4C2846A047FCE70023962204490548054CA0474FF47A75044C2846A047FCE743
:2048800054770008C4720008452F0008752700082DE9F84368B30346C48805898088001B35
:2048A000401B9042A8BF104600282EDD2C441F341C440D1811F8016B04F8016FA942F9D1FD
:2048C000121A81B21C890C441C815C89214459812946002A4FDDDF68002F4CD09C8AB4B1E1
:2048E0005E891D89751B03F11406984603F1180E28E00023A82221492148224CA0474FF435
:204900007A75214C2846A047FCE70020E1E70023B9221A491A481B4CA0474FF47A751A4C72
:204920002846A047FCE736F8024B2D1B002A22DDB64520D0C8EB460454F81C7CDFB134883B
:20494000002CE4D0641B9442A8BF1446002CEADD05F1FF3C674401EB040C11F8019B07F8F2
:20496000019F6145F9D1121B598921445981254420446146D7E7BDE8F88300BF54770008F5
:20498000C4720008452F000875270008014B01221A607047607C0020F8B504460D46C78884
:2049A0002037C619C35B5BBAC35373885BBA7380B3885BBAB3804FF0FF313648364B9847A5
:2049C000364B1B68002B38D0718807E09A68CAB1A069824216D05B68002B2ED09A898A42B5
:2049E000F9D11A6912B128698242F4D15A6912B1E8688242EFD1DA89002AE7D03088904265
:204A0000E9D1E3E7E2880832E2802289083A22816289083A6281EA682262E25BA284002211
:204A200022609A693AB1DA691460DC6119481C4B984700202CE09C61F7E71648184B9847C4
:204A400005F11000174B9847F0B92B6903F07F027F2A19D003F0F003E02B15D005F10C06EE
:204A60003046104B984778B9EB6803F07F027F2A0AD003F0F003E02B06D02346324603213F
:204A80000846094CA04703E02046084B98470020F8BD00BF607C002049280008647C002008
:204AA000C5280008913800088D3C0008FD4500082DE9F04782B0BDF82850B2F5B86F1EDCA1
:204AC0000746894690461E4602682E4B9A4219D13EB105BBFD893368BBB1FDB9DFF8C480CA
:204AE0004CE000F11406F4E7CDF800A06123264A26492748274CA047DFF8AC803EE0DFF81B
:204B0000AC803BE0DFF8A88038E0DFF8A88035E0DFF8A08032E03368002BF9D008F12C0A5C
:204B200050461D4B984704460028DDD02C23C3800B9B836142464946184B98478046E288D4
:204B4000083A92B2E2802389083323816389083363812032A118B889A0524D8067890023B9
:204B6000CB8040BAA0526DBA4D807ABA8A8040220092112231462046094CA047404602B054
:204B8000BDE8F0870B3FA59D7077000880770008F0720008452F000801450008B547000847
:204BA000CD390008D7B1FFFFC8B1FFFFD9B1FFFFDDB1FFFFD8B1FFFF2DE9F047089FDDF886
:204BC00024A005681A4CA5422BD11E469046894605464FF0FF311748174B9847AC6914B31C
:204BE0002368AB61DBB11348144B98470EB1236A33600FB1A38C3B80BAF1000F02D0A369D8
:204C0000CAF8003043464A46002120460C4DA847054620460B4B98472846BDE8F087EB61FE
:204C2000E1E7094DF8E70348044B9847074DF3E70B3FA59D607C002049280008C5280008DA
:204C40007D460008FD450008DDB1FFFFDBB1FFFF10B582B000240194049C0094014CA04711
:204C600002B010BDB94B0008F8B505462020284B9847002849D0044600F120010346002217
:204C800003F8012B9942FBD14FF0FF312148224B9847224B1A88224B186842F2117647F232
:204CA000305744F6206CBA421ABF013292B26246B0B18389934205D003465B689BB1998922
:204CC0009142FAD1013EEED1144B1A800023A3811048144B98472046134B9847134813E071
:204CE0000E4B1A8001E00D4B1A800C4B1B88A381002BEDD060600A4B1C600648094B9847D6
:204D00000B4B23602C600020F8BD0A48FCE700BFA91D0008607C00204928000814000010FE
:204D2000647C0020C5280008D5200008D6B1FFFF0B3FA59DF7ADFFFF2DE9F04705681A4CAE
:204D4000A5422ED10746994616468A4680464FF0FF311648164B9847164B1C689CB9BAF15D
:204D6000000F1AD0DAF80030C8F81030A8F80C60C8F808900D48104B98470020BDE8F08709
:204D80006468002CEBD0A742FAD0A589B542F7D10648094B98470948F0E70023C8F81030F4
:204DA000E4E70748EAE700BF0B3FA59D607C002049280008647C0020C5280008DCB1FFFFC8
:204DC000DDB1FFFFF0B583B014461D4602281AD0032842D10B0E02F8043C0B0C02F8033CBD
:204DE0000B0A02F8023C02F8011C1D4B1868002301931C4B1B8800931B4B2A1D211F1B4CBF
:204E0000A04703B0F0BDD61F03F10A07F82302F8073CC7F3072302F8063C02F8057C0B0E45
:204E200002F8043C0B0C02F8033C0B0A02F8023C02F8011CA91D901F0D4B98470735731910
:204E4000020A72555870F319F92203F8012C39463046084B98470020D3E76FF00F00D0E742
:204E6000A07C00209C7C0020687C0020B14A0008AD2400087929000838B50F4B1C5CE4058C
:204E800004F0FC540B680D491D0E0D741D0C4D741D0A8D74CB74130E0B75130C4B75130A6B
:204EA0008B75CA75082301F1100244F4F90141F42051034CA04738BDA47C00206C7C002039
:204EC000C54D00082DE9F04F85B001908B46DFF8E4A0344F344EDFF8E080502383F31188B3
:204EE000D0471BE0002383F311886FF00405284605B0BDE8F08F0120B04705020220B04787
:204F00000544A5F10A09B9F58C7F12D8AC4213DB681EB047F92815D00120C047B84704462C
:204F20000328DFDD0020B047F828E4D00120C047F4E70120C047F1E7002383F311886FF00B
:204F40000405D4E7062202A90120184CA0479DF80A309DF80B2042EA03229DF80C3043EA70
:204F600002229DF80D3043EA0223019A1360A5F1080259460720A0472846C047002383F380
:204F800011880A3D2B465A46062102A8084CA0470BEB09031BF809205B7843EA02239842D7
:204FA0009BD1A4E75D3000086930000891300008DD240008552A0008D93000082DE9F04F05
:204FC0008BB005460391BE4B1B5CDB0503F0FC5343F4F90343F4C05305930B89C9888B424E
:204FE0003DD2C91A0123984618468B4206D000FA03F248EA02080133102BF6D10398026856
:20500000B04B110E1974110C5974110A9974DA740289110A19755A7503230493DFF8F89268
:20502000DFF8F8A24FEA1863A64A93754FEA1843D3754FEA1823137682F819800A231032F8
:2050400005992846A04CA0470028C0F28081D9F80060002E08BF0126DFF8C4B216E04FF0C7
:205060000008CBE74FF48C72214609A8974B984743E001469648974B98476FF010003CE0C8
:205080006FF0040039E00120934B9847D9F80030002B08BF01239B1BB3F5FA6F80F24481A1
:2050A000DAF80040022DDDD0032D40F0C5800DF11E03009308AB4FF48E72211FDBF80000A2
:2050C000864FB8470428DBDD0028D2DB844B089A1A60844BBDF81E201A8014F8043C14F8A4
:2050E000032C42EA032214F8023C43EA022214F8013C43EA02230993043810F1050FC2D07B
:205100000028C0F29780099BC3F3C5523E2ABDD1C3F30723A02BB9D1B0F5847FB6D1D9F802
:205120000060002E08BF0126DAF800000178437843EA0123817841EA0323C17841EA0321CA
:20514000039B1B688B4240F081800379417941EA0321039B1A898A427CD802F11003994269
:2051600078DA8F1A0124BC4018EA040F76D000F108035D4A02EB072200F5847013F8011BEF
:2051800002F8011F9842F9D138EA04087FF47EAF039A1389D76807EB032707F17843B3F594
:2051A000804F5FD3A3F58043B3F5804F78D307F17843A3F50043B3F5804F73D307F17843D3
:2051C000A3F54043B3F5804F6ED307F1774303F57F03B3F5803F69D307F1774303F57E0302
:2051E000B3F5003F64D307F1774303F57C03B3F5003F5FD307F1774303F57A03B3F5003F41
:205200005AD307F1774303F57803B3F5003F55D307F1774303F57603B3F5003FC0F0828071
:2052200007F1774505F57405304B9D4294BF5025582518E0044601E06FF00F0421462C4838
:20524000244B984720460BB0BDE8F08F2948214B98471BE728481F4B984717E727481D4B6F
:20526000984713E70025264B98474FF4806225493846254B98470646244B98473446082E36
:2052800063D033463A4629462148124EB047039B1B89002BD6D1294628461E4B9847D1E7C2
:2052A0000825E0E71025DEE71825DCE72025DAE72825D8E73025D6E73825D4E74025D2E7A6
:2052C000A47C00206C7C0020C54D0008C54E0008347A0008452F000875270008514C0008D6
:2052E000687C00209C7C0020B37C0020FFFF0100587A0008847A0008AC7A0008DC7A0008B8
:2053000071100008B47C0020D511000891100008F47A00081523000858000020B07C0020A3
:20532000A07C002048259EE7049B013B049306D04246039B19890748074B984772E6074808
:20534000054B98476FF078047CE700247AE7044678E700BF187B0008452F0008347B000825
:2053600010B582B001A8134B9847002815DB01991148124B9847002341F62C321946019859
:205380000F4CA047014678B90E4B019A1A600E4B0922DA70084602B010BD01460B48074B5E
:2053A00098474FF0FF31F5E70948044B98474FF0FF31EFE7694C0008AC770008452F00089B
:2053C000394D0008A07C0020A47C002098770008C4770008014B1860704700BFB07C0020E3
:2053E00072B6BFF34F8F0549CA6802F4E062044B1343CB60BFF34F8FFEE700BF00ED00E06C
:205400000400FA052DE9F04705460C4616469A46C96801F17843B3F5804F4DD3A3F5804393
:20542000B3F5804FC0F0958001F17843A3F50043B3F5804FC0F0908001F17843A3F54043A9
:20544000B3F5804FC0F08B8001F1774303F57F03B3F5803FC0F0868001F1774303F57E03B2
:20546000B3F5003FC0F0818001F1774303F57C03B3F5003F7CD301F1774303F57A03B3F572
:20548000003F78D301F1774303F57803B3F5003F74D301F1774303F57603B3F5003F70D3EE
:2054A00001F1774808F57408A54B984594BF4FF050084FF0580801E04FF00008E38801EBED
:2054C000032303F17842043AB2F5804F5CD39D4A1A44B2F5804FC0F0E8809B4A1A44B2F558
:2054E000804FC0F0E580994A1A44B2F5804FC0F0E280974A1A44B2F5803FC0F0DF80954A6C
:205500001A44B2F5003FC0F0DC8003F17842A2F10412B2F5003FC0F0D7808F4A1A44B2F519
:20552000003FC0F0D4808D4A1A44B2F5003FC0F0D1808B4A1A44B2F5003FC0F0CE80894A22
:205540001A447F4B9A4294BF4FF050094FF058091CE04FF00808B1E74FF01008AEE74FF0AE
:205560001808ABE74FF02008A8E74FF02808A5E74FF03008A2E74FF038089FE74FF04008FC
:205580009CE74FF0480899E74FF000094B4642467548764FB84749464046754B9847074696
:2055A000082840F09D80734B002103F5805203F8011B9342FBD110232381E388102B0ED9A9
:2055C0006D4F324621462846B847021EC0F29080238910339BB22381E2889A42F1D80023CF
:2055E0002381324621462846634B9847021EC0F2848062485D4B9847A688E1880902E0683C
:205600005F4B9847864200F0C1805E48574B9847E36803F17842B2F5804F73D3A2F58042D3
:20562000B2F5804F7AD303F17842A2F50042B2F5804F75D303F17842A2F54042B2F5804F25
:2056400070D303F1774202F57F02B2F5803F6BD303F1774202F57E02B2F5003F66D303F107
:20566000774202F57C02B2F5003F61D303F1774202F57A02B2F5003F5CD303F1774202F509
:205680007802B2F5003F57D303F1774202F57602B2F5003F52D303F1774303F574032848CC
:2056A000834294BF502058202DE04FF008096DE74FF010096AE74FF0180967E74FF020097A
:2056C00064E74FF0280961E74FF030095EE74FF038095BE74FF0400958E74FF0480955E7B5
:2056E0006FF0660221462846274B9847A7B980E721462846244B98470EE021462846224BA3
:20570000984709E000200146194B98476FF07702214628461C4B9847BDE8F0870820F2E707
:205720001020F0E71820EEE72020ECE72820EAE73020E8E73820E6E74020E4E74820E2E789
:20574000FFFF0100FCBFFFF7FC7FFFF7FC3FFFF7FCFFFEF7FCFFFDF7FCFFF9F7FCFFF7F744
:20576000FCFFF5F7FCFFF3F794790008452F000815230008B47C0020BD4F0008D0790008D7
:20578000AD240008E8790008794E0008BAF1000F58D0E36853F8042C3C498A4252D0B2F13A
:2057A000FF3F41D003F17842043AB2F5804F58D3374A1A44B2F5804F55D3364A1A44B2F50B
:2057C000804F52D3344A1A44B2F5804F4FD3334A1A44B2F5803F4CD3314A1A44B2F5003F42
:2057E00049D303F17842A2F10412B2F5003F44D32C4A1A44B2F5003F41D32B4A1A44B2F5F1
:20580000003F3ED3294A1A44B2F5003F3BD328481844284B984294BF502058200146264B67
:2058200098472648264B9847264B9847E06817490438254B98470646244B984731462448CB
:205840001F4B984723481E4B98470A20224EB047002221462846214B98476420B047204B93
:2058600098470020DAE70820D8E71020D6E71820D4E72020D2E72820D0E73020CEE738204C
:20588000CCE74020CAE74820C8E700BF99887766FCBFFFF7FC7FFFF7FC3FFFF7FCFFFEF72D
:2058A000FCFFFDF7FCFFF9F7FCFFF7F7FCFFF5F7FCFFF3F7FFFF010015230008F4790008A5
:2058C000452F0008711000089111000891100008087A00081C7A000875270008794E0008D5
:2058E000E153000870B584B01D46C1F3072313F007012FD10646144603F0F803B02B54D034
:205900002DDDC82B5BD0F82B27D190231370012262701023A3700023E370227134226271A1
:205920006222A2718E22E271237220236372484B195CC90501F0FC510A23224641F4F90148
:2059400041F40061434CA047011E06DA4248434B984702E04248414B984704B070BD902BD2
:20596000FBD140483D4B9847082D63D12178637843EA0123A17841EA0323E17841EA03212C
:2059800000912279637943EA0223ADF80630A279E37943EA0223ADF80430334B99424ED0B9
:2059A0001A4632482D4B9847D7E731482B4B984772B6582108462F4B98472F4B98472F4812
:2059C000264B98470C2D29D12378617841EA0323A17841EA0321E37843EA01210091227941
:2059E000637943EA0223ADF80630A279E37943EA0223ADF80430237A627A42EA0322A37A15
:205A000043EA0222E37A43EA02230393164B994209D01A461A48114B98479EE72946194889
:205A20000E4B984799E70023012269463046164CA04792E729461548084B98478DE7144BB0
:205A4000039301230022694630460F4CA04784E7A47C0020C54D000838780008452F00080A
:205A600018780008D878000800100110087900085878000815230008E15300086C7800084C
:205A8000A87800088478000805540008EC780008000001082DE9F04184B01F4D1F4F204E41
:205AA0002C680DF10A03009303AB4FF48E72211F3868B04704282CDD002826DB194B039A8D
:205AC0001A60194BBDF80A201A8014F8042C14F8033C43EA022214F8023C43EA022314F8EF
:205AE000014C44EA0324B0F1040812D4424621460E480F4B984714F4004FD1D043462A68E0
:205B0000214603200B4CA047CAE701460A48084B984704B0BDE8F081B07C0020A07C0020EF
:205B2000514C0008687C00209C7C0020D8770008452F0008E5580008347A000870B582B05F
:205B40000D4C0E4D0E4E4FF48C72216801A8A847031E07DB019911F4004FF4D02268022072
:205B6000B047F0E713F1050F01D102B070BD19460448054B9847F8E7B07C0020C54E00086E
:205B8000E5580008F8770008452F000808B5034E0225034CB0472846A047FBE73D5B00087B
:205BA00075270008F8B500211A481B4DA84700201A4B98471A4B9847044601461948A84731
:205BC0000CB1194B9847194B9847044601461848114B98470CB1144B9847164B9847164BBA
:205BE0001C68002C08BF0124144F154E154DB847B0470220A847104B1B68002B08BF0123E6
:205C00001B1BB3F57A7FF2DB0B4B1C68002C08BF0124ECE734790008452F0008616300081E
:205C2000091D0008687900088D5B0008FD4300088079000861530008580000203D5B000840
:205C4000955A00087527000810B582B00C4B98470C490D480D4CA0470D4B19680D48A0477D
:205C6000662300934FF480530B4A00210B480C4CA047011E00DBFEE70A48044B9847FAE7AA
:205C8000055D0008547B0008687B0008452F000810000010747B0008B48C0020A55B0008DD
:205CA000FD2500088C7B000830B583B001214FF40010104B984702238DF8043001228DF85E
:205CC00006208DF807208DF8053002A94FF4407341F8083D084C2046084B984704220821DE
:205CE0002046074DA847042209212046A84703B030BD00BFC5140008000402402513000890
:205D0000B11300082DE9F04FA3B072B601217F20B24B984700248DF8114001268DF8106034
:205D20008DF813404FF4807303938DF8124003A9AB48AC4FB8474FF48071A948DFF8C492FD
:205D4000C8478DF810608DF8134003968DF8124003A9A548B8473146A348A44DA8478DF898
:205D600010608DF81340042303938DF8124003A99F48B84704219E48A8478DF810608DF841
:205D800013404FF4806303938DF81240DFF8788203A94046B8474FF480614046A8478DF8FD
:205DA00010608DF81340082303938DF8124003A98F48B84708218E48A8478DF810408DF839
:205DC00013404FF40062039203A98548B8478DF810608DF813404FF0020ACDF80CA08DF8B0
:205DE000124003A98348B84731463046824B98470C2221467E48814DA8470C2231467C48C1
:205E0000A8470C2204217A48A8470C2205217848A8470C2207217648A8470C220E21744870
:205E2000A8470C220F217248A8470C2221467148A8470C2207216F48A8470C2208216D4827
:205E4000A8470C2209216B48A8470C220A216948A8470C2221464046A8470C22314640462B
:205E6000A8470C2251464046A8470C2203214046A8470C2204214046A8470C220521404690
:205E8000A8470C2211464046A8470C220D214046A8470C220E214046A8470C220F21404692
:205EA000A8470C2221464E48A8470C2231464C48A8470C2251464A48A8470C220321484889
:205EC000A8470C2204214648A8470C2205214448A8478DF850A08DF851A08DF852408DF8AD
:205EE000534022AA4CF2B30342F83C3D934611463F48B84740F28173139359463D48B847F7
:205F00004FF23F03139359464046B8474FF03F08CDF84C8059463248B8470F2205920696A1
:205F20004F230793089409940A944FF040530B930C920D96CDF838800F94109411941293BF
:205F400013941494082115911694179418944FF4007319931A944FF400611B914FF48051AE
:205F60001C911D944FF480411E911F940DF11408CDF880800CAB2193CDF804B05846DFF825
:205F80008CB0D847314620461D4A9047042105910696079108940994CDF828A00B94062110
:205FA0001391149404211591102116911794189419941A941B944FF480511C911D941E946D
:205FC0001F94CDF88080CDF884800198D847314606200B4A904731461AE000BF8D14000826
:205FE000001802402513000800000240AD130008000C024000100240A9140008B1130008CC
:020000040800F2
:20600000FD120008A913000800140240351200081020DFF80883C0478DF850A08DF85240DB
:206020008DF853608DF851404FF4C06313930199B248B84707220921B048A84707220A21E5
:20604000AE48A84731464FF48020DFF8D4B2D8478DF850A08DF852408DF853608DF85140AB
:206060004FF4407313930199A548B84707220821A348A84707220921A148A8478DF8506072
:206080008DF853404FF4806213928DF8524001999B48B8474FF480619948C84731462020C0
:2060A000C0478DF850A08DF852408DF853608DF851404FF0C008CDF84C8001999148B847F5
:2060C000082206218F48A847082207218D48A8478DF850608DF853404FF4807213928DF8E7
:2060E000524001998748B8474FF480718548C84731464FF40020D8478DF850A08DF8524011
:206100008DF853608DF851404FF44063139301997C48B84708220A217A48A84708220B21EC
:206120007848A8478DF850608DF85340042213928DF8524001997448B84704217248C8473E
:20614000724B984731464FF40040D8478DF850A08DF852408DF853608DF8514018231393CF
:2061600001996B48B8474FF48052139201996548B847062203216648A847062204216448F1
:20618000A84706220C215F48A8478DF850608DF853404FF4004213928DF85240019957485E
:2061A000B84701995B48B8474FF48042139201995848B8474FF40052139201995148B84755
:2061C0004FF400414D48C8474FF400415148524B98478DF850608DF853404FF44053139335
:2061E0008DF8524001994B48B8474FF480514948C8474FF400514748474B984731464FF45A
:206200008040D8478DF850A08DF852408DF853608DF851400C23139301993A48B8474FF492
:206220008063139301993A48B847052251463548A847052203213348A84705220A2134480D
:20624000A8478DF850608DF853404BF6780313938DF8524001992C48B8474FF460531393E0
:2062600001992748B847CDF84C80DDF8048041462848B84720212448C84720212248C847C0
:2062800020212148C84740211F48C84740211E48C8474FF400611A48C8474FF4805118480F
:2062A000C8474FF400511648C84731464FF48050D8478DF850A08DF852408DF853608DF8DC
:2062C00051406023139341460C48B8472023139341460F48B847052211460848A847052280
:2062E00006210648A847052211460948A8478DF850608DF853404023139313E000000240F1
:20630000000C02400008024000100240A95C00080004024000180240AD130008E114000821
:20632000C51400088DF85240094D13A92846B84740212846C847074B9847074B98474FF463
:20634000E130064B984762B6204623B0BDE8F08F00040240BD250008B1220008592D0008EE
:2063600008B50248024B984708BD00BFC49C0020D553000808B5014B984708BD714200084E
:2063800008B5014B984708BDD93D0008F8B5394B1B683948022202700022427082701A0C7B
:2063A000C2701A0A027143713449354B9847054608B12846F8BD314C01232360314BE3607A
:2063C0006FF07F43236103F5D433C13363612E4A2E492F482F4B98472F4BA3612F4BE36166
:2063E000382384F8323084F8333040F2DC53238500236360062384F82B301F4B1A7884F81E
:206400002C205A7884F82D209A7884F82E20DA7884F82F201A7984F830205B7984F831308C
:20642000B22384F82A304FF0FF311D481D4B98471D4B1A6862601C601C4B1B68B3B11848C0
:206440001B4EB0470D4C4FF0FF312046154FB847164B1C602046B0474FF0FF312046B8473D
:206460002046144B98472046B047A2E70F4B1C60E5E700BF107AFF1FD4A40020DCA4002051
:20648000C5400008C0A801090101A8C00901A8C0A87B0008452F0008B53200089D3C00082A
:2064A0005C7C002049280008587C0020547C0020C5280008C944000881F0004102E000BF2A
:2064C00083F0004330B54FEA41044FEA430594EA050F08BF90EA020F1FBF54EA000C55EAD7
:2064E000020C7FEA645C7FEA655C00F0E2804FEA5454D4EB5555B8BF6D420CDD2C4480EAB6
:20650000020281EA030382EA000083EA010180EA020281EA0303362D88BF30BD11F0004F65
:206520004FEA01314FF4801C4CEA113102D0404261EB410113F0004F4FEA03334CEA13337A
:2065400002D0524263EB430394EA050F00F0A780A4F10104D5F1200E0DDB02FA0EFC22FA00
:2065600005F2801841F1000103FA0EF2801843FA05F359410EE0A5F120050EF1200E012AF4
:2065800003FA0EFC28BF4CF0020C43FA05F3C01851EBE37101F0004507D54FF0000EDCF1FA
:2065A000000C7EEB00006EEB0101B1F5801F1BD3B1F5001F0CD349085FEA30004FEA3C0CE9
:2065C00004F101044FEA445212F5800F80F09A80BCF1004F08BF5FEA500C50F1000041EBFD
:2065E000045141EA050130BD5FEA4C0C404141EB010111F4801FA4F10104E9D191F0000F50
:2066000004BF01460020B1FA81F308BF2033A3F10B03B3F120020CDA0C3208DD02F1140C93
:20662000C2F10C0201FA0CF021FA02F10CE002F11402D8BFC2F1200C01FA02F120FA0CFC19
:20664000DCBF41EA0C019040E41AA2BF01EB0451294330BD6FEA04041F3C1CDA0C340EDCC2
:2066600004F11404C4F1200220FA04F001FA02F340EA030021FA04F345EA030130BDC4F124
:206680000C04C4F1200220FA02F001FA04F340EA0300294630BD21FA04F0294630BD94F09D
:2066A000000F83F4801306BF81F480110134013D4EE77FEA645C18BF7FEA655C29D094EAAD
:2066C000050F08BF90EA020F05D054EA000C04BF1946104630BD91EA030F1EBF0021002025
:2066E00030BD5FEA545C05D14000494128BF41F0004130BD14F580043CBF01F5801130BDD2
:2067000001F0004545F0FE4141F470014FF0000030BD7FEA645C1ABF194610467FEA655C1C
:206720001CBF0B46024650EA013406BF52EA033591EA030F41F4002130BD00BF90F0000F1F
:2067400004BF0021704730B54FF4806404F132044FF000054FF0000150E700BF90F0000F5E
:2067600004BF0021704730B54FF4806404F1320410F0004548BF40424FF000013EE700BF55
:2067800042004FEAE2014FEA31014FEA02701FBF12F07F4393F07F4F81F06051704732F097
:2067A0007F4208BF704793F07F4F04BF41F40021704730B54FF4607401F0004521F00041F5
:2067C0001CE700BF50EA010208BF704730B54FF000050AE050EA010208BF704730B511F088
:2067E000004502D5404261EB41014FF4806404F132045FEA915C3FF4D8AE4FF003025FEA9F
:20680000DC0C18BF03325FEADC0C18BF033202EBDC02C2F1200300FA03FC20FA02F001FAA6
:2068200003FE40EA0E0021FA02F11444BDE600BF70B54FF0FF0C4CF4E06C1CEA11541DBF15
:206840001CEA135594EA0C0F95EA0C0F00F0DEF82C4481EA030621EA4C5123EA4C5350EA5F
:20686000013518BF52EA033541F4801143F4801338D0A0FB02CE4FF00005E1FB02E506F097
:206880000042E0FB03E54FF00006E1FB03569CF0000F18BF4EF0010EA4F1FF04B6F5007FF8
:2068A00064F5407404D25FEA4E0E6D4146EB060642EAC62141EA55514FEAC52040EA5E508B
:2068C0004FEACE2EB4F1FD0C88BFBCF5E06F1ED8BEF1004F08BF5FEA500E50F1000041EBBF
:2068E000045170BD06F0004646EA010140EA020081EA0301B4EB5C04C2BFD4EB0C0541EA92
:20690000045170BD41F480114FF0000E013C00F3AB8014F1360FDEBF002001F0004170BD21
