:020000040801F1
:10000000D07F0010E104010889010108890101087D
:100010008901010889010108890101080000000027
:100020000010011003F8A259000000008901010826
:10003000890101080000000049180108D5130108D2
:100040008901010889010108890101088901010864
:100050008901010889010108890101088901010854
:100060008901010889010108890101088901010844
:100070005922010821280108BD210108892701080A
:100080008901010889010108890101088901010824
:100090008901010889010108890101088901010814
:1000A0008901010889010108890101088901010804
:1000B00081050108BD050108F9050108253201087F
:1000C000A931010889010108890101088901010894
:1000D00089010108890101088901010889010108D4
:1000E00089010108890101088901010889010108C4
:1000F00089010108890101088901010889010108B4
:1001000089010108890101083506010889010108F2
:100110008901010889010108890101088901010893
:100120008901010889010108ED2D010889010108F3
:100130008901010889010108890101088901010873
:100140008901010889010108890101088901010863
:10015000711B0108512D0108DD1A010889010108F0
:100160008901010889010108890101088901010843
:100170008901010889010108890101088901010833
:100180008901010889010108FEE7000010B5054C4E
:10019000237833B9044B13B10448AFF30080012333
:1001A000237010BD00000020000000008C530108E7
:1001B00008B5034B1BB103490348AFF3008008BDEA
:1001C00000000000040000208C53010808B54FF423
:1001D00080610248024B9847002008BD000C024095
:1001E0005703010808B54FF480710248024B984745
:1001F000002008BD000802405703010808B504218B
:100200000248034B9847002008BD00BF0010024081
:1002100057030108074B084A1A6200225A629B6A78
:1002200040F69F71D9625A621A8842F001021A8020
:10023000704700BF1C000020CD01010808B54FF435
:1002400080610248024B984708BD00BF000C024085
:100250005B030108074B084A1A6300225A639B6B31
:1002600040F69F71D9625A621A8842F001021A80E0
:10027000704700BF1C000020E501010808B54FF4DD
:1002800080710248024B984708BD00BF0008024039
:100290005B030108074B084A1A6500225A659B6DEB
:1002A00040F69F71D9625A621A8842F001021A80A0
:1002B000704700BF1C000020FD01010808B50421A3
:1002C0000148024B984708BD001002405B0301083B
:1002D0007047F0B40023012503260DE0C26806FA3A
:1002E00007F422EA0402C260C468CA79BA40224311
:1002F000C2600133102B2CD005FA03F20C68A24324
:10030000F7D104685F0006FA07F2D2431440046094
:10031000D0F800C00C79BC4044EA0C0404600C79AD
:10032000013CE4B2012CD9D8846822408260846800
:100330004A79BA4022438260426805FA03F422EA0D
:100340000402426044688A799A4092B22243426031
:10035000C4E7F0BC7047018370474183704710B415
:1003600001F007039B00C90800EB8100016A0F241C
:100370009C4021EA04010162016A9A400A43026238
:1003800010BC704710B4284B9B6803F00C03042B7F
:1003900022D0082B23D013B1244B036001E0234B60
:1003A0000360214CA368C3F303132149CB5CDAB289
:1003B0000368D3404360A268C2F382228A5CD2B24F
:1003C00023FA02F28260A268C2F342328A5CD2B29D
:1003D000D340C36010BC7047164B0360E1E7124B7B
:1003E00059685A6802F03F0211F4800F11D0596821
:1003F000C1F388110F4BB3FBF2F303FB01F30A4A7D
:100400005268C2F3014201325200B3FBF2F30360BF
:10041000C7E7054B5968C1F38811044BB3FBF2F3EE
:1004200003FB01F3EBE700BF003802400024F400B7
:100430000000001000127A0029B9054A136B23EA64
:10044000000010637047024A136B18431063704733
:100450000038024029B9054A936B23EA00009063F3
:100460007047024A936B184390637047003802400C
:1004700029B9054A136C23EA000010647047024A48
:10048000136C1843106470470038024029B9054ABC
:10049000536C23EA000050647047024A536C1843BF
:1004A000506470470038024029B9054A136A23EAAC
:1004B000000010627047024A136A184310627047C6
:1004C0000038024029B9054A536A23EA0000506205
:1004D0007047024A536A184350627047003802401E
:1004E00008B51B4B98471B4A1B4B9A420DD2194A21
:1004F000111D1A4B5B1A23F003030B44184951F8E2
:10050000040B42F8040B9A42F9D1164A164B9A4250
:100510000BD2144A111D154B5B1A23F003030B4435
:10052000002142F8041B9A42FBD1114A114B9A60F8
:10053000ADF5007383F309884FF0020282F314884B
:10054000BFF36F8F0C4B98470C4B9847FEE700BFEB
:10055000E9120108000000104404001047040010D4
:100560008C53010800000020BD370020C037002058
:100570000000010800ED00E05151010845080108A4
:1005800008B50D4B9A6A4FF6FE7111821B6A6BB16A
:10059000094A506A984750B9074B00221A629A6A72
:1005A000138823F001031B041B0C138008BD024BAE
:1005B0009B6A00225A62F9E71C00002008B50D4B27
:1005C0009A6B4FF6FE7111821B6B6BB1094A506B2F
:1005D000984750B9074B00221A639A6B138823F08F
:1005E00001031B041B0C138008BD024B9B6B0022F4
:1005F0005A62F9E71C00002008B50D4B9A6C4FF6C3
:10060000FE7111821B6C6BB1094A506C984750B94E
:10061000074B00221A649A6C138823F001031B0411
:100620001B0C138008BD024B9B6C00225A62F9E739
:100630001C00002008B50D4B9A6D4FF6FE7111821B
:100640001B6D6BB1094A506D984750B9074B00229A
:100650001A659A6D138823F001031B041B0C138089
:1006600008BD024B9B6D00225A62F9E71C00002076
:1006700070B584B005465F4A0301D0180024D450F9
:100680000173AB1E0C2B00F2B380DFE803F00744CC
:100690004D565F68B1717C87929CA600554B4FF018
:1006A00080429A6201210846534B98471C24514EC0
:1006B00006EB0516B5682846504B98474FF4FA6389
:1006C00002935323ADF804300023ADF80C30ADF89D
:1006D000063001A928464A4B984701212846494B34
:1006E000984701212846484B984701221146284641
:1006F000464B9847337B1B01DBB2454A111981F801
:100700000033630904F01F04012000FA04F442F8E6
:10071000234004B070BD374B3E4A9A63012102204A
:10072000354B98471D24C2E7324B3B4A9A6401215E
:100730000420314B98471E24B9E72E4B374A9A655F
:10074000012108202C4B98473224B0E7294B344A2A
:100750009A6601211020284B98473624A7E7254B9D
:10076000304A9A6701212020234B984737249EE77F
:10077000204B2D4AC3F8982001214FF480302B4B99
:100780009847182493E71B4B294AC3F8A820012156
:100790004FF40030254B9847192488E7154B254A1C
:1007A000C3F8B82001214FF48020204B98471A2429
:1007B0007DE7104B204AC3F8C820012140200E4B92
:1007C00098472B2473E70B4B1C4AC3F8D820012110
:1007D0008020094B98472C2469E7064B184AC3F838
:1007E000E82001214FF48070034B98472D245EE7E9
:1007F00000208EE71C00002071040108A5100108EC
:1008000029120108B1120108DF120108CB120108F8
:1008100000E100E00004004000080040000C00403F
:100820000010004000140040004001408D04010809
:10083000004401400048014000180040001C0040F6
:100840000020004010B582B00C4B98470C490D4871
:100850000D4CA0470D4B19680D48A0476623009327
:100860004FF480530B4A00210B480C4CA047011E4B
:1008700000DBFEE70A48044B9847FAE70109010844
:10088000B4520108C4520108551E0108100000109E
:10089000D05201080C010020D10201080D150108F9
:1008A000E852010830B583B001214FF40010104B1D
:1008B000984702238DF8043001228DF806208DF828
:1008C00007208DF8053002A94FF4407341F8083D28
:1008D000084C2046084B9847042208212046074D23
:1008E000A847042209212046A84703B030BD00BF15
:1008F0007104010800040240D30201085F030108EB
:100900002DE9F04FA3B072B601217F20B24B98477A
:1009100000248DF8114001268DF810608DF81340E9
:100920004FF4807303938DF8124003A9AB48AC4F8A
:10093000B8474FF48071A948DFF8C492C8478DF8D2
:1009400010608DF8134003968DF8124003A9A54856
:10095000B8473146A348A44DA8478DF810608DF8DC
:100960001340C02303938DF81240DFF8988203A947
:100970004046B84740214046C8478DF810608DF882
:100980001340042303938DF8124003A99748B847F6
:1009900004219648A8478DF810608DF813404FF455
:1009A000806303938DF8124003A94046B8474FF483
:1009B00080614046A8478DF810608DF813400823E9
:1009C00003938DF8124003A98848B8470821874847
:1009D000A8478DF810408DF813404FF40062039241
:1009E00003A97E48B8478DF810608DF813404FF08A
:1009F000020ACDF80CA08DF8124003A97C48B84734
:100A0000314630467B4B98470C22214677487A4D39
:100A1000A8470C2231467548A8470C220421734888
:100A2000A8470C2205217148A8470C2207216F48CE
:100A3000A8470C220E216D48A8470C220F216B48B5
:100A4000A8470C2221466A48A8470C22072168487B
:100A5000A8470C2208216648A8470C2209216448AF
:100A6000A8470C220A216248A8470C22214640468A
:100A7000A8470C2231464046A8470C225146404622
:100A8000A8470C2203214046A8470C2204214046D7
:100A9000A8470C2205214046A8470C221146404693
:100AA000A8470C220D214046A8470C220E214046A3
:100AB000A8470C220F214046A8470C222146474850
:100AC000A8470C2231464548A8470C2251464348C6
:100AD000A8470C2203214148A8470C2204213F4883
:100AE000A8470C2205213D48A8478DF850A08DF855
:100AF00051A08DF852408DF8534022AA4CF2B30316
:100B000042F83C3D934611463848B84740F281735D
:100B1000139359463648B8474FF23F03139359464B
:100B20004046B8474FF03F08CDF84C8059462B4817
:100B3000B8470F22059206964F230793089409940D
:100B40000A944FF040530B930C920D96CDF83880D9
:100B50000F941094119412931394149408211591E6
:100B60001694179418944FF4007319931A944FF431
:100B700000611B914FF480511C911D944FF48041F2
:100B80001E911F940DF11408CDF880800CAB2193B9
:100B9000CDF804B05846DFF870B0D847314620464B
:100BA000164A9047042105910696079108940994E6
:100BB000CDF828A00B9406211391149404211591CB
:100BC000102116911794189419941A941B944FF4A9
:100BD00080511C911D9419E039040108001802404D
:100BE000D3020108000002405B030108000C024030
:100BF00000100240550401085F0301087D10010840
:100C00005703010800140240B50F01081E941F94F9
:100C1000CDF88080CDF884800198D84731460620F1
:100C2000B74A904731461020DFF8F882C0478DF868
:100C300050A08DF852408DF853608DF851404FF41C
:100C4000C06313930199AF48B84707220921AD4803
:100C5000A84707220A21AB48A84731464FF4802015
:100C6000DFF8C4B2D8478DF850A08DF852408DF807
:100C700053608DF851404FF4407313930199A2488B
:100C8000B84707220821A048A847072209219E4803
:100C9000A8478DF850608DF853404FF4806213924E
:100CA0008DF8524001999848B8474FF480619648B2
:100CB000C84731462020C0478DF850A08DF85240DB
:100CC0008DF853608DF85140C0221392DFF85C829A
:100CD00001994046B847082206214046A847082205
:100CE00007214046A8478DF850608DF853404FF4D7
:100CF000807213928DF8524001994046B8474FF4E4
:100D000080714046C84731464FF40020D8478DF8DF
:100D100050A08DF852408DF853608DF851404FF43B
:100D20004063139301994046B84708220A21404680
:100D3000A84708220B214046A8478DF850608DF83F
:100D40005340042213928DF8524001996F48B847DE
:100D500004216E48C8476E4B984731464FF4004017
:100D6000D8478DF850A08DF852408DF853608DF81B
:100D700051401823139301996648B8474FF48052A5
:100D8000139201994046B847062203216148A847BB
:100D9000062204215F48A84706220C214046A847A6
:100DA0008DF850608DF853404FF4004213928DF847
:100DB000524001995348B84701995748B8474FF4F2
:100DC0008042139201995448B8474FF4005213924D
:100DD00001994046B8474FF400414A48C8474FF48C
:100DE00000414D484D4B98478DF850608DF8534069
:100DF0004FF4405313938DF8524001994648B84739
:100E00004FF480514448C8474FF400514248434B87
:100E1000984731464FF48040D8478DF850A08DF860
:100E200052408DF853608DF851400C231393019973
:100E30004046B8474FF48063139301993548B8474B
:100E4000052251464046A847052203214046A847AF
:100E500005220A212F48A8478DF850608DF853408D
:100E60004BF6780313938DF85240019D294627488D
:100E7000B8474FF46053139329462348B847C0231B
:100E8000139329462448B84720212048C8472021E9
:100E90001E48C84720211D48C84740211B48C84755
:100EA00040211A48C8474FF400611748C8474FF41B
:100EB00080511548C8474FF400511348C847314680
:100EC0004FF48050D8478DF850A08DF852408DF8DF
:100ED00053608DF851406023139329460948B84761
:100EE0002023139329460B48B8470522114605488D
:100EF0000B4CA047052206210248A04718E000BF7E
:100F00007D10010800000240000C02400010024069
:100F1000A508010800040240001802405B03010814
:100F20005F0301088D0401087104010800080240F4
:100F3000174D052211462846A0478DF85060002421
:100F40008DF85340402613968DF8524013A9284639
:100F5000B84731462846C8470E4B98470E4B98472E
:100F60004FF4E1300D4B98474FF416500C4B984717
:100F70004FF416500B4B98474FF496400A4B984746
:100F80000A480B4B984762B6204623B0BDE8F08F65
:100F900000040240CD14010809140108691C01086D
:100FA00051230108E52E010819290108801A0600BD
:100FB0005933010810B40268436881680B43C16863
:100FC0000B4301690B4341690B4381690B43C169C1
:100FD0000B43016A0B43416A0B43816A0B43C16AAD
:100FE0000B43016B0B434FF0204141F822308368E3
:100FF000082B24D0426B01680131136894692343A4
:10100000546843EA0413946843EA0423D46843EA27
:101010000443146943EA0453526943EA02634FF0FC
:10102000204242F82130C36AB3F5804F0FD00268E6
:10103000114B6FF0704143F8221010BC70470368E9
:101040009B000B441A6842F040021A60D2E7826BA0
:101050000168136890690343506843EA001390687D
:1010600043EA0023106943EA0053526943EA0263EA
:10107000014A42F82130E0E7040100A039B98000BC
:1010800000F120400268064B134003607047800067
:1010900000F12040036843F001030360704700BF84
:1010A000FEFF0F0010B5514B984230D0B0F1804F89
:1010B00035D04F4B98423AD04E4B98423FD04E4B92
:1010C000984244D04D4B984249D04D4B98424ED017
:1010D0004C4B984253D04C4B984258D04B4B984273
:1010E0005FD04B4B984266D04A4B98426DD04A4BEA
:1010F000984272D0494B984210D101214FF4807030
:10110000474CA04700214FF48070A04706E0012122
:101110000846444CA04700210120A04710BD0121F2
:1011200008463F4CA04700210120A047F6E70121D7
:1011300002203B4CA04700210220A047EEE70121FE
:101140000420374CA04700210420A047E6E70121F6
:101150000820334CA04700210820A047DEE70121EA
:1011600010202F4CA04700211020A047D6E70121D6
:1011700020202B4CA04700212020A047CEE70121B2
:101180000220284CA04700210220A047C6E70121E9
:101190004FF48030234CA04700214FF48030A0470B
:1011A000BCE701214FF400301E4CA04700214FF452
:1011B0000030A047B2E701214FF48020194CA0472E
:1011C00000214FF48020A047A8E701214020144CC3
:1011D000A04700214020A047A0E701218020104C1B
:1011E000A04700218020A04798E700BF00000140F1
:1011F0000004004000080040000C004000100040C7
:10120000001400400004014000400140004401403F
:101210000048014000180040001C00400020004031
:10122000A9040108C504010803889BB21E4A904224
:1012300012D002F5806290420ED0B0F1804F0BD0F8
:10124000A2F58032904207D002F58062904203D02E
:1012500002F58062904203D123F070034A88134361
:10126000124A90421AD002F58062904216D023F4BE
:1012700040739BB20A89134303804B68C3620B8897
:101280000385094B984204D18B7A0386012383821C
:10129000704703F580639842F6D0F7E703804B6808
:1012A000C3620B880385F1E7000001400010004095
:1012B00031B9038823F080031B041B0C03807047A3
:1012C000038843F080030380704722B9838923EAAF
:1012D0000101818170478389194381817047C94326
:1012E00089B201827047000082B0354B1A6842F023
:1012F00001021A60002199601A6822F0847222F4B7
:1013000080321A602F4A5A601A6822F480221A60CA
:10131000D960009101911A6842F480321A601A462D
:1013200049F69911136803F400330193009B0133CC
:101330000093019B13B9009B8B42F3D1204B1B6898
:1013400013F4003F14BF012300230193019B012BE1
:1013500001D002B070471A4B1A6C42F080521A64E6
:1013600019490A6842F480420A609A689A609A6849
:1013700042F400429A609A6842F4A0529A60134A7A
:101380005A601A6842F080721A601A46136813F0A5
:10139000007FFBD00E4B40F205621A60A3F580631C
:1013A0009A6822F003029A609A6842F002029A60F8
:1013B0001A46936803F00C03082BFAD1C9E700BF63
:1013C00000380240103000240070004008544007EC
:1013D000003C0240084B1B6813F4803F0BD0074AC7
:1013E000136801331360064B4AF6AA221A60054BB4
:1013F0004FF080525A60704710E000E00C1100205E
:101400000030004000ED00E000B585B06846144BA8
:101410009847019B134AA2FB03235B0A013B124A34
:10142000536000239360114BE02183F823100723BE
:1014300013606FF004000E4B984745F255500D4B6A
:10144000984703200C4B98474FF496700B4B9847E6
:101450000B4B98470B4B984705B05DF804FB00BF5A
:1014600085030108D34D621010E000E000ED00E0BC
:10147000454001081D44010829440108354401087C
:101480004144010851440108044B1B681844034AB5
:1014900013681B1A002BFBDB704700BF0C110020E8
:1014A00008B5C36800699847F02383F31188054B9A
:1014B0001A6800239361044A4FF08051516083F30E
:1014C000118808BD7012002000ED00E00C4A0D4BA1
:1014D0001360116801208861116800224A615A6412
:1014E0001A67C3F89C20C3F8C820C3F8F420C3F8D7
:1014F0002021C3F84C21044BF02283F822207047AE
:10150000701200201011002000ED00E012F0030F17
:1015100040F0A7808446FF2B40F2A5802DE9F041E2
:10152000F02080F311885148406C60B14F4C02208C
:10153000256F4DB101302C340828F9D1002383F3F5
:1015400011884B488BE00120484D2C2404FB00F40B
:1015500005EB040E0828F1D0464E1660A3F1800674
:10156000042E0DD9161DA3F1850727F0030702F1FC
:10157000080847444FF0FF3846F8048BBE42FBD1C1
:10158000CEF80420CEF808301A44131F2B514FF028
:10159000807342F8043C2B591A1F2A51364A43F8EB
:1015A000042C2A59131F2B51002342F8043C2A59BA
:1015B000161F2E5142F8043C2A59161F2E5142F88C
:1015C000043C2A59161F2E5142F8043C2A59161F72
:1015D0002E5142F8043C2A59161F2E5142F804ECB1
:1015E0002A59161F2E516FF0020642F8046C2A5930
:1015F000161F2E5142F8043C2A59161F2E5142F84C
:10160000043C2A59161F2E5142F8043C2A59161F31
:101610002E5142F8043C2A59161F2E5142F8043C20
:101620002A59161F2E5142F8043C2A59161F2E51D2
:1016300042F8043C2A59161F2E5142F8043CCEF8B9
:101640000CC0CEF810100122CEF81820069ACEF861
:101650001420CEF82030CEF8243083F31188BDE872
:10166000F081064870470648704700BF10110020FF
:10167000F4ADFFFF01F65AA5A1140108F3ADFFFF79
:10168000F2ADFFFF08B5F02383F31188002815DBC6
:101690000F4B1A680F4B9A4214D00D4B1B68022255
:1016A0009A610D4B1B68002B08BF0123084A126882
:1016B00018445062094B4FF080525A60002383F364
:1016C000118808BD002383F31188054B9847F8E77C
:1016D00070120020101100200C11002000ED00E01D
:1016E00089140108F0B51A4B0027BC46012419489B
:1016F00025464FF0030E19E012F0020F0FD00268DA
:10170000002A08BF01220E6D921B002A07DB4D64E0
:101710004D650A6CBA42C4BF1746A44602E04A6C43
:10172000012AF6D001342C33082C0CD019465A6CFF
:1017300012F0080FE0D09E6C3668002EDCD05D649D
:10174000C3F854E0E5E7024B2C2000FB0C30F0BD61
:10175000101100200C110020F02383F3118803687E
:10176000002B05DD013B0360002080F311887047EA
:1017700019B310B4013B03600029CCBF0624042434
:10178000104B1A6894611B6818620F4B1B68002B82
:1017900008BF01230B4A1068194441620B4B4FF0FC
:1017A00080515960002383F3118813689B6A022BD0
:1017B000074808BF002010BC7047002383F311883E
:1017C00003487047701200200C11002000ED00E06B
:1017D000F8ADFFFFF02383F3118803680133036042
:1017E000002B03DD002383F31188704770B4134B83
:1017F00000263546012203E001322C33082A0CD0A2
:10180000596811F0040FF7D0D9688142F4D11968F2
:10181000B142C4BF0E461546EEE7094B2C2202FB2F
:10182000053301229A6102229A62064B4FF08052E0
:101830005A60002383F3118870BC70475011002058
:101840001011002000ED00E000B5FFF74BFF5DF840
:1018500004EB084A116888420AD01060EFF309834C
:1018600023E9F04F0B600368B3E8F04F83F3098876
:101870007047704770120020502383F3118870471F
:10188000002383F3118870472DE9F84307460E467D
:101890004FF0FF312C482D4B9847002E4FDD2C4C3C
:1018A000DFF8BC904FF0000807E088F31188002DA6
:1018B00041DD2F44761B002E41DD502383F3118838
:1018C000A2886188551AB542A8BF354623880B44C3
:1018D0009A42D8BF9B1A002D0DDD7A1E02EB050C33
:1018E00012F8010FA168C8540133A1888B42A8BF28
:1018F00000236245F4D163882B449BB26380002BA4
:10190000D3D0E388002BD0D141464846114B9847AD
:101910002288A3681344C9F80C306388A1889818FA
:101920008842C8BF8B1AC9F80430E38001214846B9
:10193000084B9847B9E70220074B9847BBE7024896
:10194000064B9847BDE8F883941B002059170108FF
:10195000841200200D42010885160108D5170108E0
:10196000B8640240F0B4344B5968C1F180011B687F
:1019700013F4002F31D0314B1B681BB1304B1C6866
:101980008C4201DBF0BC70472E4A908855880B1BB7
:10199000471B9F42A8BF1F4613882B449842D8BFBD
:1019A0001B1A002F12DD284804F17F0202447F3009
:1019B00020443844234C12F8016FA568EE540133DB
:1019C000A588AB42A8BF00239042F4D11D4A53889A
:1019D0003B4453801A4B1960D4E7184B1868002811
:1019E000D0D1174B1C688C42CCDA164A95885688A1
:1019F0000F1BAB1B9F42A8BF1F46138833449D4259
:101A0000D8BF5B1B002F0FDD0F4A224402EB070CEF
:101A10000C4C12F8016BA568EE540133A588AB425B
:101A2000A8BF03466245F4D1064B5A8817445F802D
:101A3000034B1960A6E700BF8864024074120020BF
:101A400090130020781200209012002070B50646F6
:101A50000C46502383F31188104B9847104B58883D
:101A6000A042A8BF20461B8800280EDD721E064437
:101A7000013E0B4CA568ED5C02F8015F0133A588BF
:101A8000AB42A8BF0023B242F4D1054A1380538869
:101A90001B1A5380002383F3118870BD6519010858
:101AA000781200202DE9F0410C1E11DD0546094E8B
:101AB0004FF00208084F03E04046B847002C07DD0E
:101AC00021462846B0470028F6DD0544241AF5E7EC
:101AD000BDE8F0814D1A01088516010810B5204AAD
:101AE000D3885288934211DB1D4B00225A801A8002
:101AF0001C4B4FF07462DA60194B5B88BBB9002154
:101B0000174BD9801848194B984710BD002BEFD0C0
:101B100013480188194489B201808088814202D328
:101B2000091A0F480180D31A0D4A5380E0E70E4C82
:101B3000002120460D4B9847094B19889A680A44A2
:101B4000E2605A889B8850189842C8BF5A1A0648C3
:101B50004260034BDA800121044B9847D5E700BF70
:101B60008412002000640240B86402400D42010863
:101B7000F0B4384B4FF47462DA6088331B6813F4A6
:101B8000002F32D0344B196819B9344B18687F28AC
:101B900007DD314B01221A60304B00221A60F0BC85
:101BA00070472F4A94885588C0F18006631B9E4277
:101BB000A8BF1E4613882B449C42D8BF1B1B002E77
:101BC0000EDD284A02449719254812F8015B846803
:101BD000E55401338488A342A8BF0B46BA42F4D12E
:101BE0001F4B5A8816445E80D3E71B4B1B681BB102
:101BF0001A4B18687F2805DD0023174A1360174A1F
:101C00001360CCE7164A91885488C0F180030E1BFC
:101C10009E42A8BF1E46138823449942D8BF5B1A30
:101C2000002E12DD0F4900F17F020A447F3101448A
:101C300031440B4812F8015F8468E554013384880D
:101C4000A342A8BF00238A42F4D1054A53883344F3
:101C50005380D1E7006402407412002090130020EA
:101C600078120020901200202DE9F04F91B05B4BCC
:101C70005B4A9A604FF4006199800024DC805C80AC
:101C80001C80584A584B93609180D48054801480B3
:101C9000564B1C60564B1C60564B1A60564A5A6095
:101CA000564A9A60564ADA60564A1A61564A5A614A
:101CB000564A9A61564B01221A600190ADF80840CD
:101CC000ADF80A40ADF80C40ADF810400C23ADF86B
:101CD0000E3001A94F48504B984701214FF4800026
:101CE0004E4B98474FF0006BCDF804B0DFF84CA195
:101CF000CDF808A003944026049680270597069403
:101D00004FF480630793089409940A944FF40033C6
:101D10000B930C9403230D930E940F94DFF8208102
:101D200040463F4DA84701A94046DFF81891C847F3
:101D3000012210214046DFF81081C047CDF804B0E1
:101D4000CDF808A0DFF804A1CDF80CA00494059705
:101D500006944FF480630793089409940A944FF40F
:101D600000330B930C9403230D930E940F94DFF820
:101D7000E0B05846A84722460AEB07015846294BCF
:101D8000984701215846284B984701A95846C8470B
:101D9000012210215846C047244B502283F82523A6
:101DA0002021596083F846239E6083F84423102243
:101DB0009A600122394617481D4CA047012231463E
:101DC0001448A047012158461A4B98470121114851
:101DD000194B984711B0BDE8F08F00BF8412002066
:101DE000981B002078120020941300207412002009
:101DF0009013002098270020791801088118010805
:101E0000891801084D1A0108A51A01086519010869
:101E1000941B0020001001406144010839040108AE
:101E20005D400108234201083B42010800E100E057
:101E30003F4501080D4201082545010804100140F5
:101E4000B8640240B54101085142010890120020D7
:101E5000886402400FB42DE9F04383B00AAC54F813
:101E6000046B4FF0FF313848384B98470194384D98
:101E7000234632464FF480612846364CA0472B78E3
:101E800073B115F8013F002BFBD1314BED1A002D3A
:101E900052DD2F4F304CDFF8D0904FF0000809E0B2
:101EA0002B4DF2E788F31188002E41DD3744AD1B3E
:101EB000002D41DD502383F31188A2886188561AD2
:101EC000AE42A8BF2E4623880B449A42D8BF9B1A25
:101ED000002E0DDD7A1E02EB060C12F8010FA16830
:101EE000C8540133A1888B42A8BF00239445F4D184
:101EF000638833449BB26380002BD3D0E388002BEC
:101F0000D0D141464846154B98472288A3681344D0
:101F1000C9F80C306388A18898188842C8BF8B1A0A
:101F2000C9F80430E380012148460C4B9847B9E7D3
:101F300002200B4B9847BBE703480A4B984703B076
:101F4000BDE8F04304B07047941B00205917010806
:101F500098230020F5330108841200200D42010867
:101F600085160108D5170108B8640240A02383F341
:101F700011887047002383F3118870472DE9F843D7
:101F80000E1E52DD0746DFF8B480294CDFF8B09012
:101F900008E0002383F311889D4242DD2F44761B25
:101FA000002E42DDC047A02383F31188A2886188F8
:101FB000551AB542A8BF354623880B449A42D8BF6C
:101FC0009B1A002D0DDD7A1E02EB050C12F8010F95
:101FD000A168C8540133A1888B42A8BF002394454F
:101FE000F4D163882B449BB26380002BD1D0E3886B
:101FF000002BCED1002148460E4B98472288A3687B
:102000001344C9F80C306388A18898188842C8BF67
:102010008B1AC9F80430E38001214846054B9847E4
:10202000B7E70220044B9847BAE7BDE8F88300BF42
:10203000C42700200D420108851601083D02010851
:1020400058600240F0B4344B5968C1F180011B68FC
:1020500013F4002F31D0314B1B681BB1304B1C687F
:102060008C4201DBF0BC70472E4A908855880B1BD0
:10207000471B9F42A8BF1F4613882B449842D8BFD6
:102080001B1A002F12DD284804F17F0202447F3022
:1020900020443844234C12F8016FA568EE540133F4
:1020A000A588AB42A8BF00239042F4D11D4A5388B3
:1020B0003B4453801A4B1960D4E7184B186800282A
:1020C000D0D1174B1C688C42CCDA164A95885688BA
:1020D0000F1BAB1B9F42A8BF1F46138833449D4272
:1020E000D8BF5B1B002F0FDD0F4A224402EB070C09
:1020F0000C4C12F8016BA568EE540133A588AB4275
:10210000A8BF03466245F4D1064B5A8817445F8046
:10211000034B1960A6E700BF28600240B4270020E7
:10212000D0280020B8270020D027002070B5064610
:102130000C46A02383F31188104B9847104B588806
:10214000A042A8BF20461B8800280EDD721E064450
:10215000013E0B4CA568ED5C02F8015F0133A588D8
:10216000AB42A8BF0023B242F4D1054A1380538882
:102170001B1A5380002383F3118870BD452001088A
:10218000B82700202DE9F0410C1E11DD0546094E4F
:102190004FF00208084F03E04046B847002C07DD27
:1021A00021462846B0470028F6DD0544241AF5E705
:1021B000BDE8F0812D2101088516010810B5214ADE
:1021C000D3885288934213DB1E4B00225A801A8018
:1021D0001D4B4FF074629A601A4B5B88CBB900219B
:1021E000184BD98019481A4B98471A4B984710BD7D
:1021F000002BEDD013480188194489B201808088F2
:10220000814202D3091A0F480180D31A0D4A538024
:10221000DEE70E4C002120460D4B9847094B1988EC
:102220009A680A44E2605A889B8850189842C8BF4E
:102230005A1A06484260034BDA800121044B984742
:10224000D5E700BFC427002000600240586002406C
:102250000D42010815020108F0B4384B4FF47462C6
:102260009A6028331B6813F4002F32D0344B19685E
:1022700019B9344B18687F2807DD314B01221A60E9
:10228000304B00221A60F0BC70472F4A9488558862
:10229000C0F18006631B9E42A8BF1E4613882B44D4
:1022A0009C42D8BF1B1B002E0EDD284A0244971902
:1022B000254812F8015B8468E55401338488A34201
:1022C000A8BF0B46BA42F4D11F4B5A8816445E8011
:1022D000D3E71B4B1B681BB11A4B18687F2805DD21
:1022E0000023174A1360174A1360CCE7164A9188F7
:1022F0005488C0F180030E1B9E42A8BF1E4613885F
:1023000023449942D8BF5B1A002E12DD0F4900F119
:102310007F020A447F31014431440B4812F8015FC7
:102320008468E55401338488A342A8BF00238A420D
:10233000F4D1054A538833445380D1E7006002400A
:10234000B4270020D0280020B8270020D027002064
:102350002DE9F04F91B00546594B5A4A9A604FF417
:10236000007199800024DC805C801C80564A574BA9
:1023700093609180D48054801480554B1C60554BE1
:102380001C60554B1A60554A5A60554A9A60554A26
:10239000DA60554A1A61554A5A61554A9A610A21CA
:1023A0000220544B98470195ADF80840ADF80A401B
:1023B000ADF80C40ADF810400C23ADF80E3001A97B
:1023C0004D484E4B984701214FF400104C4B984715
:1023D0004FF0006BCDF804B0DFF84CA1CDF808A0A9
:1023E0000394402304938025059506944FF480635D
:1023F0000793089409940A944FF400330B930C94B8
:1024000003270D970E940F943E4E3046DFF81C9133
:10241000C84701A93046DFF81881C04701221021C2
:102420003046394EB047CDF804B0CDF808A0DFF8FB
:1024300004A1CDF80CA00494059506944FF4806394
:102440000793089409940A944FF400330B930C9467
:102450000D970E940F942D4F3846C84722460AEB2D
:10246000050138462A4B984701213846294B9847A1
:1024700001A93846C047012210213846B047264BF3
:10248000A02283F80E234FF48041196083F80C23B7
:102490004FF480521A600122294617481F4CA0476A
:1024A000012240211448A047012138461C4B98477F
:1024B000012111481B4B984711B0BDE8F08F00BFB8
:1024C000C4270020D42A0020B8270020D4280020C8
:1024D000B4270020D0280020D42C00206D1F010834
:1024E000751F01087D1F01082D21010885210108A4
:1024F00045200108710601080048004061440108B8
:102500003904010858600240514201082860024025
:10251000234201083B42010800E100E03F45010879
:102520000D42010825450108044800405D400108AE
:10253000B5410108D0270020A02383F311887047FC
:10254000002383F3118870472DE9F8430E1E52DDF6
:102550000746DFF8B480294CDFF8B09008E000238C
:1025600083F311889D4242DD2F44761B002E42DD0D
:10257000C047A02383F31188A2886188551AB54209
:10258000A8BF354623880B449A42D8BF9B1A002D1A
:102590000DDD7A1E02EB050C12F8010FA168C8547C
:1025A0000133A1888B42A8BF00239445F4D16388EE
:1025B0002B449BB26380002BD1D0E388002BCED17B
:1025C000002148460E4B98472288A3681344C9F857
:1025D0000C306388A18898188842C8BF8B1AC9F844
:1025E0000430E38001214846054B9847B7E70220B5
:1025F000044B9847BAE7BDE8F88300BF002D0020E0
:102600000D42010885160108BD02010870600240F4
:10261000F0B4344B5968C1F180011B6813F4002FEA
:1026200031D0314B1B681BB1304B1C688C4201DB35
:10263000F0BC70472E4A908855880B1B471B9F4261
:10264000A8BF1F4613882B449842D8BF1B1A002FDF
:1026500012DD284804F17F0202447F3020443844D0
:10266000234C12F8016FA568EE540133A588AB42E4
:10267000A8BF00239042F4D11D4A53883B445380A5
:102680001A4B1960D4E7184B18680028D0D1174BA3
:102690001C688C42CCDA164A958856880F1BAB1BF7
:1026A0009F42A8BF1F46138833449D42D8BF5B1B7F
:1026B000002F0FDD0F4A224402EB070C0C4C12F8DE
:1026C000016BA568EE540133A588AB42A8BF034651
:1026D0006245F4D1064B5A8817445F80034B19605A
:1026E000A6E700BF40600240F02C00200C2E002026
:1026F000F42C00200C2D002070B506460C46A023BB
:1027000083F31188104B9847104B5888A042A8BFFC
:1027100020461B8800280EDD721E0644013E0B4C2D
:10272000A568ED5C02F8015F0133A588AB42A8BF44
:102730000023B242F4D1054A138053881B1A5380F8
:10274000002383F3118870BD11260108F42C0020AA
:102750002DE9F0410C1E11DD0546094E4FF002082F
:10276000084F03E04046B847002C07DD21462846C5
:10277000B0470028F6DD0544241AF5E7BDE8F081EE
:10278000F92601088516010810B5204AD388528819
:10279000934212DB1D4B00225A801A801C4B3D22B3
:1027A000DA601A4B5B88CBB90021184BD9801948E5
:1027B000194B9847194B984710BD002BEED0134882
:1027C0000188194489B201808088814202D3091AA4
:1027D0000E480180D31A0D4A5380DFE70D4C0021CB
:1027E00020460D4B9847094B19889A680A44E260C5
:1027F0005A889B8850189842C8BF5A1A05484260A8
:10280000024BDA800121044B9847D5E7002D0020C8
:1028100000600240706002400D420108950201080C
:10282000F0B4384B4FF474129A6040331B6813F4C1
:10283000002F32D0344B196819B9344B18687F28EF
:1028400007DD314B01221A60304B00221A60F0BCC8
:1028500070472F4A94885588C0F18006631B9E42BA
:10286000A8BF1E4613882B449C42D8BF1B1B002EBA
:102870000EDD284A02449719254812F8015B846846
:10288000E55401338488A342A8BF0B46BA42F4D171
:102890001F4B5A8816445E80D3E71B4B1B681BB145
:1028A0001A4B18687F2805DD0023174A1360174A62
:1028B0001360CCE7164A91885488C0F180030E1B40
:1028C0009E42A8BF1E46138823449942D8BF5B1A74
:1028D000002E12DD0F4900F17F020A447F310144CE
:1028E00031440B4812F8015F8468E5540133848851
:1028F000A342A8BF00238A42F4D1054A5388334437
:102900005380D1E700600240F02C00200C2E002004
:10291000F42C00200C2D00202DE9F04F91B005463D
:10292000594B5A4A9A604FF4007199800024DC8018
:102930005C801C80564A574B93609180D4805480B1
:102940001480554B1C60554B1C60554B1A60554A02
:102950005A60554A9A60554ADA60554A1A61554A92
:102960005A61554A9A610A210520544B98470195AE
:102970004FF48053ADF80830ADF80A404FF480664C
:10298000ADF80C60ADF810400C23ADF80E3001A985
:102990004B484C4B984701214FF400104A4B984745
:1029A0004FF0006BCDF804B0DFF844A1CDF808A0DB
:1029B0000394402304938025059506940796089474
:1029C00009940A944FF400330B930C9403230D9352
:1029D0000E940F943D4F3846DFF81891C84701A96F
:1029E0003846DFF81481C047012210213846384F9D
:1029F000B847CDF804B0CDF808A0DFF800A1CDF8B5
:102A00000CA00494059506940796089409940A94DA
:102A10004FF400330B930C9403230D930E940F94F7
:102A20002C4E3046C84722460AEB050130462A4B59
:102A3000984701213046294B984701A93046C047A5
:102A4000012210213046B847254BA02283F80F23DE
:102A50004FF40041196083F80D234FF400521A60BF
:102A60000122294616481F4CA04701224021144844
:102A7000A047012130461C4B9847012110481B4BB1
:102A8000984711B0BDE8F08F002D002010300020D5
:102A9000F42C0020102E0020F02C00200C2E002002
:102AA0001032002039250108412501084925010877
:102AB000F9260108512701081126010871060108AD
:102AC000004C004061440108390401087060024074
:102AD0005142010840600240234201083B42010884
:102AE00000E100E03F4501080D42010825450108CD
:102AF000044C00405D400108B54101080C2D002048
:102B0000A02383F311887047002383F31188704753
:102B10002DE9F8430E1E52DD0746DFF8B480294C3C
:102B2000DFF8B09008E0002383F311889D4242DD76
:102B30002F44761B002E42DDC047A02383F311886B
:102B4000A2886188551AB542A8BF354623880B4430
:102B50009A42D8BF9B1A002D0DDD7A1E02EB050CA0
:102B600012F8010FA168C8540133A1888B42A8BF95
:102B700000239445F4D163882B449BB26380002BDF
:102B8000D1D0E388002BCED1002148460E4B984788
:102B90002288A3681344C9F80C306388A188981868
:102BA0008842C8BF8B1AC9F80430E3800121484627
:102BB000054B9847B7E70220044B9847BAE7BDE8B2
:102BC000F88300BF3C3200200D4201088516010841
:102BD0007D020108A0640240F0B4344B5968C1F191
:102BE00080011B6813F4002F31D0314B1B681BB1DF
:102BF000304B1C688C4201DBF0BC70472E4A908839
:102C000055880B1B471B9F42A8BF1F4613882B44A8
:102C10009842D8BF1B1A002F12DD284804F17F020A
:102C200002447F3020443844234C12F8016FA568D9
:102C3000EE540133A588AB42A8BF00239042F4D1E3
:102C40001D4A53883B4453801A4B1960D4E7184BF4
:102C500018680028D0D1174B1C688C42CCDA164A71
:102C6000958856880F1BAB1B9F42A8BF1F46138831
:102C700033449D42D8BF5B1B002F0FDD0F4A224417
:102C800002EB070C0C4C12F8016BA568EE540133F3
:102C9000A588AB42A8BF03466245F4D1064B5A88CB
:102CA00017445F80034B1960A6E700BF40640240F1
:102CB0002C320020483300203032002048320020DF
:102CC00070B506460C46A02383F31188104B984735
:102CD000104B5888A042A8BF20461B8800280EDD54
:102CE000721E0644013E0B4CA568ED5C02F8015FC4
:102CF0000133A588AB42A8BF0023B242F4D1054AF4
:102D0000138053881B1A5380002383F3118870BDEE
:102D1000D92B0108303200202DE9F0410C1E11DDC5
:102D20000546094E4FF00208084F03E04046B847F9
:102D3000002C07DD21462846B0470028F6DD054473
:102D4000241AF5E7BDE8F081C12C010885160108B9
:102D500010B5214AD3885288934213DB1E4B0022C0
:102D60005A801A801D4B4FF47412DA601A4B5B883C
:102D7000CBB90021184BD98019481A4B98471A4BE8
:102D8000984710BD002BEDD013480188194489B233
:102D900001808088814202D3091A0F480180D31A2A
:102DA0000D4A5380DEE70E4C002120460D4B98471C
:102DB000094B19889A680A44E2605A889B8850181F
:102DC0009842C8BF5A1A06484260034BDA80012174
:102DD000044B9847D5E700BF3C3200200064024016
:102DE000A06402400D42010855020108F0B4384BBE
:102DF0004FF474129A6040331B6813F4002F32D0E2
:102E0000344B196819B9344B18687F2807DD314BEA
:102E100001221A60304B00221A60F0BC70472F4A22
:102E200094885588C0F18006631B9E42A8BF1E4649
:102E300013882B449C42D8BF1B1B002E0EDD284A52
:102E400002449719254812F8015B8468E554013360
:102E50008488A342A8BF0B46BA42F4D11F4B5A88BC
:102E600016445E80D3E71B4B1B681BB11A4B1868D6
:102E70007F2805DD0023174A1360174A1360CCE74B
:102E8000164A91885488C0F180030E1B9E42A8BF49
:102E90001E46138823449942D8BF5B1A002E12DDC8
:102EA0000F4900F17F020A447F31014431440B484D
:102EB00012F8015F8468E55401338488A342A8BFF7
:102EC00000238A42F4D1054A538833445380D1E722
:102ED000006402402C3200204833002030320020B1
:102EE000483200202DE9F04F91B00546584B594A21
:102EF0009A604FF4007199800024DC805C801C8013
:102F0000554A564B93609180D48054801480544B22
:102F10001C60544B1C60544B1A60544A5A60544A0B
:102F20009A60544ADA60544A1A61544A5A61544ABF
:102F30009A610A210320534B98470195ADF8084048
:102F4000ADF80A40ADF80C40ADF810400C23ADF8D8
:102F50000E3001A94C484D4B984701214FF4800099
:102F60004B4B98474FF0206BCDF804B0DFF848A1E9
:102F7000CDF808A00394402304938025059506947A
:102F80004FF480630793089409940A944FF4003334
:102F90000B930C9403270D970E940F943D4E3046DF
:102FA000DFF81891C84701A93046DFF81481C047FF
:102FB000012210213046384EB047CDF804B0CDF88C
:102FC00008A0DFF800A1CDF80CA0049405950694A4
:102FD0004FF480630793089409940A944FF40033E4
:102FE0000B930C940D970E940F942C4F3846C847B2
:102FF00022460AEB05013846294B984701213846FD
:10300000284B984701A93846C0470122102138466D
:10301000B047254BA02283F845232021996083F8EF
:103020003A234FF080625A600122294616481F4C0D
:10303000A047012240211448A047012138461C4BDB
:103040009847012110481B4B984711B0BDE8F08FFD
:103050003C3200204C350020303200204C33002020
:103060002C320020483300204C370020012B01086F
:10307000092B0108112B0108C12C0108192D010889
:10308000D92B0108710601080014014061440108B0
:1030900039040108A0640240514201084064024022
:1030A000234201083B42010800E100E03F450108DE
:1030B0000D42010825450108041401405D40010846
:1030C000B5410108483200200A4B00221A615A61BA
:1030D0000949896C4A6202221A60084A138843F43B
:1030E00080731380064B4FF000421A6001225A6031
:1030F000704700BF683700201C00002000540040CB
:1031000000E100E008B50D4B1A8842F400721A8005
:103110009B8A13F0100F0ED0094A4FF00043C2F8FB
:1031200080300123C2F88430064A926C002151623B
:10313000054A136008BD054B9847FBE70054004063
:1031400000E100E01C00002068370020C9300108C1
:103150000122104B1A60104B0021196058610F4B6F
:103160001964996C0B8823F001031B041B0C0B8062
:103170000B4B4FF00041C3F88010C3F884200028A7
:1031800002DB054BDB6823B1064A138843F4007366
:103190001380704794370020683700201C000020FF
:1031A00000E100E00054004008B5174A938A128BF2
:1031B00043EA024313F4807F0DD113F4007F1BD147
:1031C00013F4806F1AD103F48043002B0F4808BF1B
:1031D0004FF0FF3000E00E480B4B00229A820D4B5F
:1031E000DB6993420DDD0B4BDA69013ADA610A22A1
:1031F0009A61094B984708BD0848EDE76FF47A706B
:10320000EAE7074B9847F6E70054004014FCFFFF3D
:1032100018FCFFFF683700200531010816FCFFFF8E
:1032200051310108434B9B6C00225A62424A938AF7
:10323000128B43EA0243414A1268022A11D03F4AE4
:103240001268032A21D010B53C4A1268032A28D0FC
:103250003A4A1268042A39D0384A1268042A46D0F9
:1032600010BD374A9A43EAD1344B9B68002B14BFF8
:1032700004230323314A136092F82410936843EA2D
:1032800041039BB22C4A138270472E4A9A43DAD1EB
:103290002A4B996A1A69501C18618A5C264B1A825B
:1032A0007047294A9A43D3D1244B1A695B689A42E2
:1032B00008DA224B996A1A69501C18618A5C1E4B05
:1032C0001A82CDE70120214B9847C9E7204A9A434B
:1032D000C2D11A4B5B68012B174A1388CFBF43F446
:1032E000806323F480631B041B0C1380B8E7194A26
:1032F00032EA0303B4D1104B188A104B996A1A6949
:10330000541C1C6188541A695B68013B9A4208D0BE
:103310000A4B1A695B689A42A2D101200B4B98476D
:103320009EE7054A138823F480631B041B0C13805B
:1033300096E700BF1C0000200054004068370020C2
:1033400001000300820007008000070051310108DE
:10335000020003004000030070B584B006461C4C18
:1033600020461C4B98470023ADF804304BF6FF7302
:10337000ADF806304823ADF808304FF48063ADF85F
:103380000A304FF48043ADF80C3004AD45F8106DB1
:1033900001212046104B9847294620460F4B98475D
:1033A000012120460E4B9847032104200D4B9847DE
:1033B00001220D4B1A604FF4E06120460B4B9847F9
:1033C0000B4B302283F81F2383F8202304B070BDF9
:1033D0000054004099420108D5430108FD4201080C
:1033E000EF430108710601089837002009440108DD
:1033F00000E100E02DE9F04F9DB00A908A4603936A
:103400000290002189464FF0FF37019100230024EC
:10341000CDE904348B460E46551C1378002B00F082
:103420008E85042900F26D85DFE801F00315446BF9
:103430008300252B00F06885D34508D20D2B06D0DC
:103440000A2B08BF0D23029A1370531C02930BF131
:10345000010B2A46E0E7203B102B00F26085DFE8F5
:1034600013F01D005E055E0521005E055E055E052C
:1034700019005E055E055E0515005E0511005E051E
:103480005E05250049F002092A46C5E749F004090E
:103490002A46C1E749F008092A46BDE749F0100964
:1034A0002A46B9E749F020092A46B5E749F001095B
:1034B0002A46B1E7A3F13000C0B2092806D806EBCE
:1034C0008602303B03EB42062A46A5E72A2B0AD0A8
:1034D0002E2B0CBF032104212E2B08BF2A462E2B96
:1034E00008BF002798E7039A131D1668002E02DB19
:1034F00003932A4690E7764249F0020903932A464D
:103500008AE7A3F13000C0B2092806D807EB870785
:10351000303B03EB47072A467EE72A2B01D00421E4
:103520007AE7039B1F6847EAE777043303932A4649
:1035300072E7A3F14C022E2A43D8DFE812F03D00D7
:10354000420042004200420042004200420042006B
:10355000420042004200420042004200420042005B
:10356000420042004200420042004200420042004B
:1035700042004200420033004200F304420038009F
:1035800042004200420042003D00420042002F0043
:10359000420042004200420042002F002A4601231E
:1035A000019339E7019B013B01932A4634E7019BD4
:1035B000013301932A462FE7019B023301932A46E8
:1035C0002AE701990229A8BF02216FF00102914266
:1035D000B8BF11460191A3F14602322A00F280845D
:1035E000DFE812F041007E047E047E047E047E0447
:1035F0007E047E047E047E04D0017E047E047E046C
:103600007E047E047E047E0449027E047E047E04E1
:103610007E047E047E047E047E047E047E04CE034B
:1036200001027E0443007E047E0401027E047E04C7
:103630007E047E0442044E02D2017E047E04EA032C
:103640007E0446027E047E04330010230B93019B0C
:103650000233042B00F2A581DFE813F015021D02EE
:1036600025022E02370249F0800949F040031193E8
:10367000039B073323F0070303F1080203921A6840
:103680000F925B680C93D34534BFAAEB0B03002366
:103690000E939DF94430A349A34A11EA230138BF90
:1036A00011461391002200230F980C999F4CA047BC
:1036B00000285BD10F980C999D4B98471490C11727
:1036C000002800F0878406900891002312930024BC
:1036D000A8460A220023974DA847013450EA010367
:1036E000F7D14546129B002B00F07884631C0B93A6
:1036F00019F0030240F07E840B9B9E4251DD0B9B30
:10370000F21A029B4FF0000820210E98404584BF1A
:103710001970013308F101089045F7D10B9A109206
:10372000129A002A44D000220E99414502D92D2137
:103730001970013308F10108012A48D00E9AA242FB
:10374000C0F00D812344129304EB08011591002C65
:1037500070DD0C465B1A1797CDF8609017461995E7
:10376000CDF858B0DDF84C909B464FE00C9B03F130
:1037700000430C930F9819466D4B98471490C1174E
:1037800020B10690089101231293A0E706900891BA
:10379000012312931C46A5E7109B0B93ACE70B94F7
:1037A000ADE70B9B10930B96029B4FF00008B7E719
:1037B000002200F030BC19F0100FBDD00E99414529
:1037C00002D920211970013308F10108B4E70B9ADE
:1037D000A242B3DD10989042B0DA4244121A30216E
:1037E0000E98404584BF1970013308F101089045D7
:1037F000F7D1109A0B92A1E70A22002306980899A4
:103800004C4DA84706900891A0450DD0013CA74219
:10381000F2D90A22002306980899464DA84719F8BC
:1038200002300BF80430E7E7DDF858B0179FDDF8F9
:103830006090199D19F0020F12D00B9B10988342D3
:103840000EDD15990B441B1A20220E9C12988C42F7
:1038500084BF0270013001319942F8D11591129064
:103860000E9B159A934204D92E23129A1370531C5F
:103870001293159B03F10108002FC0F27183149875
:103880002D4B984702460B460F980C992B4CA0479E
:10389000CDE90601002F64DD0E9B434561D9B94691
:1038A000CDF820B00B960E971E460C95139F129DD7
:1038B000CDF83CA00022224BDDE90601214CA047B7
:1038C000CDE90601B9F1010F40D0DDE90601184B41
:1038D000984782464FEAE07B59461B4B9847024681
:1038E0000B46DDE90601154CA047CDE906010A2289
:1038F0000023504659460F4CA047BB5C05F8013BDE
:1039000008F1010809F1FF39B9F1000F32DD464530
:10391000D0D8DDF820B00B9E0E9F0C9DDDF83CA0AA
:103920001FE000BF4053010818530108B14D0108C2
:10393000014E0108514E0108F94701085D45010893
:1039400000002440CD48010861480108DDF820B09E
:103950000B9E0E9F12950C9DDDF83CA013E34FF0DB
:103960000008029B43440293C344DDF844902A4676
:10397000002151E5DDF820B00B9E0E9F0C9DDDF877
:103980003CA0EEE749F0800949F02009039A13684A
:1039900018460021CDE90401131D039310230B9356
:1039A0000827D34534BFAAEB0B0300230E934FFA2D
:1039B00089F113918B4A8C4B12EA210238BF1A46C7
:1039C000119219F0400F00F09980DDE90434002BCA
:1039D00074F10003C0F28880DDE90434CDE90634D7
:1039E00000230F9390E049F04009019B0233042B20
:1039F00077D8DFE803F0030E19242F00039B93F917
:103A00000010CA17CDE90412043303930A230B9361
:103A1000C7E7039BB3F90010CA17CDE904120433BA
:103A200003930A230B93BCE7039A13681846D9172C
:103A3000CDE90401131D03930A230B93B1E7039A05
:103A400013681846D917CDE90401131D03930A23FF
:103A50000B93A6E7039B073323F0070303F1080248
:103A60000392D3E90034CDE904340A230B9398E799
:103A70000A230B93EBE549F0800910230B93E6E54D
:103A800008230B93E3E5039B19780022CDE9041288
:103A90000433039385E7039B19880022CDE90412C0
:103AA000043303937DE7039A136818460021CDE998
:103AB0000401131D039374E7039A13681846002149
:103AC000CDE90401131D03936BE7039B073323F038
:103AD000070303F108020392D3E90034CDE904346B
:103AE0005FE70A230B935CE7DDE904345B4264EB98
:103AF0004404CDE9063401230F9305E0DDE90434E5
:103B0000CDE9063400230F93DDE9060150EA0103F5
:103B10001BD0CDE90C0100240B9B1946DA17CDE927
:103B20000812A846DDE90C01DDE908232F4DA8475E
:103B3000013450EA0103F7D1454619F020010BD0BA
:103B40000B9B082B03D03B4607E00024F5E7631CE2
:103B5000BB42B8BF3B4600E03B46A34205DCDDE983
:103B60000623134314BF2346012319F0080F2FD057
:103B70000B9A102A0CBF042203220C925A1E0C9896
:103B800092FBF0F203EB02080F9B13B919F0140F2C
:103B900020D008F10103109311B10B9B102B1CD006
:103BA00019F0030224D1109B9E4255DDF01A029BAE
:103BB00000244FF0200CDDF838E0A64584BF83F8E0
:103BC00000C0013301348442F7D11098129012E002
:103BD0000C93D3E7CDF84080DEE7109B02331093BF
:103BE000DEE700BF2C53010804530108514E0108C1
:103BF0001296029B00240F98002831D00E98A04204
:103C000002D92D2018700133013411B10B991029FC
:103C10003CD0012A4DD00E994145C0F0A8804344C4
:103C200013934444B8F1000F40F38D800F930C9927
:103C30000B980246C317CDE90823CDF82CB0149693
:103C40001597CDF85890DDF838B01795DDF83C9011
:103C500025460F940E4658E01296029B0024CAE7B0
:103C600019F0040F07D00E98A04202D92B2018702B
:103C700001330134C9E719F0100FC6D00E98A042E5
:103C800002D92020187001330134BEE70E99A142F9
:103C900002D9302119700133611C0E98884206D96F
:103CA00013990029B4BF58217821197001330234C7
:103CB000AFE7129A9045AEDA10989042ABDA121A3A
:103CC000224430210E98A04284BF19700133013480
:103CD0009442F8D1109A12929DE709F1FF37013D05
:103CE00008F1FF38AB4584BF5F2309F8013C0C9B0A
:103CF0005E1E0EE0DDE90823DDE90601AC4FB847A2
:103D0000CDE90601B8F1000F15DD002EE5D0013E2A
:103D10004F4607F1FF39013D08F1FF38AB45E9D9BE
:103D2000DDE90823DDE90601A14CA047119B9B5C5E
:103D300007F8013CDEE7DDF82CB0149E159FDDF896
:103D40005890179D0F9C19F0020F11D0109A1299DC
:103D50008A420DDA21448B1A20220E981399A04230
:103D600084BF0A7001310134A342F8D100E000247D
:103D7000029B23440293A3442A460021FFF74CBB35
:103D8000039A13681CA901F8013D131D0393012236
:103D9000B7F1FF3F02D0BA42A8BF3A46964202DDD1
:103DA00019F0020F1AD0002A43D0584602EB000B3C
:103DB0000346081A029C30E0039B181D196849B19C
:103DC0000B784BB10A4612F8013F002BFBD1521A77
:103DD0000390DDE77749F5E70A46F8E709F00103C4
:103DE000002B14BF3024202406EB0B039B1A5846EB
:103DF000029E824584BF3470013601309842F8D16A
:103E000002960AB11646D1E7164683462A46002195
:103E1000FFF702BB01335B450AD09A45FAD9C15C72
:103E20000D29F7D00A2908BF0D2121700134F1E7CF
:103E30000294B2427BDA19F0020F03D12A46002124
:103E4000FFF7EABAB31A5B4420210298DA4584BF2F
:103E5000017001300BF1010B9B45F7D10290164622
:103E60002A460021FFF7D8BA019B0233042B62D8FF
:103E7000DFE803F0030D17212B00039A136883F882
:103E800000B0131D03932A460021FFF7C5BA039A19
:103E90001368A3F800B0131D03932A460021FFF70F
:103EA000BBBA039A1368C3F800B0131D03932A46E4
:103EB0000021FFF7B1BA039A1368C3F800B0131DCD
:103EC00003932A460021FFF7A7BA039A136800213B
:103ED000C3F800B05960131D03932A46FFF79CBA3C
:103EE000D34508D20D2B06D00A2B08BF0D23029A0A
:103EF0001370531C02930BF1010B2A460021FFF7AC
:103F00008BBA2A46FFF788BA2A4601214FF00009EA
:103F10004FF0FF374E46CDF80490FFF77DBA0221EF
:103F2000FFF77ABA2A4602230193FFF775BA2A46A9
:103F30000021FFF771BA2A460021FFF76DBAD34579
:103F400008D3BAF1000F07D00A9B5344002203F8AC
:103F5000012C01E0029A137058461DB0BDE8F08FA5
:103F60001498154B984702460B460F980C99134C22
:103F7000A0470E9B43457FF6F4AC0022104B114C3A
:103F8000A047CDE9060100220F4BDDE906010F4CE9
:103F9000A0470F4B98470A220023C117044CA047A3
:103FA000139B9B5C129A137008F10108D9E400BFBF
:103FB000514E010854530108F94701085D450108B5
:103FC00000002440CD4801080000E03F61450108A1
:103FD000014E0108069008910124129019F0140F67
:103FE0000FD119F0030224D00B96029B10944FF0CE
:103FF000000810E010930B96029B4FF00008FFF7AB
:1040000093BB631C109319F003023FF4C5AB0B96EE
:10401000029B4FF0000819F0040F3FF4CCAB0E994F
:10402000414502D92B211970013308F10108FFF72E
:1040300083BBA6423FF7B3AB0B96029B10944FF0A5
:104040000008E8E70428044A13680CBF43F004039F
:1040500023F004031360704710E000E0036823F0CE
:10406000010303600023036043608360C360036156
:10407000212343613C4B98422DD03C4B98422ED09B
:104080003B4B984230D03B4B984232D03A4B98420F
:1040900034D03A4B984235D0394B984236D0394BD0
:1040A000984237D0384B984239D0384B98423AD062
:1040B000374B98423CD0374B98423ED0364B9842D3
:1040C00040D0364B984241D0354B984242D0354B88
:1040D000984243D07047103B3D229A607047283B7E
:1040E0004FF474629A607047403B4FF474129A60C8
:1040F0007047583B4FF074629A607047703B2A4A91
:10410000DA607047883B294ADA607047A03B284A4A
:10411000DA607047B83B4FF03D52DA607047103BB1
:104120003D229A607047283B4FF474629A60704752
:10413000403B4FF474129A607047583B4FF07462E2
:104140009A607047703B184ADA607047883B174A9C
:10415000DA607047A03B164ADA607047B83B4FF010
:104160003D52DA60B6E700BF1060024028600240AE
:104170004060024058600240706002408860024027
:10418000A0600240B860024010640240286402400F
:1041900040640240586402407064024088640240F7
:1041A000A0640240B86402403D000020400F00209F
:1041B00000003D2010B40368134A1A400B68CC6815
:1041C00023434C6923438C692343CC6923430C6A02
:1041D00023434C6A23438C6A23434C6B23438C6BED
:1041E000234313430360426922F00702CB6A0C6B3E
:1041F0002343134343610B6943604B6883608B68BF
:10420000C36010BC704700BF3F801CF021B9036839
:1042100023F0010303607047036843F00103036068
:1042200070472AB9036823F40023036001617047D3
:10423000036843F400230360F8E721B9036823F41B
:10424000802303607047036843F480230360704752
:1042500011F0800F14D062B1436943F080034361D1
:10426000802905D0036801F01E01194301607047E1
:104270007047436923F080034361802904D170476C
:10428000802907D0002AEDD1036801F01E0123EA3E
:10429000010101607047000010B5144B984206D030
:1042A000134B98420DD0134B984214D010BD0121EE
:1042B0004FF40010104CA04700214FF40010A0470D
:1042C000F4E701214FF480000B4CA04700214FF48C
:1042D0008000A047EAE701214FF40000064CA04708
:1042E00000214FF40000A047E0E700BF0054004069
:1042F00000580040005C0040A9040108F0B585B0FA
:1043000004460D46868826F03F063604360C68467D
:104310002C4B984702982C4AA2FB0032920C97B281
:104320003E43A680218821F001010904090C218067
:104330002B6826498B421ED85B00B0FBF3F39BB27F
:10434000042B38BF042301372784A383238843F039
:104350000103238023889BB223F4816323F00203AB
:10436000AA8869890A4313432380AB892A891343A6
:10437000238105B0F0BDEE884BF6FF718E421AD056
:1043800003EB830303EB8303B0FBF3F39BB243F430
:104390008043C3F30B0109B943F0010343F4004325
:1043A0004FF4967102FB01F2094981FB021292114E
:1043B00001322284C9E703EB4303B0FBF3F39BB262
:1043C000E7E700BF8503010883DE1B43A0860100E9
:1043D000D34D621031B9038823F001031B041B0C79
:1043E00003807047038843F001030380704731B9AD
:1043F000038823F480631B041B0C0380704703882D
:1044000043F480630380704722B9838823EA010163
:10441000818070478388194381807047014B186001
:10442000704700BF00300040014B5860704700BF2C
:1044300000300040014B9860704700BF00300040E2
:10444000024B4AF6AA221A60704700BF00300040B3
:10445000024B4CF6CC421A60704700BF003000405F
:1044600030B585B004460D46038A9BB223F4405311
:10447000CA881343038283899BB223F4B05323F089
:104480000C028B8809890B4369890B431343838191
:10449000838A9BB223F44073AA89134383826846BC
:1044A0001D4B98471D4B9C4205D003F580639C42F1
:1044B00001D0029B00E0039BA28912F4004F03EBA2
:1044C000830303EB8303296814BF49008900B3FB0E
:1044D000F1F1134BA3FB012358090501642300FBF1
:1044E0001313A28912F4004F0BD11B0132330C4A73
:1044F000A2FB0323C3F343132B439BB2238105B0D9
:1045000030BDDA003232064BA3FB0232C2F3421254
:1045100042EA0503F1E700BF8503010800100140EE
:104520001F85EB5131B9838923F400531B041B0C05
:1045300083817047838943F400538381704722B994
:10454000838A23EA010181827047838A1943818229
:104550007047000081F0004102E000BF83F000439B
:1045600030B54FEA41044FEA430594EA050F08BF0E
:1045700090EA020F1FBF54EA000C55EA020C7FEAD2
:10458000645C7FEA655C00F0E2804FEA5454D4EB4F
:104590005555B8BF6D420CDD2C4480EA020281EA19
:1045A000030382EA000083EA010180EA020281EA51
:1045B0000303362D88BF30BD11F0004F4FEA0131A3
:1045C0004FF4801C4CEA113102D0404261EB4101B2
:1045D00013F0004F4FEA03334CEA133302D0524238
:1045E00063EB430394EA050F00F0A780A4F10104F4
:1045F000D5F1200E0DDB02FA0EFC22FA05F280182E
:1046000041F1000103FA0EF2801843FA05F3594113
:104610000EE0A5F120050EF1200E012A03FA0EFC92
:1046200028BF4CF0020C43FA05F3C01851EBE371BC
:1046300001F0004507D54FF0000EDCF1000C7EEBD9
:1046400000006EEB0101B1F5801F1BD3B1F5001F17
:104650000CD349085FEA30004FEA3C0C04F1010436
:104660004FEA445212F5800F80F09A80BCF1004F5F
:1046700008BF5FEA500C50F1000041EB045141EAE1
:10468000050130BD5FEA4C0C404141EB010111F4E2
:10469000801FA4F10104E9D191F0000F04BF01468D
:1046A0000020B1FA81F308BF2033A3F10B03B3F16B
:1046B00020020CDA0C3208DD02F1140CC2F10C02FB
:1046C00001FA0CF021FA02F10CE002F11402D8BF59
:1046D000C2F1200C01FA02F120FA0CFCDCBF41EA25
:1046E0000C019040E41AA2BF01EB0451294330BDF4
:1046F0006FEA04041F3C1CDA0C340EDC04F11404D1
:10470000C4F1200220FA04F001FA02F340EA0300A7
:1047100021FA04F345EA030130BDC4F10C04C4F1ED
:10472000200220FA02F001FA04F340EA03002946CD
:1047300030BD21FA04F0294630BD94F0000F83F417
:10474000801306BF81F480110134013D4EE77FEAFA
:10475000645C18BF7FEA655C29D094EA050F08BF46
:1047600090EA020F05D054EA000C04BF1946104627
:1047700030BD91EA030F1EBF0021002030BD5FEA6B
:10478000545C05D14000494128BF41F0004130BD93
:1047900014F580043CBF01F5801130BD01F00045E7
:1047A00045F0FE4141F470014FF0000030BD7FEA5A
:1047B000645C1ABF194610467FEA655C1CBF0B4655
:1047C000024650EA013406BF52EA033591EA030F6C
:1047D00041F4002130BD00BF90F0000F04BF002164
:1047E000704730B54FF4806404F132044FF0000597
:1047F0004FF0000150E700BF90F0000F04BF002110
:10480000704730B54FF4806404F1320410F0004575
:1048100048BF40424FF000013EE700BF42004FEA70
:10482000E2014FEA31014FEA02701FBF12F07F43ED
:1048300093F07F4F81F06051704732F07F4208BFA4
:10484000704793F07F4F04BF41F40021704730B5AB
:104850004FF4607401F0004521F000411CE700BFF7
:1048600050EA010208BF704730B54FF000050AE07A
:1048700050EA010208BF704730B511F0004502D57B
:10488000404261EB41014FF4806404F132045FEA7D
:10489000915C3FF4D8AE4FF003025FEADC0C18BF26
:1048A00003325FEADC0C18BF033202EBDC02C2F118
:1048B000200300FA03FC20FA02F001FA03FE40EAAA
:1048C0000E0021FA02F11444BDE600BF70B54FF0AE
:1048D000FF0C4CF4E06C1CEA11541DBF1CEA13558C
:1048E00094EA0C0F95EA0C0F00F0DEF82C4481EAF4
:1048F000030621EA4C5123EA4C5350EA013518BF14
:1049000052EA033541F4801143F4801338D0A0FB00
:1049100002CE4FF00005E1FB02E506F00042E0FBAD
:1049200003E54FF00006E1FB03569CF0000F18BFB3
:104930004EF0010EA4F1FF04B6F5007F64F540745B
:1049400004D25FEA4E0E6D4146EB060642EAC621EE
:1049500041EA55514FEAC52040EA5E504FEACE2E5B
:10496000B4F1FD0C88BFBCF5E06F1ED8BEF1004F5E
:1049700008BF5FEA500E50F1000041EB045170BDDA
:1049800006F0004646EA010140EA020081EA03011E
:10499000B4EB5C04C2BFD4EB0C0541EA045170BD1A
:1049A00041F480114FF0000E013C00F3AB8014F194
:1049B000360FDEBF002001F0004170BDC4F10004DD
:1049C000203C35DA0C341BDC04F11404C4F120055E
:1049D00000FA05F320FA04F001FA05F240EA0200B9
:1049E00001F0004221F0004110EBD37021FA04F6EF
:1049F00042EB06015EEA430E08BF20EAD37070BDA9
:104A0000C4F10C04C4F1200500FA04F320FA05F007
:104A100001FA04F240EA020001F0004110EBD37009
:104A200041F100015EEA430E08BF20EAD37070BD79
:104A3000C4F1200500FA05F24EEA020E20FA04F352
:104A400001FA05F243EA020321FA04F001F0004101
:104A500021FA04F220EA020000EBD3705EEA430E72
:104A600008BF20EAD37070BD94F0000F0FD101F0A1
:104A70000046400041EB010111F4801F08BF013CDA
:104A8000F7D041EA060195F0000F18BF704703F018
:104A90000046520043EB030313F4801F08BF013D9F
:104AA000F7D043EA0603704794EA0C0F0CEA13555B
:104AB00018BF95EA0C0F0CD050EA410618BF52EA15
:104AC0004306D1D181EA030101F000414FF000001B
:104AD00070BD50EA410606BF1046194652EA430629
:104AE00019D094EA0C0F02D150EA013613D195EA9D
:104AF0000C0F05D152EA03361CBF104619460AD1E5
:104B000081EA030101F0004141F0FE4141F47001EE
:104B10004FF0000070BD41F0FE4141F4780170BDDE
:104B200070B54FF0FF0C4CF4E06C1CEA11541DBF43
:104B30001CEA135594EA0C0F95EA0C0F00F0A7F845
:104B4000A4EB050481EA030E52EA03354FEA013172
:104B500000F088804FEA03334FF0805545EA131385
:104B600043EA12634FEA022245EA111545EA10654D
:104B70004FEA00260EF000419D4208BF964244F1E4
:104B8000FD0404F5407402D25B084FEA3202B61A03
:104B900065EB03055B084FEA32024FF480104FF4D7
:104BA000002CB6EB020E75EB030E22BFB61A75464B
:104BB00040EA0C005B084FEA3202B6EB020E75EBDE
:104BC000030E22BFB61A754640EA5C005B084FEA46
:104BD0003202B6EB020E75EB030E22BFB61A754613
:104BE00040EA9C005B084FEA3202B6EB020E75EB1E
:104BF000030E22BFB61A754640EADC0055EA060EDF
:104C000018D04FEA051545EA16754FEA06164FEA21
:104C1000C30343EA52734FEAC2025FEA1C1CC0D1CD
:104C200011F4801F0BD141EA00014FF000004FF05A
:104C3000004CB6E711F4801F04BF01430020B4F11B
:104C4000FD0C88BFBCF5E06F3FF6AFAEB5EB030CD3
:104C500004BFB6EB020C5FEA500C50F1000041EBD0
:104C6000045170BD0EF0004E4EEA113114EB5C049D
:104C7000C2BFD4EB0C0541EA045170BD41F4801170
:104C80004FF0000E013C90E645EA060E8DE60CEA78
:104C9000135594EA0C0F08BF95EA0C0F3FF43BAF95
:104CA00094EA0C0F0AD150EA01347FF434AF95EA4C
:104CB0000C0F7FF425AF104619462CE795EA0C0F30
:104CC00006D152EA03353FF4FDAE1046194622E7FD
:104CD00050EA410618BF52EA43067FF4C5AE50EAD7
:104CE00041047FF40DAF52EA43057FF4EBAE12E7C7
:104CF0004FF0FF3C06E000BF4FF0010C02E000BFA8
:104D00004FF0010C4DF804CD4FEA410C7FEA6C5C8A
:104D10004FEA430C18BF7FEA6C5C1BD001B050EA2D
:104D2000410C0CBF52EA430C91EA030F02BF90EA18
:104D3000020F0020704710F1000F91EA030F58BFD7
:104D4000994208BF90422CBFD8176FEAE37040F039
:104D5000010070474FEA410C7FEA6C5C02D150EAD7
:104D6000013C07D14FEA430C7FEA6C5CD6D152EA92
:104D7000033CD3D05DF8040B704700BF8446104657
:104D800062468C461946634600E000BF01B5FFF756
:104D9000B7FF002848BF10F1000F01BD4DF808ED26
:104DA000FFF7F4FF0CBF012000205DF808FB00BFF7
:104DB0004DF808EDFFF7EAFF34BF012000205DF851
:104DC00008FB00BF4DF808EDFFF7E0FF94BF01209E
:104DD00000205DF808FB00BF4DF808EDFFF7CEFF9F
:104DE00094BF012000205DF808FB00BF4DF808EDDE
:104DF000FFF7C4FF34BF012000205DF808FB00BFAF
:104E00004FEA410212F5001215D211D56FF47873F2
:104E1000B3EB625212D94FEAC12343F0004343EA95
:104E2000505311F0004F23FA02F018BF4042704770
:104E30004FF00000704750EA013005D111F00040FA
:104E400008BF6FF0004070474FF00000704700BF90
:104E500053B94AB9002908BF00281CBF4FF0FF31E1
:104E60004FF0FF3000F072B9ADF1080C6DE904CEDF
:104E700000F006F8DDF804E0DDE9022304B0704735
:104E80002DE9F047089E04468846002B4BD18A4204
:104E9000154667D9B2FA82F24AB1C2F1200701FA87
:104EA00002F320FA07F7954047EA030894404FEAD7
:104EB000154E230CB8FBFEF71FFA85FC0EFB178876
:104EC00043EA084307FB0CF1994209D9EB1807F1B3
:104ED000FF3080F01B81994240F21881023F2B4441
:104EE0005B1AA4B2B3FBFEF00EFB103344EA03449A
:104EF00000FB0CFCA44509D92C1900F1FF3380F00C
:104F00000781A44540F2048102382C4440EA07405E
:104F1000A4EB0C0400271EB1D4400023C6E90043D3
:104F20003946BDE8F0878B4209D9002E00F0EB80AE
:104F30000027C6E9000138463946BDE8F087B3FAD4
:104F400083F7002F47D18B4202D3824200F2FA80CE
:104F5000841A61EB030301209846002EE0D0C6E9D5
:104F60000048DDE702B9FFDEB2FA82F2002A40F023
:104F70008F80491B4FEA154E1FFA85F80127B1FBB8
:104F8000FEFC230C0EFB1C1143EA014308FB0CF151
:104F9000994207D9EB180CF1FF3002D2994200F286
:104FA000CD808446591AA3B2B1FBFEF00EFB10145B
:104FB00043EA044408FB00F8A04507D92C1900F186
:104FC000FF3302D2A04500F2B6801846A4EB0804D5
:104FD00040EA0C409FE7C7F1200CBB4022FA0CFED0
:104FE0004EEA030E01FA07F420FA0CF521FA0CF34D
:104FF0004FEA1E482543B3FBF8F92C0C08FB193384
:105000001FFA8EFA44EA034309FB0AF49C4202FAAF
:1050100007F200FA07F10BD91EEB030309F1FF3089
:1050200080F087809C4240F28480A9F10209734499
:105030001B1BADB2B3FBF8F008FB103345EA034489
:1050400000FB0AFAA24508D91EEB040400F1FF3365
:105050006BD2A24569D90238744440EA0940A0FBEA
:105060000289A4EB0A044C45C2464B4654D351D0A6
:10507000002E69D0B1EB0A0564EB030404FA0CFCC2
:10508000FD40FC404CEA0505C6E90054002747E70F
:10509000C2F1200320FA03F7954001FA02F021FA49
:1050A00003F34FEA154E3843010CB3FBFEF71FFA2A
:1050B00085F80EFB173341EA034107FB08F38B42E7
:1050C00004FA02F407D9691807F1FF3C2FD28B428A
:1050D0002DD9023F2944CB1A81B2B3FBFEF00EFB5F
:1050E000103341EA034100FB08F38B4207D96918EA
:1050F00000F1FF3C17D28B4215D902382944C91A56
:1051000040EA07473BE73746304609E70746E7E608
:105110001846FBE64145ABD2B8EB020A69EB0E023A
:1051200001381346A4E76046E9E7184695E7674665
:10513000D1E781467CE702382C4447E7ACF1020C0A
:105140002B442FE7384608E73746E9E6704700BFAB
:1051500070B50D4E0D4D761BB61006D000240134EF
:1051600055F8043B9847A642F9D1094E094D761BE4
:1051700000F0F6F8B61006D00024013455F8043BD0
:105180009847A642F9D170BD6C5301086C530108D1
:10519000745301086C530108024B13B1024800F02C
:1051A00005B8704700000000B9510108002301460E
:1051B0001A46184600F01EB838B50A4C0A4D641B52
:1051C000A4100AD004F18043013B05EB8305013CA8
:1051D00055F804399847002CF9D1BDE8384000F063
:1051E000C9B800BF8453010880530108704700BF4D
:1051F000704700BF2DE9F8432B4D064628689846B6
:105200000F469146FFF7F2FF284B1C68D4F848314F
:10521000002B3DD05A681F2A0DDC02F1010C16BB91
:105220000232C3F804C0286843F82270FFF7E0FF99
:105230000020BDE8F8831E4B7BB34FF4C870AFF37A
:105240000080034648B3D4F848210021C0E900217A
:105250004FF0010CC4F848010A46C0F88811C0F8A4
:105260008C11002EDCD003EB82010124C1F8889060
:10527000D3F8880194402043022EC3F88801C1F876
:105280000881CDD1D3F88C110C43C3F88C41C7E70A
:1052900004F5A673C4F84831BCE72868FFF7A8FFF7
:1052A0004FF0FF30C5E700BF400400105C53010819
:1052B00000000000435055206D61696E28292E2E94
:1052C0002E0000000D0A0D0A2025730D0A000000B3
:1052D00053797374656D436F7265436C6F636B3A9A
:1052E00025640D0A00000000637265617465207218
:1052F0006F6F7420746872656164207265743D25F7
:10530000640D0A0030313233343536373839616252
:10531000636465660000000030313233343536375F
:1053200038396162636465660000000030313233F1
:105330003435363738394142434445460000000091
:1053400030313233343536373839414243444546BB
:1053500000000000286E756C6C2900001800001019
:10536000F8B500BFF8BC08BC9E46704799510108CB
:10537000B1010108F8B500BFF8BC08BC9E467047F3
:045380008D01010892
:08538400FCFAFF7F01000000AC
:10538C0000000000010203040102030406070809DF
:10539C00007A030A00000000000000000403001063
:1053AC006C030010D403001000000000000000008B
:1053BC0000000000000000000000000000000000E1
:1053CC0000000000000000000000000000000000D1
:1053DC0000000000000000000000000000000000C1
:1053EC0000000000000000000000000000000000B1
:1053FC0000000000000000000000000000000000A1
:10540C000000000000000000000000000000000090
:10541C000000000000000000000000000000000080
:10542C000000000000000000000000000000000070
:10543C000000000000000000000000000000000060
:10544C0001000000000000000E33CDAB34126DE6FD
:10545C00ECDE05000B000000000000000000000066
:10546C000000000000000000000000000000000030
:10547C000000000000000000000000000000000020
:10548C000000000000000000000000000000000010
:10549C000000000000000000000000000000000000
:0457CC009C370020E6
:04000005080104E109
:00000001FF
