:020000040801F1
:10000000D07F0010211F0108890101088901010822
:100010008901010889010108890101080000000027
:100020000010011003F8A259000000008901010826
:10003000890101080000000041250108F11C0108A8
:100040008901010889010108890101088901010864
:100050008901010889010108890101088901010854
:100060008901010889010108890101088901010844
:100070007984010801300108DD830108692F010836
:100080008901010889010108890101088901010824
:100090008901010889010108890101088901010814
:1000A0008901010889010108890101088901010804
:1000B000B93F0108F53F010831400108713B0108D3
:1000C000F53A01088901010889010108890101083F
:1000D00089010108890101088901010889010108D4
:1000E00089010108890101088901010889010108C4
:1000F00089010108890101088901010889010108B4
:1001000089010108890101086D4001088901010880
:100110008901010889010108890101088901010893
:100120008901010889010108458A0108890101083E
:100130008901010889010108890101088901010873
:100140008901010889010108890101088901010863
:1001500069280108A9890108D52701088901010832
:100160008901010889010108890101088901010843
:100170008901010889010108890101088901010833
:100180008901010889010108FEE7000010B5054C4E
:10019000237833B9044B13B10448AFF30080012333
:1001A000237010BD0000002000000000DCC2010828
:1001B00008B5034B1BB103490348AFF3008008BDEA
:1001C0000000000004000020DCC2010830B583B04C
:1001D00004460078A3890093A36808220A21204DD1
:1001E000A8472078A3890093A36808220A21A8477A
:1001F0002078A3890093A36808220B21A847A2783E
:100200002078A3890093A3680021A84762882078FA
:10021000A3890093A368120A0121A84722792078B4
:10022000A3890093A3680221A847A2882078A38904
:100230000093A368120A0321A84763880BB103B097
:1002400030BD2078A3890093A36800221221A8471B
:10025000A3682078A289009200221321A847EEE724
:10026000994501082DE9F04782B0044642884FF6CF
:10027000FF739A4230D00A264FF01209DFF8C4808B
:100280004FF0130AA27B2078A3890093A368494604
:10029000C047E2892078A3890093A368120A5146D7
:1002A000C047A389A26849462078224FB84705462F
:1002B000A389A26851462078B84745EA002292B245
:1002C000E3899A4205D021781B481C4DA847013E7E
:1002D000D8D102B0BDE8F087838982681221007806
:1002E000144DA8470746A389A26813212078A84780
:1002F00047EA0027BFB20A264FF0120AA8464FF07D
:100300001309A389A26851462078C0470546A389EE
:10031000A26849462078C04745EA002080B2B8422A
:1003200006D00746013EECD10548044B9847002013
:10033000E081CEE71D47010834B401084D2B0108C8
:1003400018B401089945010838B5184B30221A60D5
:10035000174B4C221A60174B9847174D2846174CDD
:10036000A04705F11000A04705F12000A04705F1C6
:100370003000A04705F14000A047114D2846A04796
:1003800005F11000A04705F12000A0470D4B03F533
:100390003E7400220F200D211A705A705A809A80E4
:1003A000D88019810A33A342F6D138BD6C0B0020E6
:1003B000440B00208545010800000010CD01010814
:1003C000500000101C00002038B580B1104D4FF4D3
:1003D000006128460F4CA0474FF480512846A047A3
:1003E00008212846A04710212846A0470FE0084DC5
:1003F0004FF400612846084CA0474FF4805128462E
:10040000A04708212846A04710212846A04738BD0C
:1004100000100240CD100108D110010838B590B18C
:10042000124D4FF400512846114CA0474FF40041A3
:100430002846A04705F5006540212846A0478021B1
:100440002846A04711E0094D4FF400512846094CB9
:10045000A0474FF400412846A04705F5006540211C
:100460002846A04780212846A04738BD00100240FA
:10047000CD100108D110010808B50120014B9847A3
:1004800008BD00BF1D04010808B50020014B9847B6
:1004900008BD00BF1D0401082DE9F04184B0002310
:1004A0008DF804308DF805308DF806308DF8073062
:1004B0008DF808308DF80930062201A96048614B9B
:1004C00098479DF805209DF8043043EA02235E4AD0
:1004D000D2899A4203D05C48C3815C4B9847012083
:1004E0005B4B98475B4B1B68012B1CD0022B2FD01A
:1004F00013B104B0BDE8F081574B1A78574B1B6815
:10050000002B08BF01239B1A592BF2DD544B98474F
:10051000524B1B68002B08BF01234F4A13704D4BF1
:1005200001221A60E5E74C4B1A784C4B1B68002BF4
:1005300008BF01239B1A092BDBDD484B1B68002BEE
:1005400008BF0123444A1370424B02221A60D0E7CD
:10055000424B1B68002B08BF01233F4A1370002445
:100560003C4B1C6040213F483F4B98473F4D28463D
:10057000364EB04705F11000B04705F12000B047F6
:100580003B4B9847EB898DF804301B128DF80530F2
:10059000EB8B8DF806301B128DF80730EB8D8DF844
:1005A00008301B128DF80930EB8F8DF80A301B12C2
:1005B0008DF80B30B5F84E308DF80C301B128DF8DD
:1005C0000D302C4DA0462C4F2C4E18E0AA88E988FF
:1005D000914284BF0132AA806A880AB1013A6A80D6
:1005E0001A895988914224D301225A705A78E1B26B
:1005F0003846B04701340A354C2C3FF47AAF04AB8F
:1006000003EBE40313F80C2C04F007031A4102F087
:1006100001022B462A70002AD8D06A88E9889142C4
:1006200084BF01326A80AA88002AD9D0013AAA8000
:10063000D6E79988914228BF83F80180D6E700BFAA
:100640006C0B0020C90A0108500000106502010867
:10065000C9030108180300201403002074100020AF
:100660008904010800100240CD10010800000010AC
:10067000790401081C000020440B00209B0A01089B
:100680001B4B1A681B4B1B68002B08BF01239B1ACE
:100690000F2B2BDD10B582B0164B1B68002B08BF4B
:1006A0000123134A13600DF106020121124B187841
:1006B000124B984718B94FF4FE43ADF806300E4C74
:1006C0000122BDF9061020780D4B9847C1B2207861
:1006D0000C4B984723780133DBB2052B04D9064B2A
:1006E00000221A7002B010BD2370FBE7704700BFF4
:1006F0001C0300207410002020030020A14F0108DB
:1007000041600108970B010808B54FF48061024869
:10071000024B9847002008BD000C0240CD10010894
:1007200008B504210248034B9847002008BD00BFCC
:1007300000100240CD10010808B54FF48071024846
:10074000024B9847002008BD00080240CD10010868
:1007500008B54FF480610248024B984708BD00BFBE
:10076000000C0240D1100108074B084A1A6200220F
:100770005A629B6A40F69F71D9625A621A8842F0A7
:1007800001021A80704700BF0431002009070108E8
:10079000074B084A1A6500225A659B6D40F69F7107
:1007A000D9625A621A8842F001021A80704700BF6B
:1007B000043100202107010808B504210148024B3B
:1007C000984708BD00100240D110010808B54FF449
:1007D00080710248024B984708BD00BF00080240E4
:1007E000D1100108074B084A1A6300225A639B6B19
:1007F00040F69F71D9625A621A8842F001021A804B
:10080000704700BF04310020390701082DE9F04F7F
:1008100089B04FF480716B486B4B984706A86B4BBF
:1008200098479DF81A309DF819209DF818109DF8EA
:100830001D0002909DF81C0001909DF81B00009087
:100840006348644CA047644B9847E0B9634B9847B2
:10085000E0B9634B98476348634B9847011E18DB28
:10086000624CA16862485B4B9847002341F62D32E9
:100870001946A0685F4CA047014600283AD15B4B5F
:1008800001221A6008E05C4B9847DFE75A4B984713
:10089000DFE75A484F4B9847594B9847594B984771
:1008A000594B9847594B9847594B9847594B98473C
:1008B000594C04212046444B98476420574B984795
:1008C00004212046564CA04740215648A047564B8D
:1008D0001E68002E08BF01264FF0000845461C4642
:1008E000DFF84091514F524BA3F10C0B0BF1100369
:1008F00005932CE04F48374B9847CDE708F10108A6
:1009000008F00F004C4B98472E4A536983F48073CC
:1009100053612668002E08BF0126414647482D4BEB
:1009200098470120464B984733E046490220464B02
:100930009847464B1A682368002B08BF01239B1A6F
:1009400041F28832934202DD4046414B984723688A
:10095000002B08BF01235B1B632B09DD2568002DDD
:1009600008BF0125D9F8143083F08003C9F814308A
:10097000384B9847B847384B9847384B9847384BCF
:1009800098472368002B08BF01239B1BB3F57A7F90
:10099000B4DAB847334B98470028CAD0134B1B68CA
:1009A000002BC6D0059B0093214B4FF400622549D4
:1009B000DBF80800DFF8B0A0D04720EAE07200289A
:1009C000B3DCB6E700180240CD1001088914010815
:1009D00064B401084D2B0108711701085134010856
:1009E000B9570108605900203138010858590020D2
:1009F000A0BD01080139010811600108A4B4010873
:100A0000354B01082D4401082960010849030108FC
:100A1000BD1E0108950B0108000C024015230108BA
:100A2000D11001080014024074100020FD5E01087E
:100A300064590020B8B401082D0B0108CCB401089A
:100A40001121010834030020451001082010002066
:100A5000990B0108A55F01089904010881060108A6
:100A600047100108A5620108193801080368994276
:100A700011DA01F0070201239340DBB2C9084218E2
:100A8000927B134214BF18300430425C134214BFEF
:100A9000012000207047002070470368994212DA55
:100AA00010B4043001F007040123A34032B9C9088F
:100AB000425C22EA0303435410BC7047C908425CFD
:100AC00013434354F8E770472DE9F0410368DC1DF8
:100AD000B2EBE40F25DB002B1EDD0E46054600249D
:100AE000DFF84480012709E0E108725C22EA030391
:100AF00073540134E4B22B689C420DDA2146284637
:100B0000C04704F0070307FA03F30028ECD0E1081C
:100B1000725C13437354ECE7D81DC0F3C700BDE803
:100B2000F081FA20FBE700BF6D0A01082DE9F041D2
:100B300082B0112817D8104B1F5C00240F4EA0461E
:100B40000F4D47FA04F313F0010F04F1280114BF0D
:100B500001224246C9B23046A8470134082CF0D1E0
:100B600002B0BDE8F08100900C23064A0649074810
:100B7000074CA0470F20DEE714B501086C0B0020DE
:100B80009B0A010828B50108DCB40108F0B401088B
:100B90004D2B01087047704708B50020014B98475E
:100BA00008BD00BF890F010870B4032800F2BF80A0
:100BB000DFE800F002557799674B1A8B5D8A998AB6
:100BC0008D420AD3DB8A1E469D4244D21C468D428A
:100BD00009D9B14209DC0B4607E05F4BDB8A1E46B0
:100BE0009942F3D30C46B54237DDB2F52F7F17D8C3
:100BF000511EB1F5B37F13D902EB42018900574D65
:100C0000A5FB0151B4EBD10F0AD8002B00F09C805A
:100C1000D2005249A1FB0212B3EBD20F80F09480B4
:100C20004F4B53F82030012B00F085804D4B53F88B
:100C300020204D4B1B68002B08BF01239B1A40F658
:100C4000B832934200F386800023454A42F82030B0
:100C5000184670BC70472C46B9E72B46C5E73E4B9B
:100C6000B3F87E20B3F87850B3F87A108D420BD3E6
:100C7000B3F87C301E469D4211D21C468D420AD9E3
:100C8000B142B2DC0B46B0E7334BB3F87C301E46C2
:100C90009942F2D30C46B542A7DC2B46A5E72C4679
:100CA000ECE72D4BB3F8E420B3F8DE50B3F8E010D6
:100CB0008D420BD3B3F8E2301E469D4211D21C4642
:100CC0008D420AD9B14290DC0B468EE7224BB3F835
:100CD000E2301E469942F2D30C46B54285DC2B46E3
:100CE00083E72C46ECE71C4BB3F84A21B3F8445198
:100CF000B3F846118D420CD3B3F848311E469D42DD
:100D000013D21C468D420BD9B1423FF76EAF0B4652
:100D10006BE7114BB3F848311E469942F1D30C46AC
:100D2000B5423FF762AF2B465FE72C46EAE7002368
:100D30001C461A4659E70C4B1B68002B08BF0123C1
:100D4000084A42F8203071E7054B012243F8202081
:100D500000207EE701207CE7B80B0020CDCCCCCC76
:100D600080000010940B0020741000201B4BDB78D7
:100D7000052B2ED8DFE803F0030812181E24174BAA
:100D800001221A70DA707047144A00231370144954
:100D90000B780133DBB20B70D37070470F4B03221B
:100DA0001A700022DA7070470C4B04221A7000226D
:100DB000DA707047094B05221A700022DA7070470A
:100DC000064B06221A700022DA70054B01221A70B7
:100DD0007047024B00221A70704700BFA80B00201A
:100DE0009000001038B560B1032822D0042825D027
:100DF000052828D0062808D133214FF498730625FA
:100E000003E009214FF4FA633125114CA570032248
:100E1000E2701A0A227163710023A371E171062145
:100E2000A01C0C4B9847030A23726072082323808E
:100E300038BD33214FF498730325E6E733214FF48F
:100E400098730425E1E733214FF498730525DCE717
:100E5000540E00200910010808B5064B1878012827
:100E600007D0054B98470548054BDB6830F8021B57
:100E7000984708BDA80B0020E50D0108540E00207E
:100E8000442C002008B5024B9847024B984708BDF8
:100E90006D0D0108590E010810B58B78662B1ED117
:100EA000114B1B68CB1C114A01F1690413F8011B9B
:100EB00002F8011FA342F9D10D4CA21E0D4B662171
:100EC00001FB00310239643432F8023F5BBA21F889
:100ED000023FA242F8D1C0B2074B984710BD194655
:100EE0000648074B9847F9E774100020570F002079
:100EF000580F0020B80B0020A90B010830B50108DD
:100F00004D2B010810B50478E31EDBB2032B00D98A
:100F100010BD0A460146E01E014B9847F8E700BFA6
:100F2000990E010838B5062905D8154A936801338A
:100F30009360002038BD0D460446023989B2114B3A
:100F400098476319C0F3072213F8023C9A4205D070
:100F50000B4A9368013393600020EBE72C4414F8AC
:100F6000013CC0B28342F3D1054BDB68B3F1FF3FD4
:100F700004D00133024AD3600120DBE70120D9E726
:100F8000A80B00200910010838B5174B1A68174B39
:100F90001B68002B08BF01239B1AF92B1CDD134B88
:100FA0001B68002B08BF01230F4A1360104B1B68FE
:100FB0006BB9104DAC1C104B1B694FF4807120466F
:100FC000984781B2298020460C4B984728B90C4B92
:100FD0009847074B00221A6038BD284630F8021B9C
:100FE000084B9847F3E700BFA40B002074100020C3
:100FF00094000010500D0020442C0020250F010803
:10100000850E0108050F0108A9B110B44B1E9BB253
:101010000133C1184FF6FF73094C10F8012B82EA17
:10102000232234F8122082EA03239BB28842F4D1AF
:10103000184610BC70474FF6FF731846704700BF44
:1010400060B5010870477047F0B4002301250326FE
:101050000DE0C26806FA07F422EA0402C260C4681E
:10106000CA79BA402243C2600133102B2CD005FA52
:1010700003F20C68A243F7D104685F0006FA07F296
:10108000D24314400460D0F800C00C79BC4044EA5C
:101090000C0404600C79013CE4B2012CD9D88468BA
:1010A0002240826084684A79BA4022438260426862
:1010B00005FA03F422EA0402426044688A799A40FD
:1010C00092B222434260C4E7F0BC7047018370478C
:1010D0004183704710B401F007039B00C90800EB7F
:1010E0008100016A0F249C4021EA04010162016A27
:1010F0009A400A43026210BC7047000010B4284BAB
:101100009B6803F00C03042B22D0082B23D013B1CF
:10111000244B036001E0234B0360214CA368C3F31D
:1011200003132149CB5CDAB20368D3404360A26861
:10113000C2F382228A5CD2B223FA02F28260A268EF
:10114000C2F342328A5CD2B2D340C36010BC704753
:10115000164B0360E1E7124B59685A6802F03F02F0
:1011600011F4800F11D05968C1F388110F4BB3FBF4
:10117000F2F303FB01F30A4A5268C2F3014201325F
:101180005200B3FBF2F30360C7E7054B5968C1F3A4
:101190008811044BB3FBF2F303FB01F3EBE700BF51
:1011A000003802400024F4009800001000127A0079
:1011B00029B9054A136B23EA000010637047024AFD
:1011C000136B1843106370470038024029B9054A71
:1011D000936B23EA000090637047024A936B1843B5
:1011E000906370470038024029B9054A136C23EA1E
:1011F000000010647047024A136C18431064704773
:101200000038024029B9054A536C23EA00005064B3
:101210007047024A536C18435064704700380240CC
:1012200029B9054A136923EA000010617047024A90
:1012300013691843106170470038024029B9054A04
:10124000136A23EA000010627047024A136A1843C7
:10125000106270470038024029B9054A536A23EAF0
:10126000000050627047024A536A18435062704748
:101270000038024010B586B08DF814008DF81510B6
:101280000D4B9847044628B1022C14BF204600207D
:1012900006B010BD094B9847012302930522019225
:1012A00000930023022205A96F20054CA0470446A5
:1012B000044B9847E8E700BF4D3E0108F13E0108A6
:1012C0001D3F0108093F01082DE9F04387B007469B
:1012D000314B1A68314B1B68002B08BF01239B1A46
:1012E000B3F5FA7F02DC0AB1002944D006AE002330
:1012F00006F8013D2A4B98470624DFF8C480DFF842
:10130000B09001E0013C14D001220292019200232E
:10131000009331466F20C04705460128F2D10123D2
:10132000029301930093082249466F20C047051E8F
:10133000E8DD1C4B9847082D07D029461A481B4B5F
:101340009847002007B0BDE8F083194CE17901F01F
:101350000101184B1A68114319601748134B98473D
:1013600008212046154B98470C4B1B68002B08BFE3
:101370000123094A13600E4B5A793A701A797A7030
:10138000DA78BA709A7802F03F02FA705A783A71B5
:101390001B787B710120D5E72410002074100020F9
:1013A000F13E0108093F010880B701084D2B0108F3
:1013B000281000203410002094B701083D200108B7
:1013C0001D3F010810B588B000228DF81020037869
:1013D0008DF8163043788DF8153083788DF81430F9
:1013E000C37863F07F038DF8133003798DF81230E2
:1013F00043798DF811308DF81720102107201A4BF2
:101400009847011E0CDB194B9847044668B1082C1D
:101410001CD021461648174B9847002008B010BD35
:101420001548144B98470020F8E7144B98470123C0
:1014300002930522019200930023082204A96F2041
:101440000F4CA04704460F4B9847E0E700210720C8
:10145000054B9847011E01DB0120DFE70648054BDD
:1014600098470020DAE700BF751201084D3E0108D9
:10147000BCB701084D2B0108ACB70108F13E0108CB
:101480001D3F0108093F010810B582B00446002144
:101490006846134B984740B19DF801303BB124B1E9
:1014A00000982060BDF80430A38002B010BD202356
:1014B0008DF8003001238DF801308DF802301223B1
:1014C0008DF8033057238DF8043000238DF8053054
:1014D0006846044B98470448044B9847DFE700BF31
:1014E000C9120108C513010860B701084D2B010896
:1014F00038B558B90023892212491348134CA04724
:101500004FF47A75124C2846A047FCE7024671B9A1
:1015100000238A220B490C480C4CA0474FF47A75E3
:101520000B4C2846A047FCE713B9002006E0034611
:10153000994204D09B689342F6D1002038BD012027
:10154000FCE700BF08B8010820B801084D2B0108CE
:101550001523010838B54588C5F30E055DB900238C
:10156000412223492348244CA0474FF47A75234C49
:101570002846A047FCE70446082D19DC013D21461A
:101580001F4B53F825001F4B9847B0B921461C4B01
:1015900053F825001B4B98470346992214491548D8
:1015A000154CA0474FF47A75144C2846A047FCE729
:1015B0001F2DCCBF09250825E1E7A368A34206D16A
:1015C0000023A36063600E4A42F8253038BD0C4A00
:1015D00052F82520A24204BF094A42F82530626829
:1015E0005A606368A2689A600023A3606360EDE7B5
:1015F00008B8010820B801084D2B0108152301087F
:1016000044100020F11401082DE9F84F06460F465A
:101610000B681B1A5D09294649484A4B98471F2DFC
:1016200040F384804FF6FE74AC42A8BF2C4606EB14
:1016300044123A6031464448424B98473346002DA5
:1016400076D0002E76D0414AD2F800C0404AD2F877
:1016500000904FF6FF7547F6FF783E4FB4F5004F08
:10166000B4BF224642465A8096B21D801946634551
:101670002CBFA3EB0C05A3EB0905C5F34F15C6F36F
:101680000E00C0B1082822DC00F1FF3A57F82A20EA
:1016900022B39646BEF802B0CBF30E0B584535D9AF
:1016A000DEF808E07245F5D15068836050685860F4
:1016B0009A60536016E00023412227492748214CB5
:1016C000A0474FF47A75264C2846A047FCE71F2810
:1016D000CCBF4FF0090A4FF0080AD7E75B609B6068
:1016E00047F82A3061452CBF1E4A1F4A12685B88A2
:1016F000C3F30E0301EB431191421DD2A41B0B4611
:10170000002C11DD0029A9D1002016E0C3F808E063
:10171000DEF804005860CEF80430586883607245E3
:10172000E0D147F82A30DDE7002006E00F4804E06A
:10173000002002E0002000E00020BDE8F88F00BF9C
:10174000CCB701084D2B0108ECB701084010002070
:10175000381000204410002008B8010820B8010803
:10176000152301083C10002070100020F7ADFFFF8A
:1017700070B582B01A4B01221A601A4A1A4D2A60BB
:101780001A4921F003011A4C21601A481A4B1860BB
:101790001A4B23F003031A4E3360009019481A4E77
:1017A000B04729462068194B984700280FDB144B97
:1017B0001868114B1B68834202D92368984208D8E5
:1017C000094B1B680C4A13600D4A1360002002B0DD
:1017D00070BD09490D4B98470028F1DB0020F6E762
:1017E0006C100020007C001070100020E704001036
:1017F0003810002000FC01203C10002004C500200F
:10180000401000204CB801084D2B010809160108B2
:101810002DE9F04182B0074600F123084FEA58183D
:101820004FF0FF319E489F4B98471FFA88F56DB1E6
:10183000082D17DD1F2DCCBF09230823092B00F32A
:101840009080994901EB8301043972E00023412221
:1018500096499748974CA0474FF47A75964C28467E
:10186000A047FCE76B1E092B0BD900234D228F49A3
:101870008F48904CA0474FF47A758F4C2846A0476C
:10188000FCE7072BDADC884A52F823203AB986496C
:101890000133082BD5D051F82320002AF8D09468C2
:1018A000944225D051686160516890688860906862
:1018B0007D4941F823000023936053601446002CB7
:1018C0004FD06388C3F30E02954280F2B080214668
:1018D0007A4B1B689C4254D304EB42127848006850
:1018E000904240F2F980104604EB45152E46F7E091
:1018F0000022A26062606C4941F82320DFE7A16802
:10190000A1420CD0A24200F0BD8063684B606368C6
:10191000A2689A600023A3606360D0E714460022A7
:10192000A2606260604941F82320C8E701330A2BB6
:1019300017D051F8042F002AF8D05088C0F30E00B9
:10194000854240F39A809468A242EFD0002CEDD0FB
:101950006088C0F30E008542D1DDA468A242F5D1B3
:10196000E4E74F48574B984700974FF49A73564A0D
:101970004E4956484F4CA04701204F4B98470020F6
:101980006BE004EB4212524B1B6893427ED9104627
:1019900004EB45152E467DE000234122434944488F
:1019A000444CA0474FF47A75434C2846A047FCE7C7
:1019B000481E3D4B53F8203083B11A46B2F802C09E
:1019C000CCF30E0C614526D992689342F6D15A6841
:1019D00096605A687260B3605E6004E07660B660DC
:1019E000314B43F82060354B1B68AB4294BF344AFF
:1019F000374A11687288C2F30E0205EB42128A421E
:101A00001CD2DAB1AB4284BF324B1B68EB1AC3F372
:101A10004F13138012E0B2605168716056607168B4
:101A20008E609342DFD1204B43F82060DBE7954284
:101A300016D16FEA43436FEA534363801848214B42
:101A40009847201D002F08DD04373C440346002141
:101A50005A1C197013469442FAD102B0BDE8F081C5
:101A600000234FF4A77211491148124CA0474FF4BC
:101A70007A75114C2846A047FCE7916891423FF4E3
:101A80004DAF1446084A42F823103EE704EB4515D3
:101A90002E4600200F4B1B68CB1AC3F34F1322E0D6
:101AA0006C100020512401084410002008B80108DF
:101AB00020B801084D2B0108152301084010002013
:101AC0003C100020CD24010840B80108F0B4010802
:101AD000701000203810002004EB45152E46002021
:101AE000CB1AC3F34F131FFA88F833806388C3F30C
:101AF0000E03A3EB080373806FEA48436FEA534376
:101B0000638058B1438813F4004F07D17288D1180D
:101B1000B1F5004F02DA7180074B98477188C1F325
:101B20000E0100293FF438AF08297FF741AF1F2984
:101B3000CCBF092008203CE755150108002800F01B
:101B4000B98070B505464FF0FF315B485B4B984755
:101B50002E1F3446738813F4004F0DD103F4004355
:101B600040F2711256495748574CA0474FF47A75C6
:101B7000564C2846A047FCE7C3F30E03738035F8A4
:101B8000042C4FF6FF718A4233D051490D68AE42A2
:101B90003CBF50490D6805EB42154D4A126896420C
:101BA0002CBF4D4A4D4A126806EB431090420BD2AF
:101BB00050B1428812F4004F06D1D118B1F5004F50
:101BC00002DA7180464B984745B16A8812F4004F9B
:101BD00004D173881344B3F5004F0CDB6288C2F361
:101BE0000E028AB1082A1BDD1F2ACCBF092008205B
:101BF00017E00025D1E72846394B98476B88728853
:101C000013446B802C46E9E7002341222C492D48E0
:101C10002D4CA0474FF47A752C4C2846A047FCE782
:101C2000501E304B53F82010B1B10B465D88C5F300
:101C30000E05AA422FD99B689942F7D14B689C6048
:101C4000284B53F820205268626053F82020A2608D
:101C500053F820305C6003E06460A46043F82040E7
:101C60001B4B1B689C422CBF1B4A1C4A1568628890
:101C7000C2F30E0252011019A84208D238B19C4298
:101C80003CBF144B1B68E31AC3F34F1313530A48AA
:101C9000154B984770BDA3605A6862605C606268CB
:101CA0009460104A52F820209342D9D10D4B43F84A
:101CB0002040D5E7704700BF6C1000205124010878
:101CC00008B8010820B801084D2B010815230108A8
:101CD00040100020381000203C1000207010002020
:101CE0005515010844100020CD2401080420704738
:101CF000084B1B6813F4803F0BD0074A136801336D
:101D00001360064B4AF6AA221A60054B4FF0805228
:101D10005A60704710E000E074100020003000406E
:101D200000ED00E000B585B06846144B9847019B74
:101D3000134AA2FB03235B0A013B124A53600023B0
:101D40009360114BE02183F82310072313606FF099
:101D500004000E4B984745F255500D4B9847032011
:101D60000C4B98474FF496700B4B98470B4B98478A
:101D70000B4B984705B05DF804FB00BFFD10010850
:101D8000D34D621010E000E000ED00E04176010864
:101D9000CD7C0108D97C0108E57C0108F17C0108B3
:101DA000017D0108044B1B681844034A13681B1A81
:101DB000002BFBDB704700BF741000202DE9F843B7
:101DC0004FF6FF7398420ED004468946DFF89C8098
:101DD000224F234E0CE02A4621462248224B9847A8
:101DE0002846BDE8F8830825FAE70825F8E708241F
:101DF000C04702212046B8470546B047082DEAD122
:101E0000A145F2D0002CF2D0082C13D0102C13D006
:101E1000182C13D0202C13D0282C13D0302C13D0F6
:101E2000382C13D0402C13D0482C13D0502C13D066
:101E30000825D5E71024DBE71824D9E72024D7E7C5
:101E40002824D5E73024D3E73824D1E74024CFE74E
:101E50004824CDE75024CBE75824C9E7417901084D
:101E6000B578010880B801084D2B01089578010864
:101E700010B50A4C4FF0FF312046094B98475821C6
:101E80003820084B984701460748084B9847084BAD
:101E9000084A1A602046084B984710BD7C10002065
:101EA00051240108BD1D0108A0B801084D2B0108EF
:101EB0007810002000000608CD24010870B5134BEF
:101EC00001221A601249134B196000241646124D64
:101ED0000BE0104B196018E00E4B19600F4B984740
:101EE00013E020313446A942F6D80B68B3F1FF3F26
:101EF000F7D10B1D01F120001A68B2F1FF3FF0D1BC
:101F000004338342F8D1002CE3D170BD7C10002053
:101F10000000060878100020FFFF0F08711E01085E
:101F200008B51B4B98471B4A1B4B9A420DD2194AC6
:101F3000111D1A4B5B1A23F003030B44184951F887
:101F4000040B42F8040B9A42F9D1164A164B9A42F6
:101F50000BD2144A111D154B5B1A23F003030B44DB
:101F6000002142F8041B9A42FBD1114A114B9A609E
:101F7000ADF5007383F309884FF0020282F31488F1
:101F8000BFF36F8F0C4B98470C4B9847FEE700BF91
:101F9000A180010800000010E4040010E704001014
:101FA000DCC201080000002001C5002004C500209B
:101FB0000000010800ED00E0B5B20108456201082B
:101FC00089B110B441180023084C10F8012B82EAA3
:101FD000132234F8122082EA03239BB28842F4D100
:101FE000184610BC7047002318467047C4B8010853
:101FF00070B4F1B1411800240F4E10F8015B85EA6E
:10200000142536F8155085EA0424A4B28842F4D188
:1020100063B11344084D12F8011B81EA142135F80D
:10202000110080EA0424A4B29A42F4D1204670BC84
:1020300070470024ECE700BFC4B801082DE9F8435D
:1020400005460E461348144B9847002E1CDD297890
:102050001248114B98470024DFF840800E4FDFF8FC
:1020600040900134A6420FD015F8011F4046B847F2
:10207000624204F00F0302F00F0258BF53420F2BCD
:10208000EFD14846B847ECE70548034B9847BDE811
:10209000F88300BFC4BA01084D2B0108ECBA01084F
:1020A000E8B7010808B5C36800699847F02383F3CF
:1020B0001188054B1A6800239361044A4FF0805140
:1020C000516083F3118808BDE011002000ED00E0AD
:1020D0000C4A0D4B136011680120886111680022C1
:1020E0004A615A641A67C3F89C20C3F8C820C3F831
:1020F000F420C3F82021C3F84C21044BF02283F8CC
:1021000022207047E01100208010002000ED00E048
:102110002DE9F84380461C4C01251C4EDFF87890D1
:102120001B4F06E029461B48B84701352C34082DC3
:1021300026D0636C002BF8D0236B1968B142F1D123
:10214000616B80398908012916D95A68B2F1FF3FBD
:1021500014D10833012201328A4204D053F8040B0F
:10216000B0F1FF3FF7D0B8F1000FDED0013A920096
:1021700029464846B847D8E70122F4E70122F2E7AA
:102180000020BDE8F88300BF8010002001F65AA5AA
:102190004D2B0108F4BA010810BB010812F0030F1F
:1021A00040F0A7808446FF2B40F2A5802DE9F04146
:1021B000F02080F311885148406C60B14F4C0220F0
:1021C000256F4DB101302C340828F9D1002383F359
:1021D00011884B488BE00120484D2C2404FB00F46F
:1021E00005EB040E0828F1D0464E1660A3F18006D8
:1021F000042E0DD9161DA3F1850727F0030702F160
:10220000080847444FF0FF3846F8048BBE42FBD124
:10221000CEF80420CEF808301A44131F2B514FF08B
:10222000807342F8043C2B591A1F2A51364A43F84E
:10223000042C2A59131F2B51002342F8043C2A591D
:10224000161F2E5142F8043C2A59161F2E5142F8EF
:10225000043C2A59161F2E5142F8043C2A59161FD5
:102260002E5142F8043C2A59161F2E5142F804EC14
:102270002A59161F2E516FF0020642F8046C2A5993
:10228000161F2E5142F8043C2A59161F2E5142F8AF
:10229000043C2A59161F2E5142F8043C2A59161F95
:1022A0002E5142F8043C2A59161F2E5142F8043C84
:1022B0002A59161F2E5142F8043C2A59161F2E5136
:1022C00042F8043C2A59161F2E5142F8043CCEF81D
:1022D0000CC0CEF810100122CEF81820069ACEF8C5
:1022E0001420CEF82030CEF8243083F31188BDE8D6
:1022F000F081064870470648704700BF80100020F4
:10230000F4ADFFFF01F65AA5A5200108F3ADFFFFCC
:10231000F2ADFFFF08B5F02383F31188002815DB29
:102320000F4B1A680F4B9A4214D00D4B1B680222B8
:102330009A610D4B1B68002B08BF0123084A1268E5
:1023400018445062094B4FF080525A60002383F3C7
:10235000118808BD002383F31188054B9847F8E7DF
:10236000E0110020801000207410002000ED00E03B
:10237000A51D0108F0B51A4B0027BC4601241948D9
:1023800025464FF0030E19E012F0020F0FD002683D
:10239000002A08BF01220E6D921B002A07DB4D6444
:1023A0004D650A6CBA42C4BF1746A44602E04A6CA7
:1023B000012AF6D001342C33082C0CD019465A6C63
:1023C00012F0080FE0D09E6C3668002EDCD05D6401
:1023D000C3F854E0E5E7024B2C2000FB0C30F0BDC5
:1023E000801000207410002003682BBB31B310B4A0
:1023F000F02383F311880029CCBF0A240824104B52
:102400001A6894611B68D8610E4B1B68002B08BFCB
:1024100001230B4A1068194441620B4B4FF0805165
:102420005960002383F3118813689B6A032B0748C4
:1024300008BF002010BC7047002070470348704759
:10244000E01100207410002000ED00E0F8ADFFFF67
:10245000F02383F311880368002B05DD013B036043
:10246000002080F31188704719B310B4013B03605A
:102470000029CCBF06240424104B1A6894611B6801
:1024800018620F4B1B68002B08BF01230B4A106812
:10249000194441620B4B4FF080515960002383F384
:1024A000118813689B6A022B074808BF002010BCE4
:1024B0007047002383F3118803487047E011002020
:1024C0007410002000ED00E0F8ADFFFFF02383F36F
:1024D0001188036801330360002B03DD002383F3BD
:1024E0001188704770B4134B00263546012203E073
:1024F00001322C33082A0CD0596811F0040FF7D0A0
:10250000D9688142F4D11968B142C4BF0E4615465C
:10251000EEE7094B2C2202FB053301229A610222CD
:102520009A62064B4FF080525A60002383F3118861
:1025300070BC7047C01000208010002000ED00E04B
:1025400000B5FFF717FF5DF804EB084A11688842F1
:102550000AD01060EFF3098323E9F04F0B600368A2
:10256000B3E8F04F83F3098870477047E01100200B
:10257000502383F311887047002383F31188704739
:102580002DE9F84307460E464FF0FF312C482D4BFE
:102590009847002E4FDD2C4CDFF8BC904FF0000820
:1025A00007E088F31188002D41DD2F44761B002EB3
:1025B00041DD502383F31188A2886188551AB54202
:1025C000A8BF354623880B449A42D8BF9B1A002DDA
:1025D0000DDD7A1E02EB050C12F8010FA168C8543C
:1025E0000133A1888B42A8BF00236245F4D16388E0
:1025F0002B449BB26380002BD3D0E388002BD0D137
:1026000041464846114B98472288A3681344C9F8AD
:102610000C306388A18898188842C8BF8B1AC9F803
:102620000430E38001214846084B9847B9E702206F
:10263000074B9847BBE70248064B9847BDE8F8832D
:10264000041B002051240108F4110020097801081E
:1026500015230108CD240108B8640240F0B4344BBE
:102660005968C1F180011B6813F4002F31D0314B40
:102670001B681BB1304B1C688C4201DBF0BC7047FF
:102680002E4A908855880B1B471B9F42A8BF1F46A8
:1026900013882B449842D8BF1B1A002F12DD2848FC
:1026A00004F17F0202447F3020443844234C12F866
:1026B000016FA568EE540133A588AB42A8BF002383
:1026C0009042F4D11D4A53883B4453801A4B196001
:1026D000D4E7184B18680028D0D1174B1C688C42DF
:1026E000CCDA164A958856880F1BAB1B9F42A8BFB1
:1026F0001F46138833449D42D8BF5B1B002F0FDD5C
:102700000F4A224402EB070C0C4C12F8016BA5682F
:10271000EE540133A588AB42A8BF03466245F4D10D
:10272000064B5A8817445F80034B1960A6E700BF29
:1027300088640240E411002000130020E81100200A
:102740000012002070B506460C46502383F3118812
:10275000104B9847104B5888A042A8BF20461B88B2
:1027600000280EDD721E0644013E0B4CA568ED5C90
:1027700002F8015F0133A588AB42A8BF0023B24233
:10278000F4D1054A138053881B1A5380002383F326
:10279000118870BD5D260108E81100202DE9F04187
:1027A0000C1E11DD0546094E4FF00208084F03E0EC
:1027B0004046B847002C07DD21462846B047002890
:1027C000F6DD0544241AF5E7BDE8F0814527010848
:1027D0001523010810B5204AD3885288934211DB93
:1027E0001D4B00225A801A801C4B4FF07462DA6035
:1027F000194B5B88BBB90021174BD9801848194B7E
:10280000984710BD002BEFD013480188194489B2B6
:1028100001808088814202D3091A0F480180D31AAF
:102820000D4A5380E0E70E4C002120460D4B98479F
:10283000094B19889A680A44E2605A889B885018A4
:102840009842C8BF5A1A06484260034BDA800121F9
:10285000044B9847D5E700BFF41100200064024004
:10286000B864024009780108F0B4384B4FF4746240
:10287000DA6088331B6813F4002F32D0344B1968A8
:1028800019B9344B18687F2807DD314B01221A60D3
:10289000304B00221A60F0BC70472F4A948855884C
:1028A000C0F18006631B9E42A8BF1E4613882B44BE
:1028B0009C42D8BF1B1B002E0EDD284A02449719EC
:1028C000254812F8015B8468E55401338488A342EB
:1028D000A8BF0B46BA42F4D11F4B5A8816445E80FB
:1028E000D3E71B4B1B681BB11A4B18687F2805DD0B
:1028F0000023174A1360174A1360CCE7164A9188E1
:102900005488C0F180030E1B9E42A8BF1E46138848
:1029100023449942D8BF5B1A002E12DD0F4900F103
:102920007F020A447F31014431440B4812F8015FB1
:102930008468E55401338488A342A8BF00238A42F7
:10294000F4D1054A538833445380D1E700640240F0
:10295000E411002000130020E811002000120020E4
:102960002DE9F04F91B05B4B5B4A9A604FF40061E8
:1029700099800024DC805C801C80584A584B93600E
:102980009180D48054801480564B1C60564B1C6040
:10299000564B1A60564A5A60564A9A60564ADA604E
:1029A000564A1A61564A5A61564A9A61564B012252
:1029B0001A600190ADF80840ADF80A40ADF80C403F
:1029C000ADF810400C23ADF80E3001A94F48504B24
:1029D000984701214FF480004E4B98474FF0006B11
:1029E000CDF804B0DFF84CA1CDF808A00394402640
:1029F00004968027059706944FF480630793089404
:102A000009940A944FF400330B930C9403230D9311
:102A10000E940F94DFF8208140463F4DA84701A94E
:102A20004046DFF81891C847012210214046DFF8E0
:102A30001081C047CDF804B0CDF808A0DFF804A19C
:102A4000CDF80CA00494059706944FF48063079387
:102A5000089409940A944FF400330B930C940323C5
:102A60000D930E940F94DFF8E0B05846A847224625
:102A70000AEB07015846294B984701215846284B35
:102A8000984701A95846C847012210215846C04717
:102A9000244B502283F825232021596083F84623B4
:102AA0009E6083F8442310229A6001223946174819
:102AB0001D4CA047012231461448A0470121584629
:102AC0001A4B984701211148194B984711B0BDE89E
:102AD000F08F00BFF4110020081B0020E811002037
:102AE00004130020E4110020001300200827002018
:102AF000712501087925010881250108452701086C
:102B00009D2701085D260108041B002000100140DC
:102B1000AD7F0108B1110108597601081F7801083D
:102B20003778010800E100E08B800108097801088E
:102B30007180010804100140B8640240B1770108B7
:102B40004D78010800120020886402400FB42DE97E
:102B5000F04383B00AAC54F8046B4FF0FF313848AF
:102B6000384B98470194384D234632464FF48061E4
:102B70002846364CA0472B7873B115F8013F002B3F
:102B8000FBD1314BED1A002D52DD2F4F304CDFF8C9
:102B9000D0904FF0000809E02B4DF2E788F3118840
:102BA000002E41DD3744AD1B002D41DD502383F362
:102BB0001188A2886188561AAE42A8BF2E46238883
:102BC0000B449A42D8BF9B1A002E0DDD7A1E02EBF1
:102BD000060C12F8010FA168C8540133A1888B427A
:102BE000A8BF00239445F4D1638833449BB263802B
:102BF000002BD3D0E388002BD0D141464846154B5B
:102C000098472288A3681344C9F80C306388A188C8
:102C100098188842C8BF8B1AC9F80430E380012194
:102C200048460C4B9847B9E702200B4B9847BBE747
:102C300003480A4B984703B0BDE8F04304B070471F
:102C4000041B00205124010808230020F169010819
:102C5000F41100200978010815230108CD2401088A
:102C6000B8640240014B5888704700BFE81100204B
:102C7000084B5B8898420ADA064A138818449388FE
:102C80009842A8BFC01A034B9B68185C704700208D
:102C9000704700BFE811002070B4104B5B888418A7
:102CA0009C42C8BF1A1A0D4C23880344A088834253
:102CB000A8BF1B1A002A0DDD01398E18074CA56824
:102CC000ED5C01F8015F0133A588AB42A8BF00238A
:102CD000B142F4D1104670BC704700BFE81100202B
:102CE0000C4B5A88904211DA00280EDD80B2094957
:102CF0000B8803449BB20B8089888B4202D35B1AFA
:102D000004490B80101A034B5880704700225A80E8
:102D10001A807047E8110020A02383F311887047C0
:102D2000002383F3118870472DE9F8430E1E52DD0E
:102D30000746DFF8B480294CDFF8B09008E00023A4
:102D400083F311889D4242DD2F44761B002E42DD25
:102D5000C047A02383F31188A2886188551AB54221
:102D6000A8BF354623880B449A42D8BF9B1A002D32
:102D70000DDD7A1E02EB050C12F8010FA168C85494
:102D80000133A1888B42A8BF00239445F4D1638806
:102D90002B449BB26380002BD1D0E388002BCED193
:102DA000002148460E4B98472288A3681344C9F86F
:102DB0000C306388A18898188842C8BF8B1AC9F85C
:102DC0000430E38001214846054B9847B7E70220CD
:102DD000044B9847BAE7BDE8F88300BF34270020CA
:102DE0000978010815230108B9070108706002403D
:102DF000F0B4344B5968C1F180011B6813F4002F03
:102E000031D0314B1B681BB1304B1C688C4201DB4D
:102E1000F0BC70472E4A908855880B1B471B9F4279
:102E2000A8BF1F4613882B449842D8BF1B1A002FF7
:102E300012DD284804F17F0202447F3020443844E8
:102E4000234C12F8016FA568EE540133A588AB42FC
:102E5000A8BF00239042F4D11D4A53883B445380BD
:102E60001A4B1960D4E7184B18680028D0D1174BBB
:102E70001C688C42CCDA164A958856880F1BAB1B0F
:102E80009F42A8BF1F46138833449D42D8BF5B1B97
:102E9000002F0FDD0F4A224402EB070C0C4C12F8F6
:102EA000016BA568EE540133A588AB42A8BF034669
:102EB0006245F4D1064B5A8817445F80034B196072
:102EC000A6E700BF406002402427002040280020E1
:102ED000282700204027002070B506460C46A02376
:102EE00083F31188104B9847104B5888A042A8BF15
:102EF00020461B8800280EDD721E0644013E0B4C46
:102F0000A568ED5C02F8015F0133A588AB42A8BF5C
:102F10000023B242F4D1054A138053881B1A538010
:102F2000002383F3118870BDF12D010828270020AC
:102F30002DE9F0410C1E11DD0546094E4FF0020847
:102F4000084F03E04046B847002C07DD21462846DD
:102F5000B0470028F6DD0544241AF5E7BDE8F08106
:102F6000D92E01081523010810B5204AD3885288AC
:102F7000934212DB1D4B00225A801A801C4B3D22CB
:102F8000DA601A4B5B88CBB90021184BD9801948FD
:102F9000194B9847194B984710BD002BEED013489A
:102FA0000188194489B201808088814202D3091ABC
:102FB0000E480180D31A0D4A5380DFE70D4C0021E3
:102FC00020460D4B9847094B19889A680A44E260DD
:102FD0005A889B8850189842C8BF5A1A05484260C0
:102FE000024BDA800121044B9847D5E734270020B3
:102FF00000600240706002400978010891070108F2
:10300000F0B4384B4FF474129A6040331B6813F4D9
:10301000002F32D0344B196819B9344B18687F2807
:1030200007DD314B01221A60304B00221A60F0BCE0
:1030300070472F4A94885588C0F18006631B9E42D2
:10304000A8BF1E4613882B449C42D8BF1B1B002ED2
:103050000EDD284A02449719254812F8015B84685E
:10306000E55401338488A342A8BF0B46BA42F4D189
:103070001F4B5A8816445E80D3E71B4B1B681BB15D
:103080001A4B18687F2805DD0023174A1360174A7A
:103090001360CCE7164A91885488C0F180030E1B58
:1030A0009E42A8BF1E46138823449942D8BF5B1A8C
:1030B000002E12DD0F4900F17F020A447F310144E6
:1030C00031440B4812F8015F8468E5540133848869
:1030D000A342A8BF00238A42F4D1054A538833444F
:1030E0005380D1E7006002402427002040280020C0
:1030F00028270020402700202DE9F04F91B00546F9
:10310000594B5A4A9A604FF4007199800024DC8030
:103110005C801C80564A574B93609180D4805480C9
:103120001480554B1C60554B1C60554B1A60554A1A
:103130005A60554A9A60554ADA60554A1A61554AAA
:103140005A61554A9A610A210520544B98470195C6
:103150004FF48053ADF80830ADF80A404FF4806664
:10316000ADF80C60ADF810400C23ADF80E3001A99D
:103170004B484C4B984701214FF400104A4B98475D
:103180004FF0006BCDF804B0DFF844A1CDF808A0F3
:10319000039440230493802505950694079608948C
:1031A00009940A944FF400330B930C9403230D936A
:1031B0000E940F943D4F3846DFF81891C84701A987
:1031C0003846DFF81481C047012210213846384FB5
:1031D000B847CDF804B0CDF808A0DFF800A1CDF8CD
:1031E0000CA00494059506940796089409940A94F3
:1031F0004FF400330B930C9403230D930E940F9410
:103200002C4E3046C84722460AEB050130462A4B71
:10321000984701213046294B984701A93046C047BD
:10322000012210213046B847254BA02283F80F23F6
:103230004FF40041196083F80D234FF400521A60D7
:103240000122294616481F4CA0470122402114485C
:10325000A047012130461C4B9847012110481B4BC9
:10326000984711B0BDE8F08F34270020442A002091
:103270002827002044280020242700204028002060
:10328000442C0020192D0108212D0108292D0108A9
:10329000D92E0108312F0108F12D0108A94001089C
:1032A000004C0040AD7F0108B11101087060024080
:1032B0004D780108406002401F7801083778010806
:1032C00000E100E08B8001080978010871800108A5
:1032D000044C004059760108B177010840270020CE
:1032E000F8B53948394B9847394B98470027394C3E
:1032F000394D3A4E12E00120394B98472B6821682E
:10330000002908BF0121C91A2960022958D8354A65
:103310002B6811688B4238BF0B4613602368002B63
:1033200008BF0123DB1BB3F57A7F03DD2768002F7D
:1033300008BF01272368002B08BF01232B602A4BFD
:1033400098472A682368002B08BF01239B1A022B89
:1033500007DD2168002908BF0121891A23481B4B7A
:1033600098472368002B08BF01233360204B984700
:1033700032682368002B08BF01239B1A022B07DD4C
:103380002168002908BF0121891A1A480F4B984764
:103390002368002B08BF01233360174B984732681E
:1033A0002368002B08BF01239B1A022BA3DD216891
:1033B000002908BF0121891A1048044B98479AE751
:1033C0000F48024B9847A2E738BB01084D2B010874
:1033D000016101087410002070300020743000205A
:1033E00015230108783000200D6101084CBB01084D
:1033F000E590010854BB0108AD9701085CBB0108CA
:1034000064BB0108F8B507460E4615460A4C4FF056
:10341000FF312046094B9847094B1868384418601B
:10342000084B196831441960074B1A682A441A601E
:103430002046064B9847F8BD64300020512401080F
:10344000603000206C30002068300020CD2401085E
:1034500010B582B01248134B9847134B01221A60E3
:10346000124B9847124B9847041E11DB114B98479B
:10347000114B9847114B9847642300934FF4806396
:103480000F4A00210F48104CA047041E03DB002404
:10349000204602B010BD21460C48024B9847F7E782
:1034A00084BB01084D2B010864300020D134010891
:1034B00019610108918D0108BD9501085535010874
:1034C000602C0020E13201089D2101089CBB01080D
:1034D00001220D4B1A600D4B1A600D49D9607F20F7
:1034E000186159610B49996183F82A206C2283F88D
:1034F00032206F2283F8332040F2DC521A850020FC
:103500005860054A13607047C03000207C300020AE
:103510007F000001AD960108BC30002010B50446C4
:1035200090F8332090F832100848094B984794F8E7
:103530002A3013F0010F07D143F0010384F82A3039
:10354000236A0BB12046984710BD00BFB8BB0108E5
:103550004D2B0108014B01221A607047C430002036
:10356000F8B504460D46C7882037C619C35B5BBA59
:10357000C35373885BBA7380B3885BBAB3804FF070
:10358000FF313648364B9847364B1B68002B38D0F6
:10359000718807E09A68CAB1A069824216D05B6858
:1035A000002B2ED09A898A42F9D11A6912B1286962
:1035B0008242F4D15A6912B1E8688242EFD1DA89C5
:1035C000002AE7D030889042E9D1E3E7E288083268
:1035D000E2802289083A22816289083A6281EA6897
:1035E0002262E25BA284002222609A693AB1DA691F
:1035F0001460DC6119481C4B984700202CE09C614A
:10360000F7E71648184B984705F11000174B9847F5
:10361000F0B92B6903F07F027F2A19D003F0F00381
:10362000E02B15D005F10C063046104B984778B9C1
:10363000EB6803F07F027F2A0AD003F0F003E02B4F
:1036400006D02346324603210846094CA04703E032
:103650002046084B98470020F8BD00BFC43000202A
:1036600051240108C8300020CD240108A19401088C
:103670009D980108999F01082DE9F04782B0BDF897
:103680002850B2F5B86F1EDC0746894690461E46A4
:1036900002682E4B9A4219D13EB105BBFD893368B1
:1036A000BBB1FDB9DFF8C4804CE000F11406F4E7CB
:1036B000CDF800A06123264A26492748274CA04779
:1036C000DFF8AC803EE0DFF8AC803BE0DFF8A880BC
:1036D00038E0DFF8A88035E0DFF8A08032E033681A
:1036E000002BF9D008F12C0A50461D4B9847044690
:1036F0000028DDD02C23C3800B9B836142464946C2
:10370000184B98478046E288083A92B2E2802389B3
:10371000083323816389083363812032A118B88973
:10372000A0524D8067890023CB8040BAA0526DBA69
:103730004D807ABA8A80402200921122314620467A
:10374000094CA047404602B0BDE8F0870B3FA59D5D
:10375000CCBB0108DCBB0108F0B401084D2B01080B
:103760009D9E010851A10108DD950108D7B1FFFF19
:10377000C8B1FFFFD9B1FFFFDDB1FFFFD8B1FFFF37
:103780002DE9F047089FDDF824A005681A4CA542F2
:103790002BD11E469046894605464FF0FF3117480B
:1037A000174B9847AC6914B32368AB61DBB113487E
:1037B000144B98470EB1236A33600FB1A38C3B8042
:1037C000BAF1000F02D0A369CAF8003043464A4656
:1037D000002120460C4DA847054620460B4B984734
:1037E0002846BDE8F087EB61E1E7094DF8E70348BB
:1037F000044B9847074DF3E70B3FA59DC4300020CD
:1038000051240108CD24010819A00108999F01083D
:10381000DDB1FFFFDBB1FFFF10B582B000240194E2
:10382000049C0094014CA04702B010BD81370108F0
:10383000F8B505462020284B9847002849D0044673
:1038400000F120010346002203F8012B9942FBD12D
:103850004FF0FF312148224B9847224B1A88224BC8
:10386000186842F2117647F2305744F6206CBA429B
:103870001ABF013292B26246B0B18389934205D039
:1038800003465B689BB199899142FAD1013EEED122
:10389000144B1A800023A3811048144B98472046EC
:1038A000134B9847134813E00E4B1A8001E00D4B61
:1038B0001A800C4B1B88A381002BEDD060600A4B53
:1038C0001C600648094B98470B4B23602C60002076
:1038D000F8BD0A48FCE700BF11180108C4300020F9
:1038E00051240108A8000010C8300020CD24010890
:1038F0003D1B0108D6B1FFFF0B3FA59DF7ADFFFFB4
:103900002DE9F04705681A4CA5422ED10746994685
:1039100016468A4680464FF0FF311648164B9847A8
:10392000164B1C689CB9BAF1000F1AD0DAF80030B7
:10393000C8F81030A8F80C60C8F808900D48104B73
:1039400098470020BDE8F0876468002CEBD0A742C0
:10395000FAD0A589B542F7D10648094B98470948DE
:10396000F0E70023C8F81030E4E70748EAE700BFB3
:103970000B3FA59DC430002051240108C830002011
:10398000CD240108DCB1FFFFDDB1FFFF0A4B0022AF
:103990001A615A610949896C4A6202221A60084A0E
:1039A000138843F480731380064B4FF000421A6073
:1039B00001225A60704700BFCC3000200431002043
:1039C0000054004000E100E008B50D4B1A8842F4B5
:1039D00000721A809B8A13F0100F0ED0094A4FF024
:1039E0000043C2F880300123C2F88430064A926C4A
:1039F00000215162054A136008BD054B9847FBE75B
:103A00000054004000E100E004310020CC300020F0
:103A10008D3901080122104B1A60104B00211960EA
:103A200058610F4B1964996C0B8823F001031B0438
:103A30001B0C0B800B4B4FF00041C3F88010C3F8F8
:103A40008420002802DB054BDB6823B1064A13887B
:103A500043F4007313807047F8300020CC3000200E
:103A60000431002000E100E00054004008B51A4B8A
:103A70001B68013B032B19D8DFE803F0020E1E1E62
:103A8000164B9B8A13F0100F03D01548154B98471F
:103A90000CE0154B984709E00F4B9B69002B07DDA5
:103AA0000D4A9369013B9361104B9847012008BD73
:103AB0000F480C4B9847F9E7074B9B69002B06DD35
:103AC000054A9369013B9361084B9847EEE76FF411
:103AD0007B70044B9847E9E7CC300020005400404D
:103AE00012FCFFFF153A01088D390108C939010898
:103AF00014FCFFFF08B5174A938A128B43EA02436E
:103B000013F4807F0DD113F4007F1BD113F4806F69
:103B10001AD103F48043002B0F4808BF4FF0FF3049
:103B200000E00E480B4B00229A820D4BDB6993425A
:103B30000DDD0B4BDA69013ADA610A229A61094B11
:103B4000984708BD0848EDE76FF47A70EAE7074B3D
:103B50009847F6E70054004014FCFFFF18FCFFFFF5
:103B6000CC300020C939010816FCFFFF153A0108C6
:103B7000434B9B6C00225A62424A938A128B43EA5F
:103B80000243414A1268022A11D03F4A1268032AAE
:103B900021D010B53C4A1268032A28D03A4A12684C
:103BA000042A39D0384A1268042A46D010BD374A50
:103BB0009A43EAD1344B9B68002B14BF04230323A0
:103BC000314A136092F82410936843EA41039BB290
:103BD0002C4A138270472E4A9A43DAD12A4B996AAB
:103BE0001A69501C18618A5C264B1A827047294A50
:103BF0009A43D3D1244B1A695B689A4208DA224B64
:103C0000996A1A69501C18618A5C1E4B1A82CDE7AA
:103C10000120214B9847C9E7204A9A43C2D11A4B49
:103C20005B68012B174A1388CFBF43F4806323F4EA
:103C300080631B041B0C1380B8E7194A32EA0303A4
:103C4000B4D1104B188A104B996A1A69541C1C6124
:103C500088541A695B68013B9A4208D00A4B1A697A
:103C60005B689A42A2D101200B4B98479EE7054A18
:103C7000138823F480631B041B0C138096E700BF9A
:103C80000431002000540040CC300020010003002B
:103C90008200070080000700153A010802000300B7
:103CA0004000030070B584B02B482C4B984700218E
:103CB0004FF400102A4B984701238DF80C30002553
:103CC0008DF80E508DF80F3002238DF80D3004A9B9
:103CD0004FF4407341F8083D224C2046224B984750
:103CE0004FF480712046214EB0474FF400712046BA
:103CF000B0470095009B142B22DC1D4E1B4D16E097
:103D00004FF480712046B04700230193019BB3F527
:103D1000FA7F06DA019B01330193019BB3F5FA7F29
:103D2000F8DB009B01330093009B142B08DC009B05
:103D300013F0010FE4D04FF480712046A847E3E769
:103D4000084D4FF480712846084CA0474FF400718D
:103D50002846A04704B070BD10BC01084D2B0108D7
:103D6000E91101080004024049100108CD100108C2
:103D7000D110010870B584B006461C4C20461C4B7F
:103D800098470023ADF804304BF6FF73ADF80630CA
:103D90004823ADF808304FF48063ADF80A304FF493
:103DA0008043ADF80C3004AD45F8106D012120467C
:103DB000104B9847294620460F4B98470121204633
:103DC0000E4B9847032104200D4B984701220D4BC1
:103DD0001A604FF4E06120460B4B98470B4B3022A2
:103DE00083F81F2383F8202304B070BD00540040E3
:103DF000497B0108857C0108AD7B01089F7C010897
:103E0000A9400108FC300020B97C010800E100E075
:103E100008B50748074B9847074B98470120074BC1
:103E20009847074B98470748074B984708BD00BF7E
:103E300000BC01084D2B0108A53C01081523010811
:103E4000E1620108801A0600753D0108F8B51E4BB5
:103E50001B8B13F0020F27D001201C4B9847052421
:103E6000194D0127194E2B8B13F0020F1CD0384629
:103E7000B047013CF7D1164B196801311960154B59
:103E80001C691B69E40904F00204C3F340231C43CA
:103E900022461148114B9847032C09D00C4B1B6844
:103EA000092B09DC0E48F8BD0020094B1860FAE721
:103EB0000C480D4B9847F1E7054B00221A600B4B5D
:103EC00098470748EFE700BF00540040152301085A
:103ED0000031002000040240F4BB01084D2B010812
:103EE00011FCFFFF801A0600753D0108113E010814
:103EF00008B54FF0FF310248024B984708BD00BF9C
:103F0000FC3000205124010808B50248024B9847B4
:103F100008BD00BFFC300020CD24010810B53024BE
:103F200084F311881D4C84F82400A1626260A360B0
:103F3000029BE3600A23A361039BE361049B23626A
:103F40000022174B1A60174B174919645A649B6C6F
:103F5000C721D9625A621A8842F001021A80134BB3
:103F60009B8A13F0100F15D00E4B9B6C00225A62E7
:103F700001222260002383F311884FF0FF310848AB
:103F80000B4B9847054B5B69002B044BB4BF58693A
:103F9000186910BD074B9847ECE700BFCC300020F4
:103FA000F8300020043100206D3A01080054004030
:103FB000E92301088D39010808B50D4B9A6A4FF6BF
:103FC000FE7111821B6A6BB1094A506A984750B959
:103FD000074B00221A629A6A138823F001031B041C
:103FE0001B0C138008BD024B9B6A00225A62F9E742
:103FF0000431002008B50D4B9A6B4FF6FE7111820B
:104000001B6B6BB1094A506B984750B9074B0022A4
:104010001A639A6B138823F001031B041B0C138093
:1040200008BD024B9B6B00225A62F9E70431002065
:1040300008B50D4B9A6C4FF6FE7111821B6C6BB17B
:10404000094A506C984750B9074B00221A649A6C81
:10405000138823F001031B041B0C138008BD024BC3
:104060009B6C00225A62F9E70431002008B50D4B21
:104070009A6D4FF6FE7111821B6D6BB1094A506D3E
:10408000984750B9074B00221A659A6D138823F0A0
:1040900001031B041B0C138008BD024B9B6D002207
:1040A0005A62F9E70431002070B584B005465F4AD2
:1040B0000301D0180024D4500173AB1E0C2B00F266
:1040C000B380DFE803F007444D565F68B1717C8729
:1040D000929CA600554B4FF080429A6201210846FF
:1040E000534B98471C24514E06EB0516B5682846DD
:1040F000504B98474FF4FA6302935323ADF80430C2
:104100000023ADF80C30ADF8063001A928464A4B23
:10411000984701212846494B984701212846484B9A
:104120009847012211462846464B9847337B1B018E
:10413000DBB2454A111981F80033630904F01F040A
:10414000012000FA04F442F8234004B070BD374B5C
:104150003E4A9A6301210220354B98471D24C2E74D
:10416000324B3B4A9A6401210420314B98471E246C
:10417000B9E72E4B374A9A65012108202C4B984706
:104180003224B0E7294B344A9A6601211020284B8B
:1041900098473624A7E7254B304A9A67012120200B
:1041A000234B984737249EE7204B2D4AC3F898208D
:1041B00001214FF480302B4B9847182493E71B4B79
:1041C000294AC3F8A82001214FF40030254B984715
:1041D000192488E7154B254AC3F8B82001214FF46C
:1041E0008020204B98471A247DE7104B204AC3F8C3
:1041F000C820012140200E4B98472B2473E70B4B1E
:104200001C4AC3F8D82001218020094B98472C2450
:1042100069E7064B184AC3F8E82001214FF4807083
:10422000034B98472D245EE700208EE704310020E1
:10423000E9110108697D0108ED7E0108757F01081B
:10424000A37F01088F7F010800E100E00004004027
:1042500000080040000C0040001000400014004026
:10426000004001400512010800440140004801409F
:1042700000180040001C00400020004010B582B033
:104280004FF480511E481F4B984742F210721E494E
:104290000B8903F08203022B0BD0013AB2F1FF3FEE
:1042A000F6D100921023194A19491A481A4CA0470E
:1042B00002E0B2F57A7FF4DB134B06229A8142F2D8
:1042C000107219460B8903F08103012B0BD0013AC0
:1042D000B2F1FF3FF6D1009217230C4A0C490D486A
:1042E0000D4CA04702E0B2F57A7FF4DB064B9B89C8
:1042F0004FF480510248094B984702B010BD00BFEF
:1043000000180240D1100108003C00404CBC0108DC
:1043100040BC0108F0B401084D2B0108CD10010884
:1043200010B582B04FF480513848394B984742F26B
:10433000107238490B8903F08203022B0BD0013A2B
:10434000B2F1FF3FF6D100921023334A334934488B
:10435000344CA04702E0B2F57A7FF4DB2D4B052206
:104360009A8142F2107219460B8903F08103012BE6
:104370000BD0013AB2F1FF3FF6D100921723264A43
:1043800026492748274CA04702E0B2F57A7FF4DBA4
:10439000204B9B8942F210721E490B8903F0820365
:1043A000022B0BD0013AB2F1FF3FF6D1009210235D
:1043B000194A1A491A481B4CA04702E0B2F57A7F05
:1043C000F4DB144B00229A8142F2107219460B89D9
:1043D00003F08103012B0BD0013AB2F1FF3FF6D17C
:1043E000009217230C4A0D490D480E4CA04702E0DD
:1043F000B2F57A7FF4DB074B9C89A4B24FF480516D
:104400000248094B9847E0B202B010BD00180240C4
:10441000D1100108003C00404CBC010840BC010820
:10442000F0B401084D2B0108CD10010810B582B081
:104430004748484B98470220474B9847474B984777
:10444000474C4FF400512046464B98474FF480515B
:104450002046454B984742F210723D490B8903F0C4
:104460008203022B0BD0013AB2F1FF3FF6D100924A
:1044700010233E4A3E493F483F4CA04702E0B2F578
:104480007A7FF4DB324B01229A8142F21072194694
:104490000B8903F08103012B0BD0013AB2F1FF3FEE
:1044A000F6D100921723314A31493248324CA047A5
:1044B00002E0B2F57A7FF4DB254B9B8942F2107261
:1044C00023490B8903F08203022B0BD0013AB2F18E
:1044D000FF3FF6D100921023244A25492548264C57
:1044E000A04702E0B2F57A7FF4DB194B80229A8173
:1044F00042F2107219460B8903F08103012B0BD095
:10450000013AB2F1FF3FF6D100921723174A18493A
:104510001848194CA04702E0B2F57A7FF4DB0C4B47
:104520009B890F4C4FF4805120460E4B98474FF417
:10453000005120460C4B9847104B984701461048B5
:104540000D4B98470220044B984702B010BD00BFA6
:10455000003C00409D480108152301087D420108E8
:1045600000180240CD100108D11001084CBC010810
:1045700040BC0108F0B401084D2B0108214301089B
:1045800028BC010808B50248024B984708BD00BF87
:10459000003800409D4801082DE9F04383B00F46E4
:1045A00016461C46BDF8285040005FFA80F82946A0
:1045B0001846534B984742F2107252490B8903F048
:1045C0008203022B0CD0013AB2F1FF3FF6D10092E8
:1045D00010234D4A4D494E48DFF83891C84702E054
:1045E000B2F57A7FF3DB1FFA88F8464BA3F80C800C
:1045F00042F2107219460B8903F08103012B0CD093
:10460000013AB2F1FF3FF6D1009217233E4A3F49EB
:104610003F48DFF80081C04702E0B2F57A7FF3DB64
:10462000384B9B8942F2107236490B8903F08203A2
:10463000022B0CD0013AB2F1FF3FF6D100921023C9
:10464000314A32493248DFF8CC80C04702E0B2F547
:104650007A7FF3DBBFB22B4B9F8142F21072194677
:104660000B8903F08103012B0BD0013AB2F1FF3F1C
:10467000F6D100921723244A24492548254FB847EC
:1046800002E0B2F57A7FF4DB1E4B9B8942F2107296
:104690001C490B8903F08203022B0BD0013AB2F1C3
:1046A000FF3FF6D100921023174A18491848194FB6
:1046B000B84702E0B2F57A7FF4DBB6B2114B9E81C7
:1046C00042F2107219460B8903F08103012B0BD0C3
:1046D000013AB2F1FF3FF6D1009217230A4A0B4983
:1046E0000B480C4EB04702E0B2F57A7FF4DB054B85
:1046F0009B8929462046084B984703B0BDE8F083C4
:10470000D1100108003800405CBC010840BC010821
:10471000F0B401084D2B0108CD1001082DE9F0413E
:1047200082B00E4614461D46470047F00107FFB20F
:1047300019461046524B984742F2107251490B8964
:1047400003F08203022B0CD0013AB2F1FF3FF6D105
:10475000009210234C4A4D494D48DFF83881C0473C
:1047600002E0B2F57A7FF3DBBFB2464B9F8142F2A3
:10477000107219460B8903F08103012B0BD0013A0B
:10478000B2F1FF3FF6D1009217233F4A3F4940481C
:10479000404FB84702E0B2F57A7FF4DB394B9B8992
:1047A00042F2107237490B8903F08203022B0BD0BF
:1047B000013AB2F1FF3FF6D100921023324A334959
:1047C0003348344FB84702E0B2F57A7FF4DBB6B233
:1047D0002C4B9E8142F2107219460B8903F0810323
:1047E000012B0BD0013AB2F1FF3FF6D10092172313
:1047F000254A26492648274EB04702E0B2F57A7F7F
:10480000F4DB204B9B8942F210721E490B8903F0A6
:104810008203022B0BD0013AB2F1FF3FF6D1009296
:104820001023194A19491A481A4EB04702E0B2F546
:104830007A7FF4DB134BFF229A8142F21072194601
:104840000B8903F08103012B0BD0013AB2F1FF3F3A
:10485000F6D1009217230C4A0C490D480D4EB04773
:1048600002E0B2F57A7FF4DB064B9E89B6B22946A8
:104870002046094B9847F0B202B0BDE8F08100BF76
:10488000D1100108003800405CBC010840BC0108A0
:10489000F0B401084D2B0108CD10010830B587B0E8
:1048A00004462B4B984233D02A4B984240D02A4B97
:1048B0001B685BBB0125284B1D602848284B984787
:1048C00029464FF40040274B98470023ADF80430A9
:1048D0004FF48272ADF80620ADF80830ADF80A301A
:1048E000ADF80C304FF40072ADF80E201822ADF880
:1048F0001020ADF812300723ADF8143001A920467E
:10490000194B984701212046184B984707B030BDF6
:10491000174B1B68002BF9D10125154B1D6015485D
:104920000F4B984729464FF48050134B9847CCE7DC
:10493000124B1B68002BE9D10125104B1D6010485C
:10494000074B984729464FF48040064B9847BCE7F1
:104950000030014000380040FC310020A4BC0108B8
:104960004D2B0108E9110108117D01084F7D010857
:10497000F43100206CBC010805120108F831002058
:1049800088BC010810B582B04FF400411E481F4B8F
:10499000984742F210721E490B8903F08203022BE2
:1049A0000BD0013AB2F1FF3FF6D100921023194A21
:1049B00019491A481A4CA04702E0B2F57A7FF4DB95
:1049C000134B06229A8142F2107219460B8903F0AA
:1049D0008103012B0BD0013AB2F1FF3FF6D10092D7
:1049E00017230C4A0C490D480D4CA04702E0B2F5C4
:1049F0007A7FF4DB064B9B894FF400410248094B58
:104A0000984702B010BD00BF00000240D11001085D
:104A1000003C0040F0BC010840BC0108F0B40108B3
:104A20004D2B0108CD10010810B582B04FF40041A4
:104A30003848394B984742F2107238490B8903F0D5
:104A40008203022B0BD0013AB2F1FF3FF6D1009264
:104A50001023334A33493448344CA04702E0B2F5BE
:104A60007A7FF4DB2D4B05229A8142F210721946AF
:104A70000B8903F08103012B0BD0013AB2F1FF3F08
:104A8000F6D100921723264A26492748274CA047EB
:104A900002E0B2F57A7FF4DB204B9B8942F2107280
:104AA0001E490B8903F08203022B0BD0013AB2F1AD
:104AB000FF3FF6D100921023194A1A491A481B4C9D
:104AC000A04702E0B2F57A7FF4DB144BFF229A8113
:104AD00042F2107219460B8903F08103012B0BD0AF
:104AE000013AB2F1FF3FF6D1009217230C4A0D496B
:104AF0000D480E4CA04702E0B2F57A7FF4DB074B7D
:104B00009C89A4B24FF400410248094B9847E0B297
:104B100002B010BD00000240D1100108003C00406E
:104B2000F0BC010840BC0108F0B401084D2B01089D
:104B3000CD1001082DE9F04389B0A148A14B984759
:104B4000A148A24B98471E20A14B98474FF4004123
:104B5000A048A14B9847A14B98474FF40041A0486B
:104B6000A04B984742F2107297490B8903F08203D9
:104B7000022B0BD0013AB2F1FF3FF6D10092102385
:104B8000994A9A499A488F4CA04702E0B2F57A7F39
:104B9000F4DB8D4B98229A8142F2107219460B89F0
:104BA00003F08103012B0BD0013AB2F1FF3FF6D1A4
:104BB000009217238C4A8D498D48824CA04702E011
:104BC000B2F57A7FF4DB804B9B894FF40041844837
:104BD000814B98476424874D01277D4EA84710F0EC
:104BE000010F06D0013CB4F1FF3F1FD03846B0475B
:104BF000F4E7002C1CDD794B98474FF400417848CE
:104C0000784B984742F210726F490B8903F0820388
:104C1000022B12D0013AB2F1FF3FF6D100921023DD
:104C2000714A72497248674CA04709E04FF0FF345F
:104C300021467148634B9847DDE7B2F57A7FEDDB9B
:104C4000614B01229A8142F2107219460B8903F0DE
:104C50008103012B0BD0013AB2F1FF3FF6D1009254
:104C60001723614A61496248564CA04702E0B2F5F9
:104C70007A7FF4DB544B9B8942F2107252490B89C4
:104C800003F08203022B0BD0013AB2F1FF3FF6D1C1
:104C900000921023544A554955484A4CA04702E017
:104CA000B2F57A7FF4DB484B00229A8142F210720F
:104CB00019460B8903F08103012B0BD0013AB2F1A5
:104CC000FF3FF6D100921723474A484948483D4CD8
:104CD000A04702E0B2F57A7FF4DB3B4B9B8942F2BE
:104CE000107239490B8903F08203022B0BD0013A71
:104CF000B2F1FF3FF6D1009210233B4A3B493C48BA
:104D0000304CA04702E0B2F57A7FF4DB2E4B8822CC
:104D10009A8142F2107219460B8903F08103012B2C
:104D20000BD0013AB2F1FF3FF6D1009217232E4A81
:104D30002E492F48234CA04702E0B2F57A7FF4DBDE
:104D4000214B9B894FF400412548234B984764240D
:104D5000284D01271E4EA84710F0010F06D0013C38
:104D6000B4F1FF3F25D03846B047F4E7002C22DDF0
:104D700088212248134B98474FF400411548194C9D
:104D8000A0474FF400411648A04742F210720E4966
:104D90000B8903F08203022B32D0013AB2F1FF3FBC
:104DA000F6D100921023104A10491148054CA04733
:104DB00029E04FF0FF3421460F48024B9847D7E7D0
:104DC000C0BC01084D2B0108003C00409D48010873
:104DD0001523010800180240CD100108854901087B
:104DE00000000240D1100108F0BC010840BC0108DD
:104DF000F0B40108294A0108DCBC0108D0BC010854
:104E0000B2F57A7FCDDB334B72229A8142F2107277
:104E100019460B8903F08103012B0BD0013AB2F143
:104E2000FF3FF6D1009217232B4A2C492C482D4CDA
:104E3000A04702E0B2F57A7FF4DB264B9B890DF1A7
:104E40000B050DF11D06234CDFF88C80234F20E06D
:104E5000B2F57A7F28DBFF23A38142F21072238907
:104E600003F08103012B0CD0013AB2F1FF3FF6D1E0
:104E700000921723424639461948DFF86890C84720
:104E800002E0B2F57A7FF3DBA38905F8013FB54272
:104E900013D042F21072238903F08203022BD7D081
:104EA000013AB2F1FF3FF6D1009210234246394653
:104EB0000B48DFF83090C847CDE74FF400410A486F
:104EC0000A4B9847122103A8094B984709B0BDE83F
:104ED000F08300BF003C0040F0BC010840BC01086A
:104EE000F0B401084D2B010800000240CD1001086C
:104EF0003D2001082DE9F04F85B0064692469946BF
:104F00000E9C1E4B0A0A1A70597083F802901C4BB3
:104F1000984730B91B4B9847DFF8608001251A4F3E
:104F20000EE0834600905123184A194919481A4C3B
:104F3000A0471EE0BBF1000F19DA002C17DD013C81
:104F400002950A2301930023009303224146304631
:104F5000B847B0F1000BEDDD0295002301930095F9
:104F60004A4651463046B847B0F1000BE2DD0B4BE4
:104F70009847584605B0BDE8F08F00BF803200204A
:104F80004D3E0108F13E01081D3F010884BD0108A6
:104F90006CBD0108F0B401084D2B0108093F010860
:104FA0002DE9F04F87B0814604910592684D0023AA
:104FB0002B716B71AB7101222A706B70A870E97054
:104FC000A91D15F8012B1344DBB28D42F9D1604ABB
:104FD00093710023009307234FF4407138205D4CF8
:104FE000A04706460A205C4B98475C4BD3F80080EC
:104FF000B8F1000F08BF4FF001089A46584FDFF88C
:1050000090B156E000902523564A57495748584CCE
:10501000A0470BE001230293002201920093072294
:105020004B493820A0470646524B9847002E63DD77
:10503000474A002412F8013B1C44E4B29542F9D1DE
:10504000434B9B79A34260D1414B1B7813F0010F76
:105050006CD03F4B9B784B4562D03D4900230B7190
:105060004B718B71012008704B7081F802909DF894
:105070001000C870084610F8011B0B44DBB29042C8
:10508000F9D1334CA37100230093072322464FF438
:10509000407138202F4EB0470646024649463648F2
:1050A000334B984731462046344B984702202A4BD1
:1050B0009847DAF80030002B08BF0123A3EB080360
:1050C000C72B38DC01233B7000237B700723BB70A8
:1050D000D8470646002895D1294B984701230293CB
:1050E0000A23019300230093032239463820254CDC
:1050F000A047061E98DD8DE70096C223224A1A4972
:105100001A481B4CA04700201FE00120124B984773
:105110000094CD231C4A14491448154CA047C8E7F5
:105120000B4B9B88059A138001200EE0084B9B785F
:105130004B45BBD091E70096EC23134A0A490B4834
:105140000B4CA0471148A047002007B0BDE8F08FE6
:1051500000320020F54E01081523010874100020CC
:105160008032002090BD01086CBD0108F0B4010838
:105170004D2B0108093F010800BD01083D20010831
:10518000F13E01081D3F01087CBD01081CBD01085E
:105190004D3E0108F0B583B014461D4602281AD0D2
:1051A000032842D10B0E02F8043C0B0C02F8033C1E
:1051B0000B0A02F8023C02F8011C1D4B1868002380
:1051C00001931C4B1B8800931B4B2A1D211F1B4C5A
:1051D000A04703B0F0BDD61F03F10A07F82302F879
:1051E000073CC7F3072302F8063C02F8057C0B0EC8
:1051F00002F8043C0B0C02F8033C0B0A02F8023CD8
:1052000002F8011CA91D901F0D4B98470735731913
:10521000020A72555870F319F92203F8012C394625
:105220003046084B98470020D3E76FF00F00D0E7D7
:105230003833002034330020003300207936010851
:10524000C11F01088125010838B50F4B1C5CE4051E
:1052500004F0FC540B680D491D0E0D741D0C4D74AB
:105260001D0A8D74CB74130E0B75130C4B75130A3A
:105270008B75CA75082301F1100244F4F90141F459
:105280002051034CA04738BD3C330020043300209C
:10529000955101082DE9F04F85B001908A46DFF85D
:1052A0006CB1DFF86C81554CDFF85C91502383F3CF
:1052B0001188D8471BE0002383F311886FF004079F
:1052C000384605B0BDE8F08F0120A0470702022054
:1052D000A0470744A7F10A05B5F58C7F16D8BE4252
:1052E00017DB781EA047F92819D00120C847C0470E
:1052F00006460328DFDD0020A047F828E4D0002080
:10530000A047F5283BD00120C847F0E70120C84757
:10531000EDE7002383F311886FF00407D0E706223E
:1053200002A90120364EB0479DF80A309DF80B20A7
:1053300042EA03229DF80C3043EA02229DF80D3028
:1053400043EA0223019A1360A7F10802514607209D
:10535000B0473846C847002383F311880A3F3B46CD
:105360005246062102A8274EB0470AEB05031AF859
:1053700005205B7843EA0223984297D1A0E70120F9
:10538000A04705460220A04740EA0525ADB22F46BA
:10539000B5F5006F1DDAAE421EDB2A4651460020ED
:1053A000174B98476B1E002B1CDD0AF1FF32AAF148
:1053B00002002844002312F8011F0B44DBB2824292
:1053C000F9D1554415F8012C9A420DD00120C84757
:1053D0008DE70120C8478AE7002383F311886FF027
:1053E00004076DE70023ECE73846074B9847002396
:1053F00083F31188019A136062E700BF712C0108E2
:10540000992C0108F11F0108E12C01085D26010813
:10541000652C01082DE9F04F8BB005460391BE4B7A
:105420001B5CDB0503F0FC5343F4F90343F4C05366
:1054300005930B89C9888B423DD2C91A012398462E
:1054400018468B4206D000FA03F248EA02080133FC
:10545000102BF6D103980268B04B110E1974110C81
:105460005974110A9974DA740289110A19755A75F6
:1054700003230493DFF8F892DFF8F8A24FEA1863E9
:10548000A64A93754FEA1843D3754FEA182313764B
:1054900082F819800A23103205992846A04CA047AB
:1054A0000028C0F28081D9F80060002E08BF0126D4
:1054B000DFF8C4B216E04FF00008CBE74FF48C726F
:1054C000214609A8974B984743E001469648974BD9
:1054D00098476FF010003CE06FF0040039E00120C5
:1054E000934B9847D9F80030002B08BF01239B1B32
:1054F000B3F5FA6F80F24481DAF80040022DDDD076
:10550000032D40F0C5800DF11E03009308AB4FF44E
:105510008E72211FDBF80000864FB8470428DBDDC0
:105520000028D2DB844B089A1A60844BBDF81E20F9
:105530001A8014F8043C14F8032C42EA032214F8ED
:10554000023C43EA022214F8013C43EA0223099395
:10555000043810F1050FC2D00028C0F29780099BD3
:10556000C3F3C5523E2ABDD1C3F30723A02BB9D143
:10557000B0F5847FB6D1D9F80060002E08BF0126AF
:10558000DAF800000178437843EA0123817841EAA0
:105590000323C17841EA0321039B1B688B4240F03F
:1055A00081800379417941EA0321039B1A898A4268
:1055B0007CD802F11003994278DA8F1A0124BC409A
:1055C00018EA040F76D000F108035D4A02EB0722C7
:1055D00000F5847013F8011B02F8011F9842F9D1FD
:1055E00038EA04087FF47EAF039A1389D76807EB83
:1055F000032707F17843B3F5804F5FD3A3F58043CA
:10560000B3F5804F78D307F17843A3F50043B3F5A2
:10561000804F73D307F17843A3F54043B3F5804F30
:105620006ED307F1774303F57F03B3F5803F69D36A
:1056300007F1774303F57E03B3F5003F64D307F129
:10564000774303F57C03B3F5003F5FD307F177435E
:1056500003F57A03B3F5003F5AD307F1774303F517
:105660007803B3F5003F55D307F1774303F576038D
:10567000B3F5003FC0F0828007F1774505F574056A
:10568000304B9D4294BF5025582518E0044601E058
:105690006FF00F0421462C48244B984720460BB04E
:1056A000BDE8F08F2948214B98471BE728481F4B3E
:1056B000984717E727481D4B984713E70025264BC7
:1056C00098474FF4806225493846254B984706464F
:1056D000244B98473446082E63D033463A46294631
:1056E0002148124EB047039B1B89002BD6D1294677
:1056F00028461E4B9847D1E70825E0E71025DEE74E
:105700001825DCE72025DAE72825D8E73025D6E775
:105710003825D4E74025D2E73C330020043300206D
:10572000955101089552010884BF01084D2B0108CD
:1057300015230108193801080033002034330020F4
:105740004B330020FFFF0100A8BF0108D4BF0108B0
:10575000FCBF01082CC00108957801084C330020DB
:10576000F9790108B578010844C00108BD1D010898
:1057700074100020483300203833002048259EE76D
:10578000049B013B049306D04246039B19890748BA
:10579000074B984772E60748054B98476FF0780427
:1057A0007CE700247AE7044678E700BF68C0010878
:1057B0004D2B010884C0010810B582B001A8134B1D
:1057C0009847002815DB01991148124B9847002390
:1057D00041F62C32194601980F4CA047014678B982
:1057E0000E4B019A1A600E4B0922DA70084602B07D
:1057F00010BD01460B48074B98474FF0FF31F5E7C6
:105800000948044B98474FF0FF31EFE73138010862
:105810009CBD01084D2B01080139010838330020D7
:105820003C330020A4B40108B8B4010872B6BFF339
:105830004F8F0549CA6802F4E062044B1343CB6002
:10584000BFF34F8FFEE700BF00ED00E00400FA0554
:105850002DE9F04705460C4616469A46C96801F1FF
:105860007843B3F5804F4DD3A3F58043B3F5804F14
:10587000C0F0958001F17843A3F50043B3F5804F64
:10588000C0F0908001F17843A3F54043B3F5804F19
:10589000C0F08B8001F1774303F57F03B3F5803FC0
:1058A000C0F0868001F1774303F57E03B3F5003F36
:1058B000C0F0818001F1774303F57C03B3F5003F2D
:1058C0007CD301F1774303F57A03B3F5003F78D336
:1058D00001F1774303F57803B3F5003F74D301F189
:1058E000774303F57603B3F5003F70D301F17748B2
:1058F00008F57408A54B984594BF4FF050084FF039
:10590000580801E04FF00008E38801EB032303F19E
:105910007842043AB2F5804F5CD39D4A1A44B2F5FE
:10592000804FC0F0E8809B4A1A44B2F5804FC0F027
:10593000E580994A1A44B2F5804FC0F0E280974A58
:105940001A44B2F5803FC0F0DF80954A1A44B2F5A0
:10595000003FC0F0DC8003F17842A2F10412B2F5FE
:10596000003FC0F0D7808F4A1A44B2F5003FC0F024
:10597000D4808D4A1A44B2F5003FC0F0D1808B4AE2
:105980001A44B2F5003FC0F0CE80894A1A447F4BDA
:105990009A4294BF4FF050094FF058091CE04FF065
:1059A0000808B1E74FF01008AEE74FF01808ABE772
:1059B0004FF02008A8E74FF02808A5E74FF030087F
:1059C000A2E74FF038089FE74FF040089CE74FF000
:1059D000480899E74FF000094B4642467548764F14
:1059E000B84749464046754B98470746082840F057
:1059F0009D80734B002103F5805203F8011B9342F5
:105A0000FBD110232381E388102B0ED96D4F324632
:105A100021462846B847021EC0F2908023891033E1
:105A20009BB22381E2889A42F1D800232381324637
:105A300021462846634B9847021EC0F28480624884
:105A40005D4B9847A688E1880902E0685F4B98475C
:105A5000864200F0C1805E48574B9847E36803F1E7
:105A60007842B2F5804F73D3A2F58042B2F5804FF1
:105A70007AD303F17842A2F50042B2F5804F75D394
:105A800003F17842A2F54042B2F5804F70D303F1A2
:105A9000774202F57F02B2F5803F6BD303F1774284
:105AA00002F57E02B2F5003F66D303F1774202F5BC
:105AB0007C02B2F5003F61D303F1774202F57A022E
:105AC000B2F5003F5CD303F1774202F57802B2F5FC
:105AD000003F57D303F1774202F57602B2F5003F5B
